Archive member included because of file (symbol)

C:\Users\Haris\AppData\Local\Temp\VMBuilds\Main_Siemens_Automation_824MSPe\haeger_haeger_samd_haeger_mcu2\Release/core.a(cortex_handlers.c.o)
                              (Reset_Handler)
C:\Users\Haris\AppData\Local\Temp\VMBuilds\Main_Siemens_Automation_824MSPe\haeger_haeger_samd_haeger_mcu2\Release/core.a(delay.c.o)
                              C:\Users\Haris\AppData\Local\Temp\VMBuilds\Main_Siemens_Automation_824MSPe\haeger_haeger_samd_haeger_mcu2\Release\Main_Siemens_Automation_824MSPe.cpp.o (millis)
C:\Users\Haris\AppData\Local\Temp\VMBuilds\Main_Siemens_Automation_824MSPe\haeger_haeger_samd_haeger_mcu2\Release/core.a(hooks.c.o)
                              C:\Users\Haris\AppData\Local\Temp\VMBuilds\Main_Siemens_Automation_824MSPe\haeger_haeger_samd_haeger_mcu2\Release/core.a(delay.c.o) (yield)
C:\Users\Haris\AppData\Local\Temp\VMBuilds\Main_Siemens_Automation_824MSPe\haeger_haeger_samd_haeger_mcu2\Release/core.a(startup.c.o)
                              C:\Users\Haris\AppData\Local\Temp\VMBuilds\Main_Siemens_Automation_824MSPe\haeger_haeger_samd_haeger_mcu2\Release/core.a(cortex_handlers.c.o) (SystemInit)
C:\Users\Haris\AppData\Local\Temp\VMBuilds\Main_Siemens_Automation_824MSPe\haeger_haeger_samd_haeger_mcu2\Release/core.a(wiring_analog.c.o)
                              C:\Users\Haris\AppData\Local\Temp\VMBuilds\Main_Siemens_Automation_824MSPe\haeger_haeger_samd_haeger_mcu2\Release\Main_Siemens_Automation_824MSPe.cpp.o (analogReadResolution)
C:\Users\Haris\AppData\Local\Temp\VMBuilds\Main_Siemens_Automation_824MSPe\haeger_haeger_samd_haeger_mcu2\Release/core.a(wiring_digital.c.o)
                              C:\Users\Haris\AppData\Local\Temp\VMBuilds\Main_Siemens_Automation_824MSPe\haeger_haeger_samd_haeger_mcu2\Release\Main_Siemens_Automation_824MSPe.cpp.o (pinMode)
C:\Users\Haris\AppData\Local\Temp\VMBuilds\Main_Siemens_Automation_824MSPe\haeger_haeger_samd_haeger_mcu2\Release/core.a(wiring_private.c.o)
                              C:\Users\Haris\AppData\Local\Temp\VMBuilds\Main_Siemens_Automation_824MSPe\haeger_haeger_samd_haeger_mcu2\Release\Wire\Wire.cpp.o (pinPeripheral)
C:\Users\Haris\AppData\Local\Temp\VMBuilds\Main_Siemens_Automation_824MSPe\haeger_haeger_samd_haeger_mcu2\Release/core.a(abi.cpp.o)
                              C:\Users\Haris\AppData\Local\Temp\VMBuilds\Main_Siemens_Automation_824MSPe\haeger_haeger_samd_haeger_mcu2\Release\Wire\Wire.cpp.o (__cxa_pure_virtual)
C:\Users\Haris\AppData\Local\Temp\VMBuilds\Main_Siemens_Automation_824MSPe\haeger_haeger_samd_haeger_mcu2\Release/core.a(main.cpp.o)
                              c:/users/haris/appdata/local/arduino15/packages/arduino/tools/arm-none-eabi-gcc/4.8.3-2014q1/bin/../lib/gcc/arm-none-eabi/4.8.3/../../../../arm-none-eabi/lib/armv7e-m/fpu/crt0.o (main)
C:\Users\Haris\AppData\Local\Temp\VMBuilds\Main_Siemens_Automation_824MSPe\haeger_haeger_samd_haeger_mcu2\Release/core.a(Print.cpp.o)
                              C:\Users\Haris\AppData\Local\Temp\VMBuilds\Main_Siemens_Automation_824MSPe\haeger_haeger_samd_haeger_mcu2\Release\Wire\Wire.cpp.o (Print::write(unsigned char const*, unsigned int))
C:\Users\Haris\AppData\Local\Temp\VMBuilds\Main_Siemens_Automation_824MSPe\haeger_haeger_samd_haeger_mcu2\Release/core.a(Reset.cpp.o)
                              C:\Users\Haris\AppData\Local\Temp\VMBuilds\Main_Siemens_Automation_824MSPe\haeger_haeger_samd_haeger_mcu2\Release/core.a(delay.c.o) (tickReset)
C:\Users\Haris\AppData\Local\Temp\VMBuilds\Main_Siemens_Automation_824MSPe\haeger_haeger_samd_haeger_mcu2\Release/core.a(RingBuffer.cpp.o)
                              C:\Users\Haris\AppData\Local\Temp\VMBuilds\Main_Siemens_Automation_824MSPe\haeger_haeger_samd_haeger_mcu2\Release\Wire\Wire.cpp.o (RingBuffer::RingBuffer())
C:\Users\Haris\AppData\Local\Temp\VMBuilds\Main_Siemens_Automation_824MSPe\haeger_haeger_samd_haeger_mcu2\Release/core.a(SERCOM.cpp.o)
                              C:\Users\Haris\AppData\Local\Temp\VMBCore\visualmicro\ed00c25992609daaa7a7b547b702356d\variant\variant.cpp.o (SERCOM::SERCOM(Sercom*))
C:\Users\Haris\AppData\Local\Temp\VMBuilds\Main_Siemens_Automation_824MSPe\haeger_haeger_samd_haeger_mcu2\Release/core.a(Uart.cpp.o)
                              C:\Users\Haris\AppData\Local\Temp\VMBCore\visualmicro\ed00c25992609daaa7a7b547b702356d\variant\variant.cpp.o (Uart::Uart(SERCOM*, unsigned char, unsigned char, SercomRXPad, SercomUartTXPad))
C:\Users\Haris\AppData\Local\Temp\VMBuilds\Main_Siemens_Automation_824MSPe\haeger_haeger_samd_haeger_mcu2\Release/core.a(WMath.cpp.o)
                              C:\Users\Haris\AppData\Local\Temp\VMBuilds\Main_Siemens_Automation_824MSPe\haeger_haeger_samd_haeger_mcu2\Release\Main_Siemens_Automation_824MSPe.cpp.o (makeWord(unsigned char, unsigned char))
C:\Users\Haris\AppData\Local\Temp\VMBuilds\Main_Siemens_Automation_824MSPe\haeger_haeger_samd_haeger_mcu2\Release/core.a(CDC.cpp.o)
                              C:\Users\Haris\AppData\Local\Temp\VMBuilds\Main_Siemens_Automation_824MSPe\haeger_haeger_samd_haeger_mcu2\Release\Main_Siemens_Automation_824MSPe.cpp.o (Serial_::begin(unsigned long))
C:\Users\Haris\AppData\Local\Temp\VMBuilds\Main_Siemens_Automation_824MSPe\haeger_haeger_samd_haeger_mcu2\Release/core.a(USBCore.cpp.o)
                              C:\Users\Haris\AppData\Local\Temp\VMBuilds\Main_Siemens_Automation_824MSPe\haeger_haeger_samd_haeger_mcu2\Release/core.a(main.cpp.o) (USBDeviceClass::init())
C:\Users\Haris\AppData\Local\Temp\VMBuilds\Main_Siemens_Automation_824MSPe\haeger_haeger_samd_haeger_mcu2\Release/core.a(wiring.c.o)
                              C:\Users\Haris\AppData\Local\Temp\VMBuilds\Main_Siemens_Automation_824MSPe\haeger_haeger_samd_haeger_mcu2\Release/core.a(main.cpp.o) (init)
C:\Users\Haris\AppData\Local\Temp\VMBuilds\Main_Siemens_Automation_824MSPe\haeger_haeger_samd_haeger_mcu2\Release/core.a(new.cpp.o)
                              C:\Users\Haris\AppData\Local\Temp\VMBuilds\Main_Siemens_Automation_824MSPe\haeger_haeger_samd_haeger_mcu2\Release/core.a(USBCore.cpp.o) (operator new(unsigned int))
C:\Users\Haris\AppData\Local\Temp\VMBuilds\Main_Siemens_Automation_824MSPe\haeger_haeger_samd_haeger_mcu2\Release/core.a(PluggableUSB.cpp.o)
                              C:\Users\Haris\AppData\Local\Temp\VMBuilds\Main_Siemens_Automation_824MSPe\haeger_haeger_samd_haeger_mcu2\Release/core.a(USBCore.cpp.o) (PluggableUSB_::getInterface(unsigned char*))
C:\Users\Haris\AppData\Local\Temp\VMBuilds\Main_Siemens_Automation_824MSPe\haeger_haeger_samd_haeger_mcu2\Release/core.a(SAMD21_USBDevice.cpp.o)
                              C:\Users\Haris\AppData\Local\Temp\VMBuilds\Main_Siemens_Automation_824MSPe\haeger_haeger_samd_haeger_mcu2\Release/core.a(USBCore.cpp.o) (USBDevice_SAMD21G18x::reset())
c:/users/haris/appdata/local/arduino15/packages/arduino/tools/arm-none-eabi-gcc/4.8.3-2014q1/bin/../lib/gcc/arm-none-eabi/4.8.3/../../../../arm-none-eabi/lib/armv7e-m/fpu\libm.a(lib_a-s_fpclassify.o)
                              C:\Users\Haris\AppData\Local\Temp\VMBuilds\Main_Siemens_Automation_824MSPe\haeger_haeger_samd_haeger_mcu2\Release/core.a(Print.cpp.o) (__fpclassifyd)
c:/users/haris/appdata/local/arduino15/packages/arduino/tools/arm-none-eabi-gcc/4.8.3-2014q1/bin/../lib/gcc/arm-none-eabi/4.8.3/armv7e-m/fpu\libgcc.a(_arm_addsubdf3.o)
                              C:\Users\Haris\AppData\Local\Temp\VMBuilds\Main_Siemens_Automation_824MSPe\haeger_haeger_samd_haeger_mcu2\Release\ResponsiveAnalogRead\ResponsiveAnalogRead.cpp.o (__aeabi_dsub)
c:/users/haris/appdata/local/arduino15/packages/arduino/tools/arm-none-eabi-gcc/4.8.3-2014q1/bin/../lib/gcc/arm-none-eabi/4.8.3/armv7e-m/fpu\libgcc.a(_arm_muldivdf3.o)
                              C:\Users\Haris\AppData\Local\Temp\VMBuilds\Main_Siemens_Automation_824MSPe\haeger_haeger_samd_haeger_mcu2\Release\ResponsiveAnalogRead\ResponsiveAnalogRead.cpp.o (__aeabi_dmul)
c:/users/haris/appdata/local/arduino15/packages/arduino/tools/arm-none-eabi-gcc/4.8.3-2014q1/bin/../lib/gcc/arm-none-eabi/4.8.3/armv7e-m/fpu\libgcc.a(_arm_cmpdf2.o)
                              C:\Users\Haris\AppData\Local\Temp\VMBuilds\Main_Siemens_Automation_824MSPe\haeger_haeger_samd_haeger_mcu2\Release/core.a(Print.cpp.o) (__aeabi_dcmplt)
c:/users/haris/appdata/local/arduino15/packages/arduino/tools/arm-none-eabi-gcc/4.8.3-2014q1/bin/../lib/gcc/arm-none-eabi/4.8.3/armv7e-m/fpu\libgcc.a(_arm_fixunsdfsi.o)
                              C:\Users\Haris\AppData\Local\Temp\VMBuilds\Main_Siemens_Automation_824MSPe\haeger_haeger_samd_haeger_mcu2\Release/core.a(Print.cpp.o) (__aeabi_d2uiz)
c:/users/haris/appdata/local/arduino15/packages/arduino/tools/arm-none-eabi-gcc/4.8.3-2014q1/bin/../lib/gcc/arm-none-eabi/4.8.3/armv7e-m/fpu\libgcc.a(_arm_truncdfsf2.o)
                              C:\Users\Haris\AppData\Local\Temp\VMBuilds\Main_Siemens_Automation_824MSPe\haeger_haeger_samd_haeger_mcu2\Release\ResponsiveAnalogRead\ResponsiveAnalogRead.cpp.o (__aeabi_d2f)
c:/users/haris/appdata/local/arduino15/packages/arduino/tools/arm-none-eabi-gcc/4.8.3-2014q1/bin/../lib/gcc/arm-none-eabi/4.8.3/../../../../arm-none-eabi/lib/armv7e-m/fpu\libc_s.a(lib_a-exit.o)
                              c:/users/haris/appdata/local/arduino15/packages/arduino/tools/arm-none-eabi-gcc/4.8.3-2014q1/bin/../lib/gcc/arm-none-eabi/4.8.3/../../../../arm-none-eabi/lib/armv7e-m/fpu/crt0.o (exit)
c:/users/haris/appdata/local/arduino15/packages/arduino/tools/arm-none-eabi-gcc/4.8.3-2014q1/bin/../lib/gcc/arm-none-eabi/4.8.3/../../../../arm-none-eabi/lib/armv7e-m/fpu\libc_s.a(lib_a-impure.o)
                              c:/users/haris/appdata/local/arduino15/packages/arduino/tools/arm-none-eabi-gcc/4.8.3-2014q1/bin/../lib/gcc/arm-none-eabi/4.8.3/../../../../arm-none-eabi/lib/armv7e-m/fpu\libc_s.a(lib_a-exit.o) (_global_impure_ptr)
c:/users/haris/appdata/local/arduino15/packages/arduino/tools/arm-none-eabi-gcc/4.8.3-2014q1/bin/../lib/gcc/arm-none-eabi/4.8.3/../../../../arm-none-eabi/lib/armv7e-m/fpu\libc_s.a(lib_a-init.o)
                              c:/users/haris/appdata/local/arduino15/packages/arduino/tools/arm-none-eabi-gcc/4.8.3-2014q1/bin/../lib/gcc/arm-none-eabi/4.8.3/../../../../arm-none-eabi/lib/armv7e-m/fpu/crt0.o (__libc_init_array)
c:/users/haris/appdata/local/arduino15/packages/arduino/tools/arm-none-eabi-gcc/4.8.3-2014q1/bin/../lib/gcc/arm-none-eabi/4.8.3/../../../../arm-none-eabi/lib/armv7e-m/fpu\libc_s.a(lib_a-malloc.o)
                              C:\Users\Haris\AppData\Local\Temp\VMBuilds\Main_Siemens_Automation_824MSPe\haeger_haeger_samd_haeger_mcu2\Release/core.a(USBCore.cpp.o) (malloc)
c:/users/haris/appdata/local/arduino15/packages/arduino/tools/arm-none-eabi-gcc/4.8.3-2014q1/bin/../lib/gcc/arm-none-eabi/4.8.3/../../../../arm-none-eabi/lib/armv7e-m/fpu\libc_s.a(lib_a-memcpy-stub.o)
                              C:\Users\Haris\AppData\Local\Temp\VMBuilds\Main_Siemens_Automation_824MSPe\haeger_haeger_samd_haeger_mcu2\Release/core.a(USBCore.cpp.o) (memcpy)
c:/users/haris/appdata/local/arduino15/packages/arduino/tools/arm-none-eabi-gcc/4.8.3-2014q1/bin/../lib/gcc/arm-none-eabi/4.8.3/../../../../arm-none-eabi/lib/armv7e-m/fpu\libc_s.a(lib_a-memset.o)
                              c:/users/haris/appdata/local/arduino15/packages/arduino/tools/arm-none-eabi-gcc/4.8.3-2014q1/bin/../lib/gcc/arm-none-eabi/4.8.3/../../../../arm-none-eabi/lib/armv7e-m/fpu/crt0.o (memset)
c:/users/haris/appdata/local/arduino15/packages/arduino/tools/arm-none-eabi-gcc/4.8.3-2014q1/bin/../lib/gcc/arm-none-eabi/4.8.3/../../../../arm-none-eabi/lib/armv7e-m/fpu\libc_s.a(lib_a-nano-freer.o)
                              c:/users/haris/appdata/local/arduino15/packages/arduino/tools/arm-none-eabi-gcc/4.8.3-2014q1/bin/../lib/gcc/arm-none-eabi/4.8.3/../../../../arm-none-eabi/lib/armv7e-m/fpu\libc_s.a(lib_a-malloc.o) (_free_r)
c:/users/haris/appdata/local/arduino15/packages/arduino/tools/arm-none-eabi-gcc/4.8.3-2014q1/bin/../lib/gcc/arm-none-eabi/4.8.3/../../../../arm-none-eabi/lib/armv7e-m/fpu\libc_s.a(lib_a-nano-mallocr.o)
                              c:/users/haris/appdata/local/arduino15/packages/arduino/tools/arm-none-eabi-gcc/4.8.3-2014q1/bin/../lib/gcc/arm-none-eabi/4.8.3/../../../../arm-none-eabi/lib/armv7e-m/fpu\libc_s.a(lib_a-malloc.o) (_malloc_r)
c:/users/haris/appdata/local/arduino15/packages/arduino/tools/arm-none-eabi-gcc/4.8.3-2014q1/bin/../lib/gcc/arm-none-eabi/4.8.3/../../../../arm-none-eabi/lib/armv7e-m/fpu\libc_s.a(lib_a-rand.o)
                              C:\Users\Haris\AppData\Local\Temp\VMBuilds\Main_Siemens_Automation_824MSPe\haeger_haeger_samd_haeger_mcu2\Release/core.a(WMath.cpp.o) (srand)
c:/users/haris/appdata/local/arduino15/packages/arduino/tools/arm-none-eabi-gcc/4.8.3-2014q1/bin/../lib/gcc/arm-none-eabi/4.8.3/../../../../arm-none-eabi/lib/armv7e-m/fpu\libc_s.a(lib_a-sbrkr.o)
                              c:/users/haris/appdata/local/arduino15/packages/arduino/tools/arm-none-eabi-gcc/4.8.3-2014q1/bin/../lib/gcc/arm-none-eabi/4.8.3/../../../../arm-none-eabi/lib/armv7e-m/fpu\libc_s.a(lib_a-nano-mallocr.o) (_sbrk_r)
c:/users/haris/appdata/local/arduino15/packages/arduino/tools/arm-none-eabi-gcc/4.8.3-2014q1/bin/../lib/gcc/arm-none-eabi/4.8.3/../../../../arm-none-eabi/lib/armv7e-m/fpu\libc_s.a(lib_a-strlen.o)
                              C:\Users\Haris\AppData\Local\Temp\VMBuilds\Main_Siemens_Automation_824MSPe\haeger_haeger_samd_haeger_mcu2\Release/core.a(Print.cpp.o) (strlen)
c:/users/haris/appdata/local/arduino15/packages/arduino/tools/arm-none-eabi-gcc/4.8.3-2014q1/bin/../lib/gcc/arm-none-eabi/4.8.3/../../../../arm-none-eabi/lib/armv7e-m/fpu\libc_s.a(lib_a-reent.o)
                              c:/users/haris/appdata/local/arduino15/packages/arduino/tools/arm-none-eabi-gcc/4.8.3-2014q1/bin/../lib/gcc/arm-none-eabi/4.8.3/../../../../arm-none-eabi/lib/armv7e-m/fpu\libc_s.a(lib_a-sbrkr.o) (errno)
c:/users/haris/appdata/local/arduino15/packages/arduino/tools/arm-none-eabi-gcc/4.8.3-2014q1/bin/../lib/gcc/arm-none-eabi/4.8.3/../../../../arm-none-eabi/lib/armv7e-m/fpu\libnosys.a(sbrk.o)
                              c:/users/haris/appdata/local/arduino15/packages/arduino/tools/arm-none-eabi-gcc/4.8.3-2014q1/bin/../lib/gcc/arm-none-eabi/4.8.3/../../../../arm-none-eabi/lib/armv7e-m/fpu\libc_s.a(lib_a-sbrkr.o) (_sbrk)
c:/users/haris/appdata/local/arduino15/packages/arduino/tools/arm-none-eabi-gcc/4.8.3-2014q1/bin/../lib/gcc/arm-none-eabi/4.8.3/../../../../arm-none-eabi/lib/armv7e-m/fpu\libnosys.a(_exit.o)
                              c:/users/haris/appdata/local/arduino15/packages/arduino/tools/arm-none-eabi-gcc/4.8.3-2014q1/bin/../lib/gcc/arm-none-eabi/4.8.3/../../../../arm-none-eabi/lib/armv7e-m/fpu\libc_s.a(lib_a-exit.o) (_exit)

Allocating common symbols
Common symbol       size              file

errno               0x4               c:/users/haris/appdata/local/arduino15/packages/arduino/tools/arm-none-eabi-gcc/4.8.3-2014q1/bin/../lib/gcc/arm-none-eabi/4.8.3/../../../../arm-none-eabi/lib/armv7e-m/fpu\libc_s.a(lib_a-reent.o)

Discarded input sections

 .text          0x00000000        0x0 c:/users/haris/appdata/local/arduino15/packages/arduino/tools/arm-none-eabi-gcc/4.8.3-2014q1/bin/../lib/gcc/arm-none-eabi/4.8.3/armv7e-m/fpu/crti.o
 .data          0x00000000        0x0 c:/users/haris/appdata/local/arduino15/packages/arduino/tools/arm-none-eabi-gcc/4.8.3-2014q1/bin/../lib/gcc/arm-none-eabi/4.8.3/armv7e-m/fpu/crti.o
 .bss           0x00000000        0x0 c:/users/haris/appdata/local/arduino15/packages/arduino/tools/arm-none-eabi-gcc/4.8.3-2014q1/bin/../lib/gcc/arm-none-eabi/4.8.3/armv7e-m/fpu/crti.o
 .data          0x00000000        0x4 c:/users/haris/appdata/local/arduino15/packages/arduino/tools/arm-none-eabi-gcc/4.8.3-2014q1/bin/../lib/gcc/arm-none-eabi/4.8.3/armv7e-m/fpu/crtbegin.o
 .text          0x00000000       0x74 c:/users/haris/appdata/local/arduino15/packages/arduino/tools/arm-none-eabi-gcc/4.8.3-2014q1/bin/../lib/gcc/arm-none-eabi/4.8.3/../../../../arm-none-eabi/lib/armv7e-m/fpu/crt0.o
 .data          0x00000000        0x0 c:/users/haris/appdata/local/arduino15/packages/arduino/tools/arm-none-eabi-gcc/4.8.3-2014q1/bin/../lib/gcc/arm-none-eabi/4.8.3/../../../../arm-none-eabi/lib/armv7e-m/fpu/crt0.o
 .bss           0x00000000        0x0 c:/users/haris/appdata/local/arduino15/packages/arduino/tools/arm-none-eabi-gcc/4.8.3-2014q1/bin/../lib/gcc/arm-none-eabi/4.8.3/../../../../arm-none-eabi/lib/armv7e-m/fpu/crt0.o
 .ARM.extab     0x00000000        0x0 c:/users/haris/appdata/local/arduino15/packages/arduino/tools/arm-none-eabi-gcc/4.8.3-2014q1/bin/../lib/gcc/arm-none-eabi/4.8.3/../../../../arm-none-eabi/lib/armv7e-m/fpu/crt0.o
 .ARM.exidx     0x00000000        0x8 c:/users/haris/appdata/local/arduino15/packages/arduino/tools/arm-none-eabi-gcc/4.8.3-2014q1/bin/../lib/gcc/arm-none-eabi/4.8.3/../../../../arm-none-eabi/lib/armv7e-m/fpu/crt0.o
 .ARM.attributes
                0x00000000       0x20 c:/users/haris/appdata/local/arduino15/packages/arduino/tools/arm-none-eabi-gcc/4.8.3-2014q1/bin/../lib/gcc/arm-none-eabi/4.8.3/../../../../arm-none-eabi/lib/armv7e-m/fpu/crt0.o
 .group         0x00000000        0x8 C:\Users\Haris\AppData\Local\Temp\VMBuilds\Main_Siemens_Automation_824MSPe\haeger_haeger_samd_haeger_mcu2\Release\Main_Siemens_Automation_824MSPe.cpp.o
 .group         0x00000000        0x8 C:\Users\Haris\AppData\Local\Temp\VMBuilds\Main_Siemens_Automation_824MSPe\haeger_haeger_samd_haeger_mcu2\Release\Main_Siemens_Automation_824MSPe.cpp.o
 .group         0x00000000        0x8 C:\Users\Haris\AppData\Local\Temp\VMBuilds\Main_Siemens_Automation_824MSPe\haeger_haeger_samd_haeger_mcu2\Release\Main_Siemens_Automation_824MSPe.cpp.o
 .group         0x00000000        0x8 C:\Users\Haris\AppData\Local\Temp\VMBuilds\Main_Siemens_Automation_824MSPe\haeger_haeger_samd_haeger_mcu2\Release\Main_Siemens_Automation_824MSPe.cpp.o
 .group         0x00000000        0x8 C:\Users\Haris\AppData\Local\Temp\VMBuilds\Main_Siemens_Automation_824MSPe\haeger_haeger_samd_haeger_mcu2\Release\Main_Siemens_Automation_824MSPe.cpp.o
 .group         0x00000000        0x8 C:\Users\Haris\AppData\Local\Temp\VMBuilds\Main_Siemens_Automation_824MSPe\haeger_haeger_samd_haeger_mcu2\Release\Main_Siemens_Automation_824MSPe.cpp.o
 .group         0x00000000        0x8 C:\Users\Haris\AppData\Local\Temp\VMBuilds\Main_Siemens_Automation_824MSPe\haeger_haeger_samd_haeger_mcu2\Release\Main_Siemens_Automation_824MSPe.cpp.o
Memory Configuration

Name             Origin             Length             Attributes
FLASH            0x00004000         0x0007c000         xr
RAM              0x20000000         0x00030000         xrw
*default*        0x00000000         0xffffffff

Linker script and memory map

LOAD c:/users/haris/appdata/local/arduino15/packages/arduino/tools/arm-none-eabi-gcc/4.8.3-2014q1/bin/../lib/gcc/arm-none-eabi/4.8.3/armv7e-m/fpu/crti.o
LOAD c:/users/haris/appdata/local/arduino15/packages/arduino/tools/arm-none-eabi-gcc/4.8.3-2014q1/bin/../lib/gcc/arm-none-eabi/4.8.3/armv7e-m/fpu/crtbegin.o
LOAD c:/users/haris/appdata/local/arduino15/packages/arduino/tools/arm-none-eabi-gcc/4.8.3-2014q1/bin/../lib/gcc/arm-none-eabi/4.8.3/../../../../arm-none-eabi/lib/armv7e-m/fpu/crt0.o
LOAD C:\Users\Haris\AppData\Local\Temp\VMBuilds\Main_Siemens_Automation_824MSPe\haeger_haeger_samd_haeger_mcu2\Release\Main_Siemens_Automation_824MSPe.cpp.o
LOAD C:\Users\Haris\AppData\Local\Temp\VMBuilds\Main_Siemens_Automation_824MSPe\haeger_haeger_samd_haeger_mcu2\Release\Alarm_Function.cpp.o
LOAD C:\Users\Haris\AppData\Local\Temp\VMBuilds\Main_Siemens_Automation_824MSPe\haeger_haeger_samd_haeger_mcu2\Release\All_At_Position_Function.cpp.o
LOAD C:\Users\Haris\AppData\Local\Temp\VMBuilds\Main_Siemens_Automation_824MSPe\haeger_haeger_samd_haeger_mcu2\Release\Conductive_Mode_Function.cpp.o
LOAD C:\Users\Haris\AppData\Local\Temp\VMBuilds\Main_Siemens_Automation_824MSPe\haeger_haeger_samd_haeger_mcu2\Release\Dwell_Time_Function.cpp.o
LOAD C:\Users\Haris\AppData\Local\Temp\VMBuilds\Main_Siemens_Automation_824MSPe\haeger_haeger_samd_haeger_mcu2\Release\Fastener_Detection_Function.cpp.o
LOAD C:\Users\Haris\AppData\Local\Temp\VMBuilds\Main_Siemens_Automation_824MSPe\haeger_haeger_samd_haeger_mcu2\Release\Fastener_Length_Function.cpp.o
LOAD C:\Users\Haris\AppData\Local\Temp\VMBuilds\Main_Siemens_Automation_824MSPe\haeger_haeger_samd_haeger_mcu2\Release\Feed_Fastener_Function.cpp.o
LOAD C:\Users\Haris\AppData\Local\Temp\VMBuilds\Main_Siemens_Automation_824MSPe\haeger_haeger_samd_haeger_mcu2\Release\Footpedal_Function.cpp.o
LOAD C:\Users\Haris\AppData\Local\Temp\VMBuilds\Main_Siemens_Automation_824MSPe\haeger_haeger_samd_haeger_mcu2\Release\Hydraulic_Cylinder_Function.cpp.o
LOAD C:\Users\Haris\AppData\Local\Temp\VMBuilds\Main_Siemens_Automation_824MSPe\haeger_haeger_samd_haeger_mcu2\Release\Initialization_Function.cpp.o
LOAD C:\Users\Haris\AppData\Local\Temp\VMBuilds\Main_Siemens_Automation_824MSPe\haeger_haeger_samd_haeger_mcu2\Release\Machine_State_Function.cpp.o
LOAD C:\Users\Haris\AppData\Local\Temp\VMBuilds\Main_Siemens_Automation_824MSPe\haeger_haeger_samd_haeger_mcu2\Release\MAS_Blow_Off_Function.cpp.o
LOAD C:\Users\Haris\AppData\Local\Temp\VMBuilds\Main_Siemens_Automation_824MSPe\haeger_haeger_samd_haeger_mcu2\Release\MAS_Function.cpp.o
LOAD C:\Users\Haris\AppData\Local\Temp\VMBuilds\Main_Siemens_Automation_824MSPe\haeger_haeger_samd_haeger_mcu2\Release\MCU_Version_Function.cpp.o
LOAD C:\Users\Haris\AppData\Local\Temp\VMBuilds\Main_Siemens_Automation_824MSPe\haeger_haeger_samd_haeger_mcu2\Release\Modbus_Communication_Function.cpp.o
LOAD C:\Users\Haris\AppData\Local\Temp\VMBuilds\Main_Siemens_Automation_824MSPe\haeger_haeger_samd_haeger_mcu2\Release\Non_Conductive_Mode_Function.cpp.o
LOAD C:\Users\Haris\AppData\Local\Temp\VMBuilds\Main_Siemens_Automation_824MSPe\haeger_haeger_samd_haeger_mcu2\Release\Press_Complete_Function.cpp.o
LOAD C:\Users\Haris\AppData\Local\Temp\VMBuilds\Main_Siemens_Automation_824MSPe\haeger_haeger_samd_haeger_mcu2\Release\Robot_Communication_Function.cpp.o
LOAD C:\Users\Haris\AppData\Local\Temp\VMBuilds\Main_Siemens_Automation_824MSPe\haeger_haeger_samd_haeger_mcu2\Release\Safety_Block_Function.cpp.o
LOAD C:\Users\Haris\AppData\Local\Temp\VMBuilds\Main_Siemens_Automation_824MSPe\haeger_haeger_samd_haeger_mcu2\Release\Safety_Sensor_State_Function.cpp.o
LOAD C:\Users\Haris\AppData\Local\Temp\VMBuilds\Main_Siemens_Automation_824MSPe\haeger_haeger_samd_haeger_mcu2\Release\Setup_Stroke_Fastener_Length_Function.cpp.o
LOAD C:\Users\Haris\AppData\Local\Temp\VMBuilds\Main_Siemens_Automation_824MSPe\haeger_haeger_samd_haeger_mcu2\Release\Setup_Stroke_TPS_Function.cpp.o
LOAD C:\Users\Haris\AppData\Local\Temp\VMBuilds\Main_Siemens_Automation_824MSPe\haeger_haeger_samd_haeger_mcu2\Release\Setup_Stroke_Vacuum_Detection_Function.cpp.o
LOAD C:\Users\Haris\AppData\Local\Temp\VMBuilds\Main_Siemens_Automation_824MSPe\haeger_haeger_samd_haeger_mcu2\Release\Shuttle_Function.cpp.o
LOAD C:\Users\Haris\AppData\Local\Temp\VMBuilds\Main_Siemens_Automation_824MSPe\haeger_haeger_samd_haeger_mcu2\Release\Timer_Function.cpp.o
LOAD C:\Users\Haris\AppData\Local\Temp\VMBuilds\Main_Siemens_Automation_824MSPe\haeger_haeger_samd_haeger_mcu2\Release\Tooling_Protection_Sytem_Function.cpp.o
LOAD C:\Users\Haris\AppData\Local\Temp\VMBuilds\Main_Siemens_Automation_824MSPe\haeger_haeger_samd_haeger_mcu2\Release\Toolingcontact_Function.cpp.o
LOAD C:\Users\Haris\AppData\Local\Temp\VMBuilds\Main_Siemens_Automation_824MSPe\haeger_haeger_samd_haeger_mcu2\Release\Top_Of Stroke_Function.cpp.o
LOAD C:\Users\Haris\AppData\Local\Temp\VMBuilds\Main_Siemens_Automation_824MSPe\haeger_haeger_samd_haeger_mcu2\Release\Up_Travel_Function.cpp.o
LOAD C:\Users\Haris\AppData\Local\Temp\VMBuilds\Main_Siemens_Automation_824MSPe\haeger_haeger_samd_haeger_mcu2\Release\Vacuum_Generator_Function.cpp.o
LOAD C:\Users\Haris\AppData\Local\Temp\VMBuilds\Main_Siemens_Automation_824MSPe\haeger_haeger_samd_haeger_mcu2\Release\ResponsiveAnalogRead\ResponsiveAnalogRead.cpp.o
LOAD C:\Users\Haris\AppData\Local\Temp\VMBuilds\Main_Siemens_Automation_824MSPe\haeger_haeger_samd_haeger_mcu2\Release\Wire\Wire.cpp.o
LOAD C:\Users\Haris\AppData\Local\Temp\VMBCore\visualmicro\ed00c25992609daaa7a7b547b702356d\variant\variant.cpp.o
START GROUP
LOAD C:\Users\Haris\Documents\Arduino\hardware\haeger\samd\variants\haeger_mcu2\libarm_cortexM4lf_math.a
LOAD c:/users/haris/appdata/local/arduino15/packages/arduino/tools/arm-none-eabi-gcc/4.8.3-2014q1/bin/../lib/gcc/arm-none-eabi/4.8.3/../../../../arm-none-eabi/lib/armv7e-m/fpu\libm.a
LOAD C:\Users\Haris\AppData\Local\Temp\VMBuilds\Main_Siemens_Automation_824MSPe\haeger_haeger_samd_haeger_mcu2\Release/core.a
END GROUP
START GROUP
LOAD c:/users/haris/appdata/local/arduino15/packages/arduino/tools/arm-none-eabi-gcc/4.8.3-2014q1/bin/../lib/gcc/arm-none-eabi/4.8.3/armv7e-m/fpu\libgcc.a
LOAD c:/users/haris/appdata/local/arduino15/packages/arduino/tools/arm-none-eabi-gcc/4.8.3-2014q1/bin/../lib/gcc/arm-none-eabi/4.8.3/../../../../arm-none-eabi/lib/armv7e-m/fpu\libc_s.a
END GROUP
START GROUP
LOAD c:/users/haris/appdata/local/arduino15/packages/arduino/tools/arm-none-eabi-gcc/4.8.3-2014q1/bin/../lib/gcc/arm-none-eabi/4.8.3/armv7e-m/fpu\libgcc.a
LOAD c:/users/haris/appdata/local/arduino15/packages/arduino/tools/arm-none-eabi-gcc/4.8.3-2014q1/bin/../lib/gcc/arm-none-eabi/4.8.3/../../../../arm-none-eabi/lib/armv7e-m/fpu\libc_s.a
LOAD c:/users/haris/appdata/local/arduino15/packages/arduino/tools/arm-none-eabi-gcc/4.8.3-2014q1/bin/../lib/gcc/arm-none-eabi/4.8.3/../../../../arm-none-eabi/lib/armv7e-m/fpu\libnosys.a
END GROUP
START GROUP
LOAD c:/users/haris/appdata/local/arduino15/packages/arduino/tools/arm-none-eabi-gcc/4.8.3-2014q1/bin/../lib/gcc/arm-none-eabi/4.8.3/armv7e-m/fpu\libgcc.a
LOAD c:/users/haris/appdata/local/arduino15/packages/arduino/tools/arm-none-eabi-gcc/4.8.3-2014q1/bin/../lib/gcc/arm-none-eabi/4.8.3/../../../../arm-none-eabi/lib/armv7e-m/fpu\libc_s.a
LOAD c:/users/haris/appdata/local/arduino15/packages/arduino/tools/arm-none-eabi-gcc/4.8.3-2014q1/bin/../lib/gcc/arm-none-eabi/4.8.3/../../../../arm-none-eabi/lib/armv7e-m/fpu\libnosys.a
END GROUP
LOAD c:/users/haris/appdata/local/arduino15/packages/arduino/tools/arm-none-eabi-gcc/4.8.3-2014q1/bin/../lib/gcc/arm-none-eabi/4.8.3/armv7e-m/fpu/crtend.o
LOAD c:/users/haris/appdata/local/arduino15/packages/arduino/tools/arm-none-eabi-gcc/4.8.3-2014q1/bin/../lib/gcc/arm-none-eabi/4.8.3/armv7e-m/fpu/crtn.o

.text           0x00004000     0x6334
                0x00004000                __text_start__ = .
 *(.sketch_boot)
                0x00004000                . = ALIGN (0x4000)
 *(.isr_vector)
 .isr_vector    0x00004000      0x264 C:\Users\Haris\AppData\Local\Temp\VMBuilds\Main_Siemens_Automation_824MSPe\haeger_haeger_samd_haeger_mcu2\Release/core.a(cortex_handlers.c.o)
                0x00004000                exception_table
 *(.text*)
 .text          0x00004264       0x54 c:/users/haris/appdata/local/arduino15/packages/arduino/tools/arm-none-eabi-gcc/4.8.3-2014q1/bin/../lib/gcc/arm-none-eabi/4.8.3/armv7e-m/fpu/crtbegin.o
 .text._ZNK10ModbusPort9drainReadEv
                0x000042b8       0x12 C:\Users\Haris\AppData\Local\Temp\VMBuilds\Main_Siemens_Automation_824MSPe\haeger_haeger_samd_haeger_mcu2\Release\Main_Siemens_Automation_824MSPe.cpp.o
                0x000042b8                ModbusPort::drainRead() const
 .text._ZNK10ModbusPort5flushEv
                0x000042ca        0xa C:\Users\Haris\AppData\Local\Temp\VMBuilds\Main_Siemens_Automation_824MSPe\haeger_haeger_samd_haeger_mcu2\Release\Main_Siemens_Automation_824MSPe.cpp.o
                0x000042ca                ModbusPort::flush() const
 .text._ZNK12ModbusSerialI7Serial_E9availableEv
                0x000042d4        0xc C:\Users\Haris\AppData\Local\Temp\VMBuilds\Main_Siemens_Automation_824MSPe\haeger_haeger_samd_haeger_mcu2\Release\Main_Siemens_Automation_824MSPe.cpp.o
                0x000042d4                ModbusSerial<Serial_>::available() const
 .text._ZNK12ModbusSerialI7Serial_E4readEv
                0x000042e0        0xc C:\Users\Haris\AppData\Local\Temp\VMBuilds\Main_Siemens_Automation_824MSPe\haeger_haeger_samd_haeger_mcu2\Release\Main_Siemens_Automation_824MSPe.cpp.o
                0x000042e0                ModbusSerial<Serial_>::read() const
 .text._ZNK12ModbusSerialI7Serial_E5writeEPKhj
                0x000042ec        0xc C:\Users\Haris\AppData\Local\Temp\VMBuilds\Main_Siemens_Automation_824MSPe\haeger_haeger_samd_haeger_mcu2\Release\Main_Siemens_Automation_824MSPe.cpp.o
                0x000042ec                ModbusSerial<Serial_>::write(unsigned char const*, unsigned int) const
 .text._ZNK12ModbusSerialI7Serial_E10drainWriteEv
                0x000042f8        0xc C:\Users\Haris\AppData\Local\Temp\VMBuilds\Main_Siemens_Automation_824MSPe\haeger_haeger_samd_haeger_mcu2\Release\Main_Siemens_Automation_824MSPe.cpp.o
                0x000042f8                ModbusSerial<Serial_>::drainWrite() const
 .text._ZNK12ModbusSerialI7Serial_E5beginEm
                0x00004304        0x6 C:\Users\Haris\AppData\Local\Temp\VMBuilds\Main_Siemens_Automation_824MSPe\haeger_haeger_samd_haeger_mcu2\Release\Main_Siemens_Automation_824MSPe.cpp.o
                0x00004304                ModbusSerial<Serial_>::begin(unsigned long) const
 .text._ZNK12ModbusSerialI7Serial_E5beginEmt
                0x0000430a        0x8 C:\Users\Haris\AppData\Local\Temp\VMBuilds\Main_Siemens_Automation_824MSPe\haeger_haeger_samd_haeger_mcu2\Release\Main_Siemens_Automation_824MSPe.cpp.o
                0x0000430a                ModbusSerial<Serial_>::begin(unsigned long, unsigned short) const
 .text._ZN6Modbus5beginEP10ModbusPortmt
                0x00004312       0x4a C:\Users\Haris\AppData\Local\Temp\VMBuilds\Main_Siemens_Automation_824MSPe\haeger_haeger_samd_haeger_mcu2\Release\Main_Siemens_Automation_824MSPe.cpp.o
                0x00004312                Modbus::begin(ModbusPort*, unsigned long, unsigned short)
 .text._ZN6Modbus5beginEP10ModbusPortm
                0x0000435c        0x8 C:\Users\Haris\AppData\Local\Temp\VMBuilds\Main_Siemens_Automation_824MSPe\haeger_haeger_samd_haeger_mcu2\Release\Main_Siemens_Automation_824MSPe.cpp.o
                0x0000435c                Modbus::begin(ModbusPort*, unsigned long)
 .text._ZN6Modbus11getRxBufferER8ERR_LIST
                0x00004364       0x5c C:\Users\Haris\AppData\Local\Temp\VMBuilds\Main_Siemens_Automation_824MSPe\haeger_haeger_samd_haeger_mcu2\Release\Main_Siemens_Automation_824MSPe.cpp.o
                0x00004364                Modbus::getRxBuffer(ERR_LIST&)
 .text._ZN6Modbus7calcCRCEh
                0x000043c0       0x3c C:\Users\Haris\AppData\Local\Temp\VMBuilds\Main_Siemens_Automation_824MSPe\haeger_haeger_samd_haeger_mcu2\Release\Main_Siemens_Automation_824MSPe.cpp.o
                0x000043c0                Modbus::calcCRC(unsigned char)
 .text._ZN6Modbus12sendTxBufferEv
                0x000043fc       0x90 C:\Users\Haris\AppData\Local\Temp\VMBuilds\Main_Siemens_Automation_824MSPe\haeger_haeger_samd_haeger_mcu2\Release\Main_Siemens_Automation_824MSPe.cpp.o
                0x000043fc                Modbus::sendTxBuffer()
 .text._ZN6Modbus15validateRequestEv
                0x0000448c       0xe0 C:\Users\Haris\AppData\Local\Temp\VMBuilds\Main_Siemens_Automation_824MSPe\haeger_haeger_samd_haeger_mcu2\Release\Main_Siemens_Automation_824MSPe.cpp.o
                0x0000448c                Modbus::validateRequest()
 .text._ZN6Modbus14buildExceptionEh
                0x0000456c       0x14 C:\Users\Haris\AppData\Local\Temp\VMBuilds\Main_Siemens_Automation_824MSPe\haeger_haeger_samd_haeger_mcu2\Release\Main_Siemens_Automation_824MSPe.cpp.o
                0x0000456c                Modbus::buildException(unsigned char)
 .text._ZN6Modbus11process_FC1EPth
                0x00004580       0xa4 C:\Users\Haris\AppData\Local\Temp\VMBuilds\Main_Siemens_Automation_824MSPe\haeger_haeger_samd_haeger_mcu2\Release\Main_Siemens_Automation_824MSPe.cpp.o
                0x00004580                Modbus::process_FC1(unsigned short*, unsigned char)
 .text._ZN6Modbus11process_FC3EPth
                0x00004624       0x6a C:\Users\Haris\AppData\Local\Temp\VMBuilds\Main_Siemens_Automation_824MSPe\haeger_haeger_samd_haeger_mcu2\Release\Main_Siemens_Automation_824MSPe.cpp.o
                0x00004624                Modbus::process_FC3(unsigned short*, unsigned char)
 .text._ZN6Modbus11process_FC5EPth
                0x0000468e       0x42 C:\Users\Haris\AppData\Local\Temp\VMBuilds\Main_Siemens_Automation_824MSPe\haeger_haeger_samd_haeger_mcu2\Release\Main_Siemens_Automation_824MSPe.cpp.o
                0x0000468e                Modbus::process_FC5(unsigned short*, unsigned char)
 .text._ZN6Modbus11process_FC6EPth
                0x000046d0       0x2c C:\Users\Haris\AppData\Local\Temp\VMBuilds\Main_Siemens_Automation_824MSPe\haeger_haeger_samd_haeger_mcu2\Release\Main_Siemens_Automation_824MSPe.cpp.o
                0x000046d0                Modbus::process_FC6(unsigned short*, unsigned char)
 .text._ZN6Modbus12process_FC15EPth
                0x000046fc       0x7a C:\Users\Haris\AppData\Local\Temp\VMBuilds\Main_Siemens_Automation_824MSPe\haeger_haeger_samd_haeger_mcu2\Release\Main_Siemens_Automation_824MSPe.cpp.o
                0x000046fc                Modbus::process_FC15(unsigned short*, unsigned char)
 .text._ZN6Modbus12process_FC16EPth
                0x00004776       0x4a C:\Users\Haris\AppData\Local\Temp\VMBuilds\Main_Siemens_Automation_824MSPe\haeger_haeger_samd_haeger_mcu2\Release\Main_Siemens_Automation_824MSPe.cpp.o
                0x00004776                Modbus::process_FC16(unsigned short*, unsigned char)
 .text._ZN6Modbus4pollEPth
                0x000047c0      0x102 C:\Users\Haris\AppData\Local\Temp\VMBuilds\Main_Siemens_Automation_824MSPe\haeger_haeger_samd_haeger_mcu2\Release\Main_Siemens_Automation_824MSPe.cpp.o
                0x000047c0                Modbus::poll(unsigned short*, unsigned char)
 *fill*         0x000048c2        0x2 
 .text.setup    0x000048c4       0xd0 C:\Users\Haris\AppData\Local\Temp\VMBuilds\Main_Siemens_Automation_824MSPe\haeger_haeger_samd_haeger_mcu2\Release\Main_Siemens_Automation_824MSPe.cpp.o
                0x000048c4                setup
 .text._Z7Io_Pollv
                0x00004994      0x328 C:\Users\Haris\AppData\Local\Temp\VMBuilds\Main_Siemens_Automation_824MSPe\haeger_haeger_samd_haeger_mcu2\Release\Main_Siemens_Automation_824MSPe.cpp.o
                0x00004994                Io_Poll()
 .text.startup._GLOBAL__sub_I_Send_to_MCU1_Standard_Machine_Control_0
                0x00004cbc       0xb0 C:\Users\Haris\AppData\Local\Temp\VMBuilds\Main_Siemens_Automation_824MSPe\haeger_haeger_samd_haeger_mcu2\Release\Main_Siemens_Automation_824MSPe.cpp.o
 .text._Z23Wire_Communication_Sendv
                0x00004d6c      0x12c C:\Users\Haris\AppData\Local\Temp\VMBuilds\Main_Siemens_Automation_824MSPe\haeger_haeger_samd_haeger_mcu2\Release\Main_Siemens_Automation_824MSPe.cpp.o
                0x00004d6c                Wire_Communication_Send()
 .text.loop     0x00004e98      0x144 C:\Users\Haris\AppData\Local\Temp\VMBuilds\Main_Siemens_Automation_824MSPe\haeger_haeger_samd_haeger_mcu2\Release\Main_Siemens_Automation_824MSPe.cpp.o
                0x00004e98                loop
 .text._Z17RequestEvent_Sendv
                0x00004fdc       0x28 C:\Users\Haris\AppData\Local\Temp\VMBuilds\Main_Siemens_Automation_824MSPe\haeger_haeger_samd_haeger_mcu2\Release\Main_Siemens_Automation_824MSPe.cpp.o
                0x00004fdc                RequestEvent_Send()
 .text._Z20RequestEvent_Receivei
                0x00005004       0xa8 C:\Users\Haris\AppData\Local\Temp\VMBuilds\Main_Siemens_Automation_824MSPe\haeger_haeger_samd_haeger_mcu2\Release\Main_Siemens_Automation_824MSPe.cpp.o
                0x00005004                RequestEvent_Receive(int)
 .text._Z14Alarm_Functionv
                0x000050ac        0xc C:\Users\Haris\AppData\Local\Temp\VMBuilds\Main_Siemens_Automation_824MSPe\haeger_haeger_samd_haeger_mcu2\Release\Alarm_Function.cpp.o
                0x000050ac                Alarm_Function()
 .text._Z24All_At_Position_Functionv
                0x000050b8      0x118 C:\Users\Haris\AppData\Local\Temp\VMBuilds\Main_Siemens_Automation_824MSPe\haeger_haeger_samd_haeger_mcu2\Release\All_At_Position_Function.cpp.o
                0x000050b8                All_At_Position_Function()
 .text._Z24Conductive_Mode_Functionv
                0x000051d0      0x13c C:\Users\Haris\AppData\Local\Temp\VMBuilds\Main_Siemens_Automation_824MSPe\haeger_haeger_samd_haeger_mcu2\Release\Conductive_Mode_Function.cpp.o
                0x000051d0                Conductive_Mode_Function()
 .text._Z19Dwell_Time_Functionv
                0x0000530c       0x78 C:\Users\Haris\AppData\Local\Temp\VMBuilds\Main_Siemens_Automation_824MSPe\haeger_haeger_samd_haeger_mcu2\Release\Dwell_Time_Function.cpp.o
                0x0000530c                Dwell_Time_Function()
 .text._Z27Fastener_Detection_Functionv
                0x00005384      0x1f0 C:\Users\Haris\AppData\Local\Temp\VMBuilds\Main_Siemens_Automation_824MSPe\haeger_haeger_samd_haeger_mcu2\Release\Fastener_Detection_Function.cpp.o
                0x00005384                Fastener_Detection_Function()
 .text._Z24Fastener_Length_Functionv
                0x00005574      0x1b0 C:\Users\Haris\AppData\Local\Temp\VMBuilds\Main_Siemens_Automation_824MSPe\haeger_haeger_samd_haeger_mcu2\Release\Fastener_Length_Function.cpp.o
                0x00005574                Fastener_Length_Function()
 .text._Z22Feed_Fastener_Functionv
                0x00005724       0xa8 C:\Users\Haris\AppData\Local\Temp\VMBuilds\Main_Siemens_Automation_824MSPe\haeger_haeger_samd_haeger_mcu2\Release\Feed_Fastener_Function.cpp.o
                0x00005724                Feed_Fastener_Function()
 .text._Z18Footpedal_Functionv
                0x000057cc      0x158 C:\Users\Haris\AppData\Local\Temp\VMBuilds\Main_Siemens_Automation_824MSPe\haeger_haeger_samd_haeger_mcu2\Release\Footpedal_Function.cpp.o
                0x000057cc                Footpedal_Function()
 .text._Z27Hydraulic_Cylinder_Functionv
                0x00005924      0x234 C:\Users\Haris\AppData\Local\Temp\VMBuilds\Main_Siemens_Automation_824MSPe\haeger_haeger_samd_haeger_mcu2\Release\Hydraulic_Cylinder_Function.cpp.o
                0x00005924                Hydraulic_Cylinder_Function()
 .text._Z23Initialization_Functionv
                0x00005b58       0x20 C:\Users\Haris\AppData\Local\Temp\VMBuilds\Main_Siemens_Automation_824MSPe\haeger_haeger_samd_haeger_mcu2\Release\Initialization_Function.cpp.o
                0x00005b58                Initialization_Function()
 .text._Z22Machine_State_Functionv
                0x00005b78       0xac C:\Users\Haris\AppData\Local\Temp\VMBuilds\Main_Siemens_Automation_824MSPe\haeger_haeger_samd_haeger_mcu2\Release\Machine_State_Function.cpp.o
                0x00005b78                Machine_State_Function()
 .text._Z21MAS_Blow_Off_Functionv
                0x00005c24       0x88 C:\Users\Haris\AppData\Local\Temp\VMBuilds\Main_Siemens_Automation_824MSPe\haeger_haeger_samd_haeger_mcu2\Release\MAS_Blow_Off_Function.cpp.o
                0x00005c24                MAS_Blow_Off_Function()
 .text._Z12MAS_Functionv
                0x00005cac       0xa8 C:\Users\Haris\AppData\Local\Temp\VMBuilds\Main_Siemens_Automation_824MSPe\haeger_haeger_samd_haeger_mcu2\Release\MAS_Function.cpp.o
                0x00005cac                MAS_Function()
 .text._Z20MCU_Version_Functionv
                0x00005d54        0xc C:\Users\Haris\AppData\Local\Temp\VMBuilds\Main_Siemens_Automation_824MSPe\haeger_haeger_samd_haeger_mcu2\Release\MCU_Version_Function.cpp.o
                0x00005d54                MCU_Version_Function()
 .text._Z29Modbus_Communication_Functionv
                0x00005d60       0x90 C:\Users\Haris\AppData\Local\Temp\VMBuilds\Main_Siemens_Automation_824MSPe\haeger_haeger_samd_haeger_mcu2\Release\Modbus_Communication_Function.cpp.o
                0x00005d60                Modbus_Communication_Function()
 .text._Z28Non_Conductive_Mode_Functionv
                0x00005df0       0x84 C:\Users\Haris\AppData\Local\Temp\VMBuilds\Main_Siemens_Automation_824MSPe\haeger_haeger_samd_haeger_mcu2\Release\Non_Conductive_Mode_Function.cpp.o
                0x00005df0                Non_Conductive_Mode_Function()
 .text._Z23Press_Complete_Functionv
                0x00005e74       0xa8 C:\Users\Haris\AppData\Local\Temp\VMBuilds\Main_Siemens_Automation_824MSPe\haeger_haeger_samd_haeger_mcu2\Release\Press_Complete_Function.cpp.o
                0x00005e74                Press_Complete_Function()
 .text._Z28Robot_Communication_Functionv
                0x00005f1c       0xfc C:\Users\Haris\AppData\Local\Temp\VMBuilds\Main_Siemens_Automation_824MSPe\haeger_haeger_samd_haeger_mcu2\Release\Robot_Communication_Function.cpp.o
                0x00005f1c                Robot_Communication_Function()
 .text._Z21Safety_Block_Functionv
                0x00006018       0x28 C:\Users\Haris\AppData\Local\Temp\VMBuilds\Main_Siemens_Automation_824MSPe\haeger_haeger_samd_haeger_mcu2\Release\Safety_Block_Function.cpp.o
                0x00006018                Safety_Block_Function()
 .text._Z28Safety_Sensor_State_Functionv
                0x00006040       0xe4 C:\Users\Haris\AppData\Local\Temp\VMBuilds\Main_Siemens_Automation_824MSPe\haeger_haeger_samd_haeger_mcu2\Release\Safety_Sensor_State_Function.cpp.o
                0x00006040                Safety_Sensor_State_Function()
 .text._Z37Setup_Stroke_Fastener_Length_Functionv
                0x00006124       0x78 C:\Users\Haris\AppData\Local\Temp\VMBuilds\Main_Siemens_Automation_824MSPe\haeger_haeger_samd_haeger_mcu2\Release\Setup_Stroke_Fastener_Length_Function.cpp.o
                0x00006124                Setup_Stroke_Fastener_Length_Function()
 .text._Z25Setup_Stroke_TPS_Functionv
                0x0000619c       0xec C:\Users\Haris\AppData\Local\Temp\VMBuilds\Main_Siemens_Automation_824MSPe\haeger_haeger_samd_haeger_mcu2\Release\Setup_Stroke_TPS_Function.cpp.o
                0x0000619c                Setup_Stroke_TPS_Function()
 .text._Z38Setup_Stroke_Vacuum_Detection_Functionv
                0x00006288      0x1cc C:\Users\Haris\AppData\Local\Temp\VMBuilds\Main_Siemens_Automation_824MSPe\haeger_haeger_samd_haeger_mcu2\Release\Setup_Stroke_Vacuum_Detection_Function.cpp.o
                0x00006288                Setup_Stroke_Vacuum_Detection_Function()
 .text._Z16Shuttle_Functionv
                0x00006454      0x2a0 C:\Users\Haris\AppData\Local\Temp\VMBuilds\Main_Siemens_Automation_824MSPe\haeger_haeger_samd_haeger_mcu2\Release\Shuttle_Function.cpp.o
                0x00006454                Shuttle_Function()
 .text._Z14Timer_Functionv
                0x000066f4       0x54 C:\Users\Haris\AppData\Local\Temp\VMBuilds\Main_Siemens_Automation_824MSPe\haeger_haeger_samd_haeger_mcu2\Release\Timer_Function.cpp.o
                0x000066f4                Timer_Function()
 .text._Z34Tooling_Protection_System_Functionv
                0x00006748      0x184 C:\Users\Haris\AppData\Local\Temp\VMBuilds\Main_Siemens_Automation_824MSPe\haeger_haeger_samd_haeger_mcu2\Release\Tooling_Protection_Sytem_Function.cpp.o
                0x00006748                Tooling_Protection_System_Function()
 .text._Z23Toolingcontact_Functionv
                0x000068cc       0x1c C:\Users\Haris\AppData\Local\Temp\VMBuilds\Main_Siemens_Automation_824MSPe\haeger_haeger_samd_haeger_mcu2\Release\Toolingcontact_Function.cpp.o
                0x000068cc                Toolingcontact_Function()
 .text._Z12TOS_Functionv
                0x000068e8       0x14 C:\Users\Haris\AppData\Local\Temp\VMBuilds\Main_Siemens_Automation_824MSPe\haeger_haeger_samd_haeger_mcu2\Release\Top_Of Stroke_Function.cpp.o
                0x000068e8                TOS_Function()
 .text._Z18Up_Travel_Functionv
                0x000068fc       0x74 C:\Users\Haris\AppData\Local\Temp\VMBuilds\Main_Siemens_Automation_824MSPe\haeger_haeger_samd_haeger_mcu2\Release\Up_Travel_Function.cpp.o
                0x000068fc                Up_Travel_Function()
 .text._Z25Vacuum_Generator_Functionv
                0x00006970       0x7c C:\Users\Haris\AppData\Local\Temp\VMBuilds\Main_Siemens_Automation_824MSPe\haeger_haeger_samd_haeger_mcu2\Release\Vacuum_Generator_Function.cpp.o
                0x00006970                Vacuum_Generator_Function()
 .text._ZN20ResponsiveAnalogRead9snapCurveEf
                0x000069ec       0x5c C:\Users\Haris\AppData\Local\Temp\VMBuilds\Main_Siemens_Automation_824MSPe\haeger_haeger_samd_haeger_mcu2\Release\ResponsiveAnalogRead\ResponsiveAnalogRead.cpp.o
                0x000069ec                ResponsiveAnalogRead::snapCurve(float)
 .text._ZN20ResponsiveAnalogRead18getResponsiveValueEi
                0x00006a48      0x148 C:\Users\Haris\AppData\Local\Temp\VMBuilds\Main_Siemens_Automation_824MSPe\haeger_haeger_samd_haeger_mcu2\Release\ResponsiveAnalogRead\ResponsiveAnalogRead.cpp.o
                0x00006a48                ResponsiveAnalogRead::getResponsiveValue(int)
 .text._ZN20ResponsiveAnalogRead6updateEi
                0x00006b90       0x1c C:\Users\Haris\AppData\Local\Temp\VMBuilds\Main_Siemens_Automation_824MSPe\haeger_haeger_samd_haeger_mcu2\Release\ResponsiveAnalogRead\ResponsiveAnalogRead.cpp.o
                0x00006b90                ResponsiveAnalogRead::update(int)
 .text._ZN20ResponsiveAnalogRead6updateEv
                0x00006bac       0x18 C:\Users\Haris\AppData\Local\Temp\VMBuilds\Main_Siemens_Automation_824MSPe\haeger_haeger_samd_haeger_mcu2\Release\ResponsiveAnalogRead\ResponsiveAnalogRead.cpp.o
                0x00006bac                ResponsiveAnalogRead::update()
 .text._ZN20ResponsiveAnalogRead17setSnapMultiplierEf
                0x00006bc4       0x30 C:\Users\Haris\AppData\Local\Temp\VMBuilds\Main_Siemens_Automation_824MSPe\haeger_haeger_samd_haeger_mcu2\Release\ResponsiveAnalogRead\ResponsiveAnalogRead.cpp.o
                0x00006bc4                ResponsiveAnalogRead::setSnapMultiplier(float)
 .text._ZN20ResponsiveAnalogRead5beginEibf
                0x00006bf4       0x36 C:\Users\Haris\AppData\Local\Temp\VMBuilds\Main_Siemens_Automation_824MSPe\haeger_haeger_samd_haeger_mcu2\Release\ResponsiveAnalogRead\ResponsiveAnalogRead.cpp.o
                0x00006bf4                ResponsiveAnalogRead::begin(int, bool, float)
 .text._ZN7TwoWire5writeEPKhj
                0x00006c2a       0x22 C:\Users\Haris\AppData\Local\Temp\VMBuilds\Main_Siemens_Automation_824MSPe\haeger_haeger_samd_haeger_mcu2\Release\Wire\Wire.cpp.o
                0x00006c2a                TwoWire::write(unsigned char const*, unsigned int)
 .text._ZN7TwoWire5flushEv
                0x00006c4c        0x2 C:\Users\Haris\AppData\Local\Temp\VMBuilds\Main_Siemens_Automation_824MSPe\haeger_haeger_samd_haeger_mcu2\Release\Wire\Wire.cpp.o
                0x00006c4c                TwoWire::flush()
 .text._ZN7TwoWire4readEv
                0x00006c4e        0x6 C:\Users\Haris\AppData\Local\Temp\VMBuilds\Main_Siemens_Automation_824MSPe\haeger_haeger_samd_haeger_mcu2\Release\Wire\Wire.cpp.o
                0x00006c4e                TwoWire::read()
 .text._ZN7TwoWire9availableEv
                0x00006c54        0x6 C:\Users\Haris\AppData\Local\Temp\VMBuilds\Main_Siemens_Automation_824MSPe\haeger_haeger_samd_haeger_mcu2\Release\Wire\Wire.cpp.o
                0x00006c54                TwoWire::available()
 .text._ZN7TwoWire5writeEh
                0x00006c5a       0x24 C:\Users\Haris\AppData\Local\Temp\VMBuilds\Main_Siemens_Automation_824MSPe\haeger_haeger_samd_haeger_mcu2\Release\Wire\Wire.cpp.o
                0x00006c5a                TwoWire::write(unsigned char)
 .text._ZN7TwoWire4peekEv
                0x00006c7e        0x6 C:\Users\Haris\AppData\Local\Temp\VMBuilds\Main_Siemens_Automation_824MSPe\haeger_haeger_samd_haeger_mcu2\Release\Wire\Wire.cpp.o
                0x00006c7e                TwoWire::peek()
 .text._ZN7TwoWireC2EP6SERCOMhh
                0x00006c84       0x3c C:\Users\Haris\AppData\Local\Temp\VMBuilds\Main_Siemens_Automation_824MSPe\haeger_haeger_samd_haeger_mcu2\Release\Wire\Wire.cpp.o
                0x00006c84                TwoWire::TwoWire(SERCOM*, unsigned char, unsigned char)
                0x00006c84                TwoWire::TwoWire(SERCOM*, unsigned char, unsigned char)
 .text._ZN7TwoWire5beginEh
                0x00006cc0       0x38 C:\Users\Haris\AppData\Local\Temp\VMBuilds\Main_Siemens_Automation_824MSPe\haeger_haeger_samd_haeger_mcu2\Release\Wire\Wire.cpp.o
                0x00006cc0                TwoWire::begin(unsigned char)
 .text._ZN7TwoWire9onReceiveEPFviE
                0x00006cf8        0x6 C:\Users\Haris\AppData\Local\Temp\VMBuilds\Main_Siemens_Automation_824MSPe\haeger_haeger_samd_haeger_mcu2\Release\Wire\Wire.cpp.o
                0x00006cf8                TwoWire::onReceive(void (*)(int))
 .text._ZN7TwoWire9onRequestEPFvvE
                0x00006cfe        0x6 C:\Users\Haris\AppData\Local\Temp\VMBuilds\Main_Siemens_Automation_824MSPe\haeger_haeger_samd_haeger_mcu2\Release\Wire\Wire.cpp.o
                0x00006cfe                TwoWire::onRequest(void (*)())
 .text._ZN7TwoWire9onServiceEv
                0x00006d04       0xf8 C:\Users\Haris\AppData\Local\Temp\VMBuilds\Main_Siemens_Automation_824MSPe\haeger_haeger_samd_haeger_mcu2\Release\Wire\Wire.cpp.o
                0x00006d04                TwoWire::onService()
 .text.SERCOM3_0_Handler
                0x00006dfc        0xc C:\Users\Haris\AppData\Local\Temp\VMBuilds\Main_Siemens_Automation_824MSPe\haeger_haeger_samd_haeger_mcu2\Release\Wire\Wire.cpp.o
                0x00006dfc                SERCOM3_0_Handler
 .text.SERCOM3_1_Handler
                0x00006e08        0xc C:\Users\Haris\AppData\Local\Temp\VMBuilds\Main_Siemens_Automation_824MSPe\haeger_haeger_samd_haeger_mcu2\Release\Wire\Wire.cpp.o
                0x00006e08                SERCOM3_1_Handler
 .text.SERCOM3_2_Handler
                0x00006e14        0xc C:\Users\Haris\AppData\Local\Temp\VMBuilds\Main_Siemens_Automation_824MSPe\haeger_haeger_samd_haeger_mcu2\Release\Wire\Wire.cpp.o
                0x00006e14                SERCOM3_2_Handler
 .text.SERCOM3_3_Handler
                0x00006e20        0xc C:\Users\Haris\AppData\Local\Temp\VMBuilds\Main_Siemens_Automation_824MSPe\haeger_haeger_samd_haeger_mcu2\Release\Wire\Wire.cpp.o
                0x00006e20                SERCOM3_3_Handler
 .text.startup._GLOBAL__sub_I__ZN7TwoWireC2EP6SERCOMhh
                0x00006e2c       0x14 C:\Users\Haris\AppData\Local\Temp\VMBuilds\Main_Siemens_Automation_824MSPe\haeger_haeger_samd_haeger_mcu2\Release\Wire\Wire.cpp.o
 .text.SERCOM5_0_Handler
                0x00006e40        0xc C:\Users\Haris\AppData\Local\Temp\VMBCore\visualmicro\ed00c25992609daaa7a7b547b702356d\variant\variant.cpp.o
                0x00006e40                SERCOM5_0_Handler
 .text.SERCOM5_1_Handler
                0x00006e4c        0xc C:\Users\Haris\AppData\Local\Temp\VMBCore\visualmicro\ed00c25992609daaa7a7b547b702356d\variant\variant.cpp.o
                0x00006e4c                SERCOM5_1_Handler
 .text.SERCOM5_2_Handler
                0x00006e58        0xc C:\Users\Haris\AppData\Local\Temp\VMBCore\visualmicro\ed00c25992609daaa7a7b547b702356d\variant\variant.cpp.o
                0x00006e58                SERCOM5_2_Handler
 .text.SERCOM5_3_Handler
                0x00006e64        0xc C:\Users\Haris\AppData\Local\Temp\VMBCore\visualmicro\ed00c25992609daaa7a7b547b702356d\variant\variant.cpp.o
                0x00006e64                SERCOM5_3_Handler
 .text.startup._GLOBAL__sub_I_g_APinDescription
                0x00006e70       0x80 C:\Users\Haris\AppData\Local\Temp\VMBCore\visualmicro\ed00c25992609daaa7a7b547b702356d\variant\variant.cpp.o
 .text.Dummy_Handler
                0x00006ef0        0x2 C:\Users\Haris\AppData\Local\Temp\VMBuilds\Main_Siemens_Automation_824MSPe\haeger_haeger_samd_haeger_mcu2\Release/core.a(cortex_handlers.c.o)
                0x00006ef0                EIC_5_Handler
                0x00006ef0                SERCOM0_2_Handler
                0x00006ef0                DebugMon_Handler
                0x00006ef0                EIC_13_Handler
                0x00006ef0                EVSYS_0_Handler
                0x00006ef0                TCC1_3_Handler
                0x00006ef0                DAC_3_Handler
                0x00006ef0                TRNG_Handler
                0x00006ef0                HardFault_Handler
                0x00006ef0                PDEC_2_Handler
                0x00006ef0                EIC_4_Handler
                0x00006ef0                AC_Handler
                0x00006ef0                TCC2_3_Handler
                0x00006ef0                PendSV_Handler
                0x00006ef0                NMI_Handler
                0x00006ef0                TC7_Handler
                0x00006ef0                ADC1_1_Handler
                0x00006ef0                EVSYS_3_Handler
                0x00006ef0                PDEC_0_Handler
                0x00006ef0                QSPI_Handler
                0x00006ef0                TCC0_0_Handler
                0x00006ef0                EIC_3_Handler
                0x00006ef0                TAL_0_Handler
                0x00006ef0                DAC_2_Handler
                0x00006ef0                SERCOM0_0_Handler
                0x00006ef0                RTC_Handler
                0x00006ef0                UsageFault_Handler
                0x00006ef0                SERCOM4_0_Handler
                0x00006ef0                EIC_10_Handler
                0x00006ef0                SERCOM0_3_Handler
                0x00006ef0                EIC_11_Handler
                0x00006ef0                EIC_9_Handler
                0x00006ef0                OSC32KCTRL_Handler
                0x00006ef0                TCC2_1_Handler
                0x00006ef0                SUPC_1_Handler
                0x00006ef0                TCC0_5_Handler
                0x00006ef0                TCC0_6_Handler
                0x00006ef0                SERCOM6_2_Handler
                0x00006ef0                EVSYS_1_Handler
                0x00006ef0                TCC1_4_Handler
                0x00006ef0                TC6_Handler
                0x00006ef0                DMAC_0_Handler
                0x00006ef0                WDT_Handler
                0x00006ef0                EIC_8_Handler
                0x00006ef0                EIC_15_Handler
                0x00006ef0                SERCOM6_0_Handler
                0x00006ef0                TC4_Handler
                0x00006ef0                TC1_Handler
                0x00006ef0                OSCCTRL_4_Handler
                0x00006ef0                SERCOM4_3_Handler
                0x00006ef0                EIC_12_Handler
                0x00006ef0                DMAC_4_Handler
                0x00006ef0                TCC4_2_Handler
                0x00006ef0                PAC_Handler
                0x00006ef0                TCC1_0_Handler
                0x00006ef0                OSCCTRL_0_Handler
                0x00006ef0                EIC_0_Handler
                0x00006ef0                OSCCTRL_3_Handler
                0x00006ef0                SERCOM4_1_Handler
                0x00006ef0                TC3_Handler
                0x00006ef0                Dummy_Handler
                0x00006ef0                TCC3_0_Handler
                0x00006ef0                TCC2_2_Handler
                0x00006ef0                TCC1_1_Handler
                0x00006ef0                DMAC_2_Handler
                0x00006ef0                ADC0_0_Handler
                0x00006ef0                SERCOM0_1_Handler
                0x00006ef0                OSCCTRL_2_Handler
                0x00006ef0                ADC1_0_Handler
                0x00006ef0                TCC1_2_Handler
                0x00006ef0                SERCOM7_1_Handler
                0x00006ef0                PM_Handler
                0x00006ef0                SERCOM6_3_Handler
                0x00006ef0                SERCOM2_3_Handler
                0x00006ef0                DAC_4_Handler
                0x00006ef0                TCC3_2_Handler
                0x00006ef0                SERCOM7_0_Handler
                0x00006ef0                TCC0_2_Handler
                0x00006ef0                DMAC_1_Handler
                0x00006ef0                TCC4_0_Handler
                0x00006ef0                SERCOM7_3_Handler
                0x00006ef0                SDHC1_Handler
                0x00006ef0                SERCOM7_2_Handler
                0x00006ef0                TCC2_0_Handler
                0x00006ef0                PDEC_1_Handler
                0x00006ef0                MemManage_Handler
                0x00006ef0                TCC4_1_Handler
                0x00006ef0                SVC_Handler
                0x00006ef0                SERCOM6_1_Handler
                0x00006ef0                SDHC0_Handler
                0x00006ef0                SERCOM1_1_Handler
                0x00006ef0                I2S_Handler
                0x00006ef0                EIC_2_Handler
                0x00006ef0                PCC_Handler
                0x00006ef0                DAC_0_Handler
                0x00006ef0                TCC0_1_Handler
                0x00006ef0                SERCOM1_3_Handler
                0x00006ef0                EIC_6_Handler
                0x00006ef0                OSCCTRL_1_Handler
                0x00006ef0                SERCOM1_0_Handler
                0x00006ef0                PUKCC_Handler
                0x00006ef0                SERCOM2_1_Handler
                0x00006ef0                SERCOM1_2_Handler
                0x00006ef0                EIC_1_Handler
                0x00006ef0                SERCOM4_2_Handler
                0x00006ef0                EVSYS_4_Handler
                0x00006ef0                EIC_7_Handler
                0x00006ef0                NVMCTRL_1_Handler
                0x00006ef0                ADC0_1_Handler
                0x00006ef0                SERCOM2_2_Handler
                0x00006ef0                TCC3_1_Handler
                0x00006ef0                EIC_14_Handler
                0x00006ef0                DAC_1_Handler
                0x00006ef0                NVMCTRL_0_Handler
                0x00006ef0                TAL_1_Handler
                0x00006ef0                MCLK_Handler
                0x00006ef0                EVSYS_2_Handler
                0x00006ef0                SUPC_0_Handler
                0x00006ef0                BusFault_Handler
                0x00006ef0                FREQM_Handler
                0x00006ef0                TC0_Handler
                0x00006ef0                TCC0_3_Handler
                0x00006ef0                DMAC_3_Handler
                0x00006ef0                TCC0_4_Handler
                0x00006ef0                RAMECC_Handler
                0x00006ef0                TC5_Handler
                0x00006ef0                SERCOM2_0_Handler
                0x00006ef0                ICM_Handler
                0x00006ef0                AES_Handler
 *fill*         0x00006ef2        0x2 
 .text.USB_0_Handler
                0x00006ef4       0x10 C:\Users\Haris\AppData\Local\Temp\VMBuilds\Main_Siemens_Automation_824MSPe\haeger_haeger_samd_haeger_mcu2\Release/core.a(cortex_handlers.c.o)
                0x00006ef4                USB_0_Handler
 .text.USB_1_Handler
                0x00006f04       0x10 C:\Users\Haris\AppData\Local\Temp\VMBuilds\Main_Siemens_Automation_824MSPe\haeger_haeger_samd_haeger_mcu2\Release/core.a(cortex_handlers.c.o)
                0x00006f04                USB_1_Handler
 .text.USB_2_Handler
                0x00006f14       0x10 C:\Users\Haris\AppData\Local\Temp\VMBuilds\Main_Siemens_Automation_824MSPe\haeger_haeger_samd_haeger_mcu2\Release/core.a(cortex_handlers.c.o)
                0x00006f14                USB_2_Handler
 .text.USB_3_Handler
                0x00006f24       0x10 C:\Users\Haris\AppData\Local\Temp\VMBuilds\Main_Siemens_Automation_824MSPe\haeger_haeger_samd_haeger_mcu2\Release/core.a(cortex_handlers.c.o)
                0x00006f24                USB_3_Handler
 .text.Reset_Handler
                0x00006f34       0x74 C:\Users\Haris\AppData\Local\Temp\VMBuilds\Main_Siemens_Automation_824MSPe\haeger_haeger_samd_haeger_mcu2\Release/core.a(cortex_handlers.c.o)
                0x00006f34                Reset_Handler
 .text.SysTick_Handler
                0x00006fa8       0x12 C:\Users\Haris\AppData\Local\Temp\VMBuilds\Main_Siemens_Automation_824MSPe\haeger_haeger_samd_haeger_mcu2\Release/core.a(cortex_handlers.c.o)
                0x00006fa8                SysTick_Handler
 *fill*         0x00006fba        0x2 
 .text.USB_SetHandler
                0x00006fbc        0xc C:\Users\Haris\AppData\Local\Temp\VMBuilds\Main_Siemens_Automation_824MSPe\haeger_haeger_samd_haeger_mcu2\Release/core.a(cortex_handlers.c.o)
                0x00006fbc                USB_SetHandler
 .text.millis   0x00006fc8        0xc C:\Users\Haris\AppData\Local\Temp\VMBuilds\Main_Siemens_Automation_824MSPe\haeger_haeger_samd_haeger_mcu2\Release/core.a(delay.c.o)
                0x00006fc8                millis
 .text.delay    0x00006fd4       0x20 C:\Users\Haris\AppData\Local\Temp\VMBuilds\Main_Siemens_Automation_824MSPe\haeger_haeger_samd_haeger_mcu2\Release/core.a(delay.c.o)
                0x00006fd4                delay
 .text.SysTick_DefaultHandler
                0x00006ff4       0x10 C:\Users\Haris\AppData\Local\Temp\VMBuilds\Main_Siemens_Automation_824MSPe\haeger_haeger_samd_haeger_mcu2\Release/core.a(delay.c.o)
                0x00006ff4                SysTick_DefaultHandler
 .text.__empty  0x00007004        0x2 C:\Users\Haris\AppData\Local\Temp\VMBuilds\Main_Siemens_Automation_824MSPe\haeger_haeger_samd_haeger_mcu2\Release/core.a(hooks.c.o)
                0x00007004                yield
 .text.__false  0x00007006        0x4 C:\Users\Haris\AppData\Local\Temp\VMBuilds\Main_Siemens_Automation_824MSPe\haeger_haeger_samd_haeger_mcu2\Release/core.a(hooks.c.o)
                0x00007006                sysTickHook
 *fill*         0x0000700a        0x2 
 .text.SystemInit
                0x0000700c      0x174 C:\Users\Haris\AppData\Local\Temp\VMBuilds\Main_Siemens_Automation_824MSPe\haeger_haeger_samd_haeger_mcu2\Release/core.a(startup.c.o)
                0x0000700c                SystemInit
 .text.analogReadResolution
                0x00007180       0x48 C:\Users\Haris\AppData\Local\Temp\VMBuilds\Main_Siemens_Automation_824MSPe\haeger_haeger_samd_haeger_mcu2\Release/core.a(wiring_analog.c.o)
                0x00007180                analogReadResolution
 .text.analogWriteResolution
                0x000071c8        0xc C:\Users\Haris\AppData\Local\Temp\VMBuilds\Main_Siemens_Automation_824MSPe\haeger_haeger_samd_haeger_mcu2\Release/core.a(wiring_analog.c.o)
                0x000071c8                analogWriteResolution
 .text.analogReference
                0x000071d4       0x34 C:\Users\Haris\AppData\Local\Temp\VMBuilds\Main_Siemens_Automation_824MSPe\haeger_haeger_samd_haeger_mcu2\Release/core.a(wiring_analog.c.o)
                0x000071d4                analogReference
 .text.analogRead
                0x00007208      0x12c C:\Users\Haris\AppData\Local\Temp\VMBuilds\Main_Siemens_Automation_824MSPe\haeger_haeger_samd_haeger_mcu2\Release/core.a(wiring_analog.c.o)
                0x00007208                analogRead
 .text.analogWrite
                0x00007334      0x2d8 C:\Users\Haris\AppData\Local\Temp\VMBuilds\Main_Siemens_Automation_824MSPe\haeger_haeger_samd_haeger_mcu2\Release/core.a(wiring_analog.c.o)
                0x00007334                analogWrite
 .text.pinMode  0x0000760c       0xb8 C:\Users\Haris\AppData\Local\Temp\VMBuilds\Main_Siemens_Automation_824MSPe\haeger_haeger_samd_haeger_mcu2\Release/core.a(wiring_digital.c.o)
                0x0000760c                pinMode
 .text.digitalWrite
                0x000076c4       0x5c C:\Users\Haris\AppData\Local\Temp\VMBuilds\Main_Siemens_Automation_824MSPe\haeger_haeger_samd_haeger_mcu2\Release/core.a(wiring_digital.c.o)
                0x000076c4                digitalWrite
 .text.digitalRead
                0x00007720       0x30 C:\Users\Haris\AppData\Local\Temp\VMBuilds\Main_Siemens_Automation_824MSPe\haeger_haeger_samd_haeger_mcu2\Release/core.a(wiring_digital.c.o)
                0x00007720                digitalRead
 .text.pinPeripheral
                0x00007750       0xac C:\Users\Haris\AppData\Local\Temp\VMBuilds\Main_Siemens_Automation_824MSPe\haeger_haeger_samd_haeger_mcu2\Release/core.a(wiring_private.c.o)
                0x00007750                pinPeripheral
 .text._Z11initVariantv
                0x000077fc        0x2 C:\Users\Haris\AppData\Local\Temp\VMBuilds\Main_Siemens_Automation_824MSPe\haeger_haeger_samd_haeger_mcu2\Release/core.a(main.cpp.o)
                0x000077fc                initVariant()
 *fill*         0x000077fe        0x2 
 .text.startup.main
                0x00007800       0x3c C:\Users\Haris\AppData\Local\Temp\VMBuilds\Main_Siemens_Automation_824MSPe\haeger_haeger_samd_haeger_mcu2\Release/core.a(main.cpp.o)
                0x00007800                main
 .text._ZN5Print5writeEPKhj
                0x0000783c       0x22 C:\Users\Haris\AppData\Local\Temp\VMBuilds\Main_Siemens_Automation_824MSPe\haeger_haeger_samd_haeger_mcu2\Release/core.a(Print.cpp.o)
                0x0000783c                Print::write(unsigned char const*, unsigned int)
 *fill*         0x0000785e        0x2 
 .text.initiateReset
                0x00007860        0xc C:\Users\Haris\AppData\Local\Temp\VMBuilds\Main_Siemens_Automation_824MSPe\haeger_haeger_samd_haeger_mcu2\Release/core.a(Reset.cpp.o)
                0x00007860                initiateReset
 .text.cancelReset
                0x0000786c       0x10 C:\Users\Haris\AppData\Local\Temp\VMBuilds\Main_Siemens_Automation_824MSPe\haeger_haeger_samd_haeger_mcu2\Release/core.a(Reset.cpp.o)
                0x0000786c                cancelReset
 .text.tickReset
                0x0000787c       0x48 C:\Users\Haris\AppData\Local\Temp\VMBuilds\Main_Siemens_Automation_824MSPe\haeger_haeger_samd_haeger_mcu2\Release/core.a(Reset.cpp.o)
                0x0000787c                tickReset
 .text._ZN10RingBufferC2Ev
                0x000078c4       0x1a C:\Users\Haris\AppData\Local\Temp\VMBuilds\Main_Siemens_Automation_824MSPe\haeger_haeger_samd_haeger_mcu2\Release/core.a(RingBuffer.cpp.o)
                0x000078c4                RingBuffer::RingBuffer()
                0x000078c4                RingBuffer::RingBuffer()
 .text._ZN10RingBuffer10store_charEh
                0x000078de       0x22 C:\Users\Haris\AppData\Local\Temp\VMBuilds\Main_Siemens_Automation_824MSPe\haeger_haeger_samd_haeger_mcu2\Release/core.a(RingBuffer.cpp.o)
                0x000078de                RingBuffer::store_char(unsigned char)
 .text._ZN10RingBuffer5clearEv
                0x00007900        0xc C:\Users\Haris\AppData\Local\Temp\VMBuilds\Main_Siemens_Automation_824MSPe\haeger_haeger_samd_haeger_mcu2\Release/core.a(RingBuffer.cpp.o)
                0x00007900                RingBuffer::clear()
 .text._ZN10RingBuffer9read_charEv
                0x0000790c       0x2a C:\Users\Haris\AppData\Local\Temp\VMBuilds\Main_Siemens_Automation_824MSPe\haeger_haeger_samd_haeger_mcu2\Release/core.a(RingBuffer.cpp.o)
                0x0000790c                RingBuffer::read_char()
 .text._ZN10RingBuffer9availableEv
                0x00007936       0x10 C:\Users\Haris\AppData\Local\Temp\VMBuilds\Main_Siemens_Automation_824MSPe\haeger_haeger_samd_haeger_mcu2\Release/core.a(RingBuffer.cpp.o)
                0x00007936                RingBuffer::available()
 .text._ZN10RingBuffer4peekEv
                0x00007946       0x14 C:\Users\Haris\AppData\Local\Temp\VMBuilds\Main_Siemens_Automation_824MSPe\haeger_haeger_samd_haeger_mcu2\Release/core.a(RingBuffer.cpp.o)
                0x00007946                RingBuffer::peek()
 .text._ZN10RingBuffer6isFullEv
                0x0000795a       0x1c C:\Users\Haris\AppData\Local\Temp\VMBuilds\Main_Siemens_Automation_824MSPe\haeger_haeger_samd_haeger_mcu2\Release/core.a(RingBuffer.cpp.o)
                0x0000795a                RingBuffer::isFull()
 .text._ZN6SERCOMC2EP6Sercom
                0x00007976        0x4 C:\Users\Haris\AppData\Local\Temp\VMBuilds\Main_Siemens_Automation_824MSPe\haeger_haeger_samd_haeger_mcu2\Release/core.a(SERCOM.cpp.o)
                0x00007976                SERCOM::SERCOM(Sercom*)
                0x00007976                SERCOM::SERCOM(Sercom*)
 .text._ZN6SERCOM9initFrameE18SercomUartCharSize15SercomDataOrder16SercomParityMode19SercomNumberStopBit
                0x0000797a       0x34 C:\Users\Haris\AppData\Local\Temp\VMBuilds\Main_Siemens_Automation_824MSPe\haeger_haeger_samd_haeger_mcu2\Release/core.a(SERCOM.cpp.o)
                0x0000797a                SERCOM::initFrame(SercomUartCharSize, SercomDataOrder, SercomParityMode, SercomNumberStopBit)
 .text._ZN6SERCOM8initPadsE15SercomUartTXPad11SercomRXPad
                0x000079ae       0x24 C:\Users\Haris\AppData\Local\Temp\VMBuilds\Main_Siemens_Automation_824MSPe\haeger_haeger_samd_haeger_mcu2\Release/core.a(SERCOM.cpp.o)
                0x000079ae                SERCOM::initPads(SercomUartTXPad, SercomRXPad)
 .text._ZN6SERCOM9resetUARTEv
                0x000079d2       0x1a C:\Users\Haris\AppData\Local\Temp\VMBuilds\Main_Siemens_Automation_824MSPe\haeger_haeger_samd_haeger_mcu2\Release/core.a(SERCOM.cpp.o)
                0x000079d2                SERCOM::resetUART()
 .text._ZN6SERCOM10enableUARTEv
                0x000079ec       0x14 C:\Users\Haris\AppData\Local\Temp\VMBuilds\Main_Siemens_Automation_824MSPe\haeger_haeger_samd_haeger_mcu2\Release/core.a(SERCOM.cpp.o)
                0x000079ec                SERCOM::enableUART()
 .text._ZN6SERCOM9flushUARTEv
                0x00007a00       0x14 C:\Users\Haris\AppData\Local\Temp\VMBuilds\Main_Siemens_Automation_824MSPe\haeger_haeger_samd_haeger_mcu2\Release/core.a(SERCOM.cpp.o)
                0x00007a00                SERCOM::flushUART()
 .text._ZN6SERCOM15clearStatusUARTEv
                0x00007a14        0x8 C:\Users\Haris\AppData\Local\Temp\VMBuilds\Main_Siemens_Automation_824MSPe\haeger_haeger_samd_haeger_mcu2\Release/core.a(SERCOM.cpp.o)
                0x00007a14                SERCOM::clearStatusUART()
 .text._ZN6SERCOM17availableDataUARTEv
                0x00007a1c        0xa C:\Users\Haris\AppData\Local\Temp\VMBuilds\Main_Siemens_Automation_824MSPe\haeger_haeger_samd_haeger_mcu2\Release/core.a(SERCOM.cpp.o)
                0x00007a1c                SERCOM::availableDataUART()
 .text._ZN6SERCOM11isUARTErrorEv
                0x00007a26        0x8 C:\Users\Haris\AppData\Local\Temp\VMBuilds\Main_Siemens_Automation_824MSPe\haeger_haeger_samd_haeger_mcu2\Release/core.a(SERCOM.cpp.o)
                0x00007a26                SERCOM::isUARTError()
 .text._ZN6SERCOM20acknowledgeUARTErrorEv
                0x00007a2e        0xc C:\Users\Haris\AppData\Local\Temp\VMBuilds\Main_Siemens_Automation_824MSPe\haeger_haeger_samd_haeger_mcu2\Release/core.a(SERCOM.cpp.o)
                0x00007a2e                SERCOM::acknowledgeUARTError()
 .text._ZN6SERCOM12readDataUARTEv
                0x00007a3a        0x8 C:\Users\Haris\AppData\Local\Temp\VMBuilds\Main_Siemens_Automation_824MSPe\haeger_haeger_samd_haeger_mcu2\Release/core.a(SERCOM.cpp.o)
                0x00007a3a                SERCOM::readDataUART()
 .text._ZN6SERCOM13writeDataUARTEh
                0x00007a42        0xe C:\Users\Haris\AppData\Local\Temp\VMBuilds\Main_Siemens_Automation_824MSPe\haeger_haeger_samd_haeger_mcu2\Release/core.a(SERCOM.cpp.o)
                0x00007a42                SERCOM::writeDataUART(unsigned char)
 .text._ZN6SERCOM9resetWIREEv
                0x00007a50       0x1a C:\Users\Haris\AppData\Local\Temp\VMBuilds\Main_Siemens_Automation_824MSPe\haeger_haeger_samd_haeger_mcu2\Release/core.a(SERCOM.cpp.o)
                0x00007a50                SERCOM::resetWIRE()
 .text._ZN6SERCOM10enableWIREEv
                0x00007a6a       0x26 C:\Users\Haris\AppData\Local\Temp\VMBuilds\Main_Siemens_Automation_824MSPe\haeger_haeger_samd_haeger_mcu2\Release/core.a(SERCOM.cpp.o)
                0x00007a6a                SERCOM::enableWIRE()
 .text._ZN6SERCOM18prepareNackBitWIREEv
                0x00007a90        0xe C:\Users\Haris\AppData\Local\Temp\VMBuilds\Main_Siemens_Automation_824MSPe\haeger_haeger_samd_haeger_mcu2\Release/core.a(SERCOM.cpp.o)
                0x00007a90                SERCOM::prepareNackBitWIRE()
 .text._ZN6SERCOM17prepareAckBitWIREEv
                0x00007a9e        0xe C:\Users\Haris\AppData\Local\Temp\VMBuilds\Main_Siemens_Automation_824MSPe\haeger_haeger_samd_haeger_mcu2\Release/core.a(SERCOM.cpp.o)
                0x00007a9e                SERCOM::prepareAckBitWIRE()
 .text._ZN6SERCOM22prepareCommandBitsWireEh
                0x00007aac       0x24 C:\Users\Haris\AppData\Local\Temp\VMBuilds\Main_Siemens_Automation_824MSPe\haeger_haeger_samd_haeger_mcu2\Release/core.a(SERCOM.cpp.o)
                0x00007aac                SERCOM::prepareCommandBitsWire(unsigned char)
 .text._ZN6SERCOM17sendDataSlaveWIREEh
                0x00007ad0       0x1a C:\Users\Haris\AppData\Local\Temp\VMBuilds\Main_Siemens_Automation_824MSPe\haeger_haeger_samd_haeger_mcu2\Release/core.a(SERCOM.cpp.o)
                0x00007ad0                SERCOM::sendDataSlaveWIRE(unsigned char)
 .text._ZN6SERCOM11isSlaveWIREEv
                0x00007aea       0x10 C:\Users\Haris\AppData\Local\Temp\VMBuilds\Main_Siemens_Automation_824MSPe\haeger_haeger_samd_haeger_mcu2\Release/core.a(SERCOM.cpp.o)
                0x00007aea                SERCOM::isSlaveWIRE()
 .text._ZN6SERCOM15isDataReadyWIREEv
                0x00007afa        0xa C:\Users\Haris\AppData\Local\Temp\VMBuilds\Main_Siemens_Automation_824MSPe\haeger_haeger_samd_haeger_mcu2\Release/core.a(SERCOM.cpp.o)
                0x00007afa                SERCOM::isDataReadyWIRE()
 .text._ZN6SERCOM18isStopDetectedWIREEv
                0x00007b04        0xa C:\Users\Haris\AppData\Local\Temp\VMBuilds\Main_Siemens_Automation_824MSPe\haeger_haeger_samd_haeger_mcu2\Release/core.a(SERCOM.cpp.o)
                0x00007b04                SERCOM::isStopDetectedWIRE()
 .text._ZN6SERCOM21isRestartDetectedWIREEv
                0x00007b0e        0xa C:\Users\Haris\AppData\Local\Temp\VMBuilds\Main_Siemens_Automation_824MSPe\haeger_haeger_samd_haeger_mcu2\Release/core.a(SERCOM.cpp.o)
                0x00007b0e                SERCOM::isRestartDetectedWIRE()
 .text._ZN6SERCOM14isAddressMatchEv
                0x00007b18        0xa C:\Users\Haris\AppData\Local\Temp\VMBuilds\Main_Siemens_Automation_824MSPe\haeger_haeger_samd_haeger_mcu2\Release/core.a(SERCOM.cpp.o)
                0x00007b18                SERCOM::isAddressMatch()
 .text._ZN6SERCOM25isMasterReadOperationWIREEv
                0x00007b22        0xa C:\Users\Haris\AppData\Local\Temp\VMBuilds\Main_Siemens_Automation_824MSPe\haeger_haeger_samd_haeger_mcu2\Release/core.a(SERCOM.cpp.o)
                0x00007b22                SERCOM::isMasterReadOperationWIRE()
 .text._ZN6SERCOM12readDataWIREEv
                0x00007b2c       0x18 C:\Users\Haris\AppData\Local\Temp\VMBuilds\Main_Siemens_Automation_824MSPe\haeger_haeger_samd_haeger_mcu2\Release/core.a(SERCOM.cpp.o)
                0x00007b2c                SERCOM::readDataWIRE()
 .text._ZN6SERCOM13initClockNVICEv
                0x00007b44      0x1c8 C:\Users\Haris\AppData\Local\Temp\VMBuilds\Main_Siemens_Automation_824MSPe\haeger_haeger_samd_haeger_mcu2\Release/core.a(SERCOM.cpp.o)
                0x00007b44                SERCOM::initClockNVIC()
 .text._ZN6SERCOM8initUARTE14SercomUartMode20SercomUartSampleRatem
                0x00007d0c       0x5c C:\Users\Haris\AppData\Local\Temp\VMBuilds\Main_Siemens_Automation_824MSPe\haeger_haeger_samd_haeger_mcu2\Release/core.a(SERCOM.cpp.o)
                0x00007d0c                SERCOM::initUART(SercomUartMode, SercomUartSampleRate, unsigned long)
 .text._ZN6SERCOM13initSlaveWIREEh
                0x00007d68       0x34 C:\Users\Haris\AppData\Local\Temp\VMBuilds\Main_Siemens_Automation_824MSPe\haeger_haeger_samd_haeger_mcu2\Release/core.a(SERCOM.cpp.o)
                0x00007d68                SERCOM::initSlaveWIRE(unsigned char)
 .text._ZN4UartcvbEv
                0x00007d9c        0x4 C:\Users\Haris\AppData\Local\Temp\VMBuilds\Main_Siemens_Automation_824MSPe\haeger_haeger_samd_haeger_mcu2\Release/core.a(Uart.cpp.o)
                0x00007d9c                Uart::operator bool()
 .text._ZN4Uart5beginEm
                0x00007da0        0xe C:\Users\Haris\AppData\Local\Temp\VMBuilds\Main_Siemens_Automation_824MSPe\haeger_haeger_samd_haeger_mcu2\Release/core.a(Uart.cpp.o)
                0x00007da0                Uart::begin(unsigned long)
 .text._ZN4Uart3endEv
                0x00007dae       0x16 C:\Users\Haris\AppData\Local\Temp\VMBuilds\Main_Siemens_Automation_824MSPe\haeger_haeger_samd_haeger_mcu2\Release/core.a(Uart.cpp.o)
                0x00007dae                Uart::end()
 .text._ZN4Uart5flushEv
                0x00007dc4        0x6 C:\Users\Haris\AppData\Local\Temp\VMBuilds\Main_Siemens_Automation_824MSPe\haeger_haeger_samd_haeger_mcu2\Release/core.a(Uart.cpp.o)
                0x00007dc4                Uart::flush()
 .text._ZN4Uart9availableEv
                0x00007dca        0x6 C:\Users\Haris\AppData\Local\Temp\VMBuilds\Main_Siemens_Automation_824MSPe\haeger_haeger_samd_haeger_mcu2\Release/core.a(Uart.cpp.o)
                0x00007dca                Uart::available()
 .text._ZN4Uart4peekEv
                0x00007dd0        0x6 C:\Users\Haris\AppData\Local\Temp\VMBuilds\Main_Siemens_Automation_824MSPe\haeger_haeger_samd_haeger_mcu2\Release/core.a(Uart.cpp.o)
                0x00007dd0                Uart::peek()
 .text._ZN4Uart4readEv
                0x00007dd6        0x6 C:\Users\Haris\AppData\Local\Temp\VMBuilds\Main_Siemens_Automation_824MSPe\haeger_haeger_samd_haeger_mcu2\Release/core.a(Uart.cpp.o)
                0x00007dd6                Uart::read()
 .text._ZN4Uart5writeEh
                0x00007ddc        0xc C:\Users\Haris\AppData\Local\Temp\VMBuilds\Main_Siemens_Automation_824MSPe\haeger_haeger_samd_haeger_mcu2\Release/core.a(Uart.cpp.o)
                0x00007ddc                Uart::write(unsigned char)
 .text._ZN4UartC2EP6SERCOMhh11SercomRXPad15SercomUartTXPad
                0x00007de8       0x40 C:\Users\Haris\AppData\Local\Temp\VMBuilds\Main_Siemens_Automation_824MSPe\haeger_haeger_samd_haeger_mcu2\Release/core.a(Uart.cpp.o)
                0x00007de8                Uart::Uart(SERCOM*, unsigned char, unsigned char, SercomRXPad, SercomUartTXPad)
                0x00007de8                Uart::Uart(SERCOM*, unsigned char, unsigned char, SercomRXPad, SercomUartTXPad)
 .text._ZN4Uart10IrqHandlerEv
                0x00007e28       0x36 C:\Users\Haris\AppData\Local\Temp\VMBuilds\Main_Siemens_Automation_824MSPe\haeger_haeger_samd_haeger_mcu2\Release/core.a(Uart.cpp.o)
                0x00007e28                Uart::IrqHandler()
 .text._ZN4Uart16extractNbStopBitEt
                0x00007e5e        0xe C:\Users\Haris\AppData\Local\Temp\VMBuilds\Main_Siemens_Automation_824MSPe\haeger_haeger_samd_haeger_mcu2\Release/core.a(Uart.cpp.o)
                0x00007e5e                Uart::extractNbStopBit(unsigned short)
 .text._ZN4Uart15extractCharSizeEt
                0x00007e6c       0x24 C:\Users\Haris\AppData\Local\Temp\VMBuilds\Main_Siemens_Automation_824MSPe\haeger_haeger_samd_haeger_mcu2\Release/core.a(Uart.cpp.o)
                0x00007e6c                Uart::extractCharSize(unsigned short)
 .text._ZN4Uart13extractParityEt
                0x00007e90       0x16 C:\Users\Haris\AppData\Local\Temp\VMBuilds\Main_Siemens_Automation_824MSPe\haeger_haeger_samd_haeger_mcu2\Release/core.a(Uart.cpp.o)
                0x00007e90                Uart::extractParity(unsigned short)
 *fill*         0x00007ea6        0x2 
 .text._ZN4Uart5beginEmt
                0x00007ea8       0x84 C:\Users\Haris\AppData\Local\Temp\VMBuilds\Main_Siemens_Automation_824MSPe\haeger_haeger_samd_haeger_mcu2\Release/core.a(Uart.cpp.o)
                0x00007ea8                Uart::begin(unsigned long, unsigned short)
 .text._Z8makeWordhh
                0x00007f2c        0x6 C:\Users\Haris\AppData\Local\Temp\VMBuilds\Main_Siemens_Automation_824MSPe\haeger_haeger_samd_haeger_mcu2\Release/core.a(WMath.cpp.o)
                0x00007f2c                makeWord(unsigned char, unsigned char)
 .text._ZN7Serial_17availableForWriteEv
                0x00007f32        0x4 C:\Users\Haris\AppData\Local\Temp\VMBuilds\Main_Siemens_Automation_824MSPe\haeger_haeger_samd_haeger_mcu2\Release/core.a(CDC.cpp.o)
                0x00007f32                Serial_::availableForWrite()
 .text._ZN7Serial_5writeEh
                0x00007f36       0x16 C:\Users\Haris\AppData\Local\Temp\VMBuilds\Main_Siemens_Automation_824MSPe\haeger_haeger_samd_haeger_mcu2\Release/core.a(CDC.cpp.o)
                0x00007f36                Serial_::write(unsigned char)
 .text._ZN7Serial_9availableEv
                0x00007f4c        0x8 C:\Users\Haris\AppData\Local\Temp\VMBuilds\Main_Siemens_Automation_824MSPe\haeger_haeger_samd_haeger_mcu2\Release/core.a(CDC.cpp.o)
                0x00007f4c                Serial_::available()
 .text._ZN7Serial_5flushEv
                0x00007f54        0x8 C:\Users\Haris\AppData\Local\Temp\VMBuilds\Main_Siemens_Automation_824MSPe\haeger_haeger_samd_haeger_mcu2\Release/core.a(CDC.cpp.o)
                0x00007f54                Serial_::flush()
 .text._ZN7Serial_5writeEPKhj
                0x00007f5c       0x1a C:\Users\Haris\AppData\Local\Temp\VMBuilds\Main_Siemens_Automation_824MSPe\haeger_haeger_samd_haeger_mcu2\Release/core.a(CDC.cpp.o)
                0x00007f5c                Serial_::write(unsigned char const*, unsigned int)
 *fill*         0x00007f76        0x2 
 .text._ZN7Serial_4peekEv
                0x00007f78       0x1c C:\Users\Haris\AppData\Local\Temp\VMBuilds\Main_Siemens_Automation_824MSPe\haeger_haeger_samd_haeger_mcu2\Release/core.a(CDC.cpp.o)
                0x00007f78                Serial_::peek()
 .text._ZN7Serial_4readEv
                0x00007f94       0x20 C:\Users\Haris\AppData\Local\Temp\VMBuilds\Main_Siemens_Automation_824MSPe\haeger_haeger_samd_haeger_mcu2\Release/core.a(CDC.cpp.o)
                0x00007f94                Serial_::read()
 .text._Z16CDC_GetInterfacePh
                0x00007fb4       0x18 C:\Users\Haris\AppData\Local\Temp\VMBuilds\Main_Siemens_Automation_824MSPe\haeger_haeger_samd_haeger_mcu2\Release/core.a(CDC.cpp.o)
                0x00007fb4                CDC_GetInterface(unsigned char*)
 .text._Z9CDC_SetupR8USBSetup
                0x00007fcc       0x7c C:\Users\Haris\AppData\Local\Temp\VMBuilds\Main_Siemens_Automation_824MSPe\haeger_haeger_samd_haeger_mcu2\Release/core.a(CDC.cpp.o)
                0x00007fcc                CDC_Setup(USBSetup&)
 .text._ZN7Serial_5beginEm
                0x00008048        0x2 C:\Users\Haris\AppData\Local\Temp\VMBuilds\Main_Siemens_Automation_824MSPe\haeger_haeger_samd_haeger_mcu2\Release/core.a(CDC.cpp.o)
                0x00008048                Serial_::begin(unsigned long)
 .text._ZN7Serial_5beginEmh
                0x0000804a        0x2 C:\Users\Haris\AppData\Local\Temp\VMBuilds\Main_Siemens_Automation_824MSPe\haeger_haeger_samd_haeger_mcu2\Release/core.a(CDC.cpp.o)
                0x0000804a                Serial_::begin(unsigned long, unsigned char)
 .text.startup._GLOBAL__sub_I__Z17_CDC_GetInterfacev
                0x0000804c       0x24 C:\Users\Haris\AppData\Local\Temp\VMBuilds\Main_Siemens_Automation_824MSPe\haeger_haeger_samd_haeger_mcu2\Release/core.a(CDC.cpp.o)
 .text._ZN26DoubleBufferedEPOutHandler4initEv
                0x00008070        0x2 C:\Users\Haris\AppData\Local\Temp\VMBuilds\Main_Siemens_Automation_824MSPe\haeger_haeger_samd_haeger_mcu2\Release/core.a(USBCore.cpp.o)
                0x00008070                DoubleBufferedEPOutHandler::init()
 *fill*         0x00008072        0x2 
 .text._ZN14USBDeviceClass6initEPEmm.part.4
                0x00008074       0xa4 C:\Users\Haris\AppData\Local\Temp\VMBuilds\Main_Siemens_Automation_824MSPe\haeger_haeger_samd_haeger_mcu2\Release/core.a(USBCore.cpp.o)
 .text._ZN7__GuardC2Ev
                0x00008118        0xe C:\Users\Haris\AppData\Local\Temp\VMBuilds\Main_Siemens_Automation_824MSPe\haeger_haeger_samd_haeger_mcu2\Release/core.a(USBCore.cpp.o)
                0x00008118                __Guard::__Guard()
                0x00008118                __Guard::__Guard()
 .text._ZN7__GuardD2Ev
                0x00008126        0xc C:\Users\Haris\AppData\Local\Temp\VMBuilds\Main_Siemens_Automation_824MSPe\haeger_haeger_samd_haeger_mcu2\Release/core.a(USBCore.cpp.o)
                0x00008126                __Guard::~__Guard()
                0x00008126                __Guard::~__Guard()
 .text._ZNK26DoubleBufferedEPOutHandler9availableEv
                0x00008132       0x5e C:\Users\Haris\AppData\Local\Temp\VMBuilds\Main_Siemens_Automation_824MSPe\haeger_haeger_samd_haeger_mcu2\Release/core.a(USBCore.cpp.o)
                0x00008132                DoubleBufferedEPOutHandler::available() const
 .text._ZN26DoubleBufferedEPOutHandler7releaseEv
                0x00008190       0x4e C:\Users\Haris\AppData\Local\Temp\VMBuilds\Main_Siemens_Automation_824MSPe\haeger_haeger_samd_haeger_mcu2\Release/core.a(USBCore.cpp.o)
                0x00008190                DoubleBufferedEPOutHandler::release()
 .text._ZN26DoubleBufferedEPOutHandler4recvEPvm
                0x000081de      0x114 C:\Users\Haris\AppData\Local\Temp\VMBuilds\Main_Siemens_Automation_824MSPe\haeger_haeger_samd_haeger_mcu2\Release/core.a(USBCore.cpp.o)
                0x000081de                DoubleBufferedEPOutHandler::recv(void*, unsigned long)
 .text._ZN26DoubleBufferedEPOutHandler14handleEndpointEv
                0x000082f2       0xc6 C:\Users\Haris\AppData\Local\Temp\VMBuilds\Main_Siemens_Automation_824MSPe\haeger_haeger_samd_haeger_mcu2\Release/core.a(USBCore.cpp.o)
                0x000082f2                DoubleBufferedEPOutHandler::handleEndpoint()
 .text._ZN14USBDeviceClass14SendInterfacesEPm
                0x000083b8       0x30 C:\Users\Haris\AppData\Local\Temp\VMBuilds\Main_Siemens_Automation_824MSPe\haeger_haeger_samd_haeger_mcu2\Release/core.a(USBCore.cpp.o)
                0x000083b8                USBDeviceClass::SendInterfaces(unsigned long*)
 .text._ZN14USBDeviceClass14handleEndpointEh
                0x000083e8       0x3c C:\Users\Haris\AppData\Local\Temp\VMBuilds\Main_Siemens_Automation_824MSPe\haeger_haeger_samd_haeger_mcu2\Release/core.a(USBCore.cpp.o)
                0x000083e8                USBDeviceClass::handleEndpoint(unsigned char)
 .text._ZN14USBDeviceClass4initEv
                0x00008424      0x120 C:\Users\Haris\AppData\Local\Temp\VMBuilds\Main_Siemens_Automation_824MSPe\haeger_haeger_samd_haeger_mcu2\Release/core.a(USBCore.cpp.o)
                0x00008424                USBDeviceClass::init()
 .text._ZN14USBDeviceClass6attachEv
                0x00008544       0x30 C:\Users\Haris\AppData\Local\Temp\VMBuilds\Main_Siemens_Automation_824MSPe\haeger_haeger_samd_haeger_mcu2\Release/core.a(USBCore.cpp.o)
                0x00008544                USBDeviceClass::attach()
 .text._ZN14USBDeviceClass10setAddressEm
                0x00008574       0x40 C:\Users\Haris\AppData\Local\Temp\VMBuilds\Main_Siemens_Automation_824MSPe\haeger_haeger_samd_haeger_mcu2\Release/core.a(USBCore.cpp.o)
                0x00008574                USBDeviceClass::setAddress(unsigned long)
 .text._ZN14USBDeviceClass25handleClassInterfaceSetupER8USBSetup
                0x000085b4       0x3c C:\Users\Haris\AppData\Local\Temp\VMBuilds\Main_Siemens_Automation_824MSPe\haeger_haeger_samd_haeger_mcu2\Release/core.a(USBCore.cpp.o)
                0x000085b4                USBDeviceClass::handleClassInterfaceSetup(USBSetup&)
 .text._ZN14USBDeviceClass6initEPEmm
                0x000085f0       0xec C:\Users\Haris\AppData\Local\Temp\VMBuilds\Main_Siemens_Automation_824MSPe\haeger_haeger_samd_haeger_mcu2\Release/core.a(USBCore.cpp.o)
                0x000085f0                USBDeviceClass::initEP(unsigned long, unsigned long)
 .text._ZN14USBDeviceClass13initEndpointsEv
                0x000086dc       0x24 C:\Users\Haris\AppData\Local\Temp\VMBuilds\Main_Siemens_Automation_824MSPe\haeger_haeger_samd_haeger_mcu2\Release/core.a(USBCore.cpp.o)
                0x000086dc                USBDeviceClass::initEndpoints()
 .text._ZN14USBDeviceClass9availableEm
                0x00008700       0x2c C:\Users\Haris\AppData\Local\Temp\VMBuilds\Main_Siemens_Automation_824MSPe\haeger_haeger_samd_haeger_mcu2\Release/core.a(USBCore.cpp.o)
                0x00008700                USBDeviceClass::available(unsigned long)
 .text._ZN14USBDeviceClass5flushEm
                0x0000872c       0x28 C:\Users\Haris\AppData\Local\Temp\VMBuilds\Main_Siemens_Automation_824MSPe\haeger_haeger_samd_haeger_mcu2\Release/core.a(USBCore.cpp.o)
                0x0000872c                USBDeviceClass::flush(unsigned long)
 .text._ZN14USBDeviceClass14armRecvCtrlOUTEm
                0x00008754       0x58 C:\Users\Haris\AppData\Local\Temp\VMBuilds\Main_Siemens_Automation_824MSPe\haeger_haeger_samd_haeger_mcu2\Release/core.a(USBCore.cpp.o)
                0x00008754                USBDeviceClass::armRecvCtrlOUT(unsigned long)
 .text._ZN14USBDeviceClass11recvControlEPvm
                0x000087ac       0x3c C:\Users\Haris\AppData\Local\Temp\VMBuilds\Main_Siemens_Automation_824MSPe\haeger_haeger_samd_haeger_mcu2\Release/core.a(USBCore.cpp.o)
                0x000087ac                USBDeviceClass::recvControl(void*, unsigned long)
 .text._ZN14USBDeviceClass7armRecvEm
                0x000087e8       0x34 C:\Users\Haris\AppData\Local\Temp\VMBuilds\Main_Siemens_Automation_824MSPe\haeger_haeger_samd_haeger_mcu2\Release/core.a(USBCore.cpp.o)
                0x000087e8                USBDeviceClass::armRecv(unsigned long)
 .text._ZN14USBDeviceClass4recvEmPvm
                0x0000881c       0xdc C:\Users\Haris\AppData\Local\Temp\VMBuilds\Main_Siemens_Automation_824MSPe\haeger_haeger_samd_haeger_mcu2\Release/core.a(USBCore.cpp.o)
                0x0000881c                USBDeviceClass::recv(unsigned long, void*, unsigned long)
 .text._ZN14USBDeviceClass4recvEm
                0x000088f8       0x1e C:\Users\Haris\AppData\Local\Temp\VMBuilds\Main_Siemens_Automation_824MSPe\haeger_haeger_samd_haeger_mcu2\Release/core.a(USBCore.cpp.o)
                0x000088f8                USBDeviceClass::recv(unsigned long)
 *fill*         0x00008916        0x2 
 .text._ZN14USBDeviceClass4sendEmPKvm
                0x00008918      0x10c C:\Users\Haris\AppData\Local\Temp\VMBuilds\Main_Siemens_Automation_824MSPe\haeger_haeger_samd_haeger_mcu2\Release/core.a(USBCore.cpp.o)
                0x00008918                USBDeviceClass::send(unsigned long, void const*, unsigned long)
 .text._ZN14USBDeviceClass7armSendEmPKvm
                0x00008a24       0x3c C:\Users\Haris\AppData\Local\Temp\VMBuilds\Main_Siemens_Automation_824MSPe\haeger_haeger_samd_haeger_mcu2\Release/core.a(USBCore.cpp.o)
                0x00008a24                USBDeviceClass::armSend(unsigned long, void const*, unsigned long)
 .text._ZN14USBDeviceClass11sendControlEPKvm
                0x00008a60       0x58 C:\Users\Haris\AppData\Local\Temp\VMBuilds\Main_Siemens_Automation_824MSPe\haeger_haeger_samd_haeger_mcu2\Release/core.a(USBCore.cpp.o)
                0x00008a60                USBDeviceClass::sendControl(void const*, unsigned long)
 .text._ZN14USBDeviceClass20sendStringDescriptorEPKhh
                0x00008ab8       0x6c C:\Users\Haris\AppData\Local\Temp\VMBuilds\Main_Siemens_Automation_824MSPe\haeger_haeger_samd_haeger_mcu2\Release/core.a(USBCore.cpp.o)
                0x00008ab8                USBDeviceClass::sendStringDescriptor(unsigned char const*, unsigned char)
 .text._ZN14USBDeviceClass12packMessagesEb.part.6
                0x00008b24       0x1c C:\Users\Haris\AppData\Local\Temp\VMBuilds\Main_Siemens_Automation_824MSPe\haeger_haeger_samd_haeger_mcu2\Release/core.a(USBCore.cpp.o)
 .text._ZN14USBDeviceClass17sendConfigurationEm
                0x00008b40       0xa4 C:\Users\Haris\AppData\Local\Temp\VMBuilds\Main_Siemens_Automation_824MSPe\haeger_haeger_samd_haeger_mcu2\Release/core.a(USBCore.cpp.o)
                0x00008b40                USBDeviceClass::sendConfiguration(unsigned long)
 .text._ZN14USBDeviceClass14sendDescriptorER8USBSetup
                0x00008be4       0xb4 C:\Users\Haris\AppData\Local\Temp\VMBuilds\Main_Siemens_Automation_824MSPe\haeger_haeger_samd_haeger_mcu2\Release/core.a(USBCore.cpp.o)
                0x00008be4                USBDeviceClass::sendDescriptor(USBSetup&)
 .text._ZN14USBDeviceClass19handleStandardSetupER8USBSetup
                0x00008c98      0x124 C:\Users\Haris\AppData\Local\Temp\VMBuilds\Main_Siemens_Automation_824MSPe\haeger_haeger_samd_haeger_mcu2\Release/core.a(USBCore.cpp.o)
                0x00008c98                USBDeviceClass::handleStandardSetup(USBSetup&)
 .text._ZN14USBDeviceClass10ISRHandlerEv
                0x00008dbc      0x154 C:\Users\Haris\AppData\Local\Temp\VMBuilds\Main_Siemens_Automation_824MSPe\haeger_haeger_samd_haeger_mcu2\Release/core.a(USBCore.cpp.o)
                0x00008dbc                USBDeviceClass::ISRHandler()
 .text.UDD_Handler
                0x00008f10        0xc C:\Users\Haris\AppData\Local\Temp\VMBuilds\Main_Siemens_Automation_824MSPe\haeger_haeger_samd_haeger_mcu2\Release/core.a(USBCore.cpp.o)
                0x00008f10                UDD_Handler
 .text.startup._GLOBAL__sub_I_usbd
                0x00008f1c       0x10 C:\Users\Haris\AppData\Local\Temp\VMBuilds\Main_Siemens_Automation_824MSPe\haeger_haeger_samd_haeger_mcu2\Release/core.a(USBCore.cpp.o)
 .text.init     0x00008f2c      0x118 C:\Users\Haris\AppData\Local\Temp\VMBuilds\Main_Siemens_Automation_824MSPe\haeger_haeger_samd_haeger_mcu2\Release/core.a(wiring.c.o)
                0x00008f2c                init
 .text._Znwj    0x00009044        0x4 C:\Users\Haris\AppData\Local\Temp\VMBuilds\Main_Siemens_Automation_824MSPe\haeger_haeger_samd_haeger_mcu2\Release/core.a(new.cpp.o)
                0x00009044                operator new(unsigned int)
 .text._ZN13PluggableUSB_12getInterfaceEPh
                0x00009048       0x28 C:\Users\Haris\AppData\Local\Temp\VMBuilds\Main_Siemens_Automation_824MSPe\haeger_haeger_samd_haeger_mcu2\Release/core.a(PluggableUSB.cpp.o)
                0x00009048                PluggableUSB_::getInterface(unsigned char*)
 .text._ZN13PluggableUSB_13getDescriptorER8USBSetup
                0x00009070       0x1c C:\Users\Haris\AppData\Local\Temp\VMBuilds\Main_Siemens_Automation_824MSPe\haeger_haeger_samd_haeger_mcu2\Release/core.a(PluggableUSB.cpp.o)
                0x00009070                PluggableUSB_::getDescriptor(USBSetup&)
 .text._ZN13PluggableUSB_12getShortNameEPc
                0x0000908c       0x1c C:\Users\Haris\AppData\Local\Temp\VMBuilds\Main_Siemens_Automation_824MSPe\haeger_haeger_samd_haeger_mcu2\Release/core.a(PluggableUSB.cpp.o)
                0x0000908c                PluggableUSB_::getShortName(char*)
 .text._ZN13PluggableUSB_5setupER8USBSetup
                0x000090a8       0x20 C:\Users\Haris\AppData\Local\Temp\VMBuilds\Main_Siemens_Automation_824MSPe\haeger_haeger_samd_haeger_mcu2\Release/core.a(PluggableUSB.cpp.o)
                0x000090a8                PluggableUSB_::setup(USBSetup&)
 .text._Z12PluggableUSBv
                0x000090c8       0x28 C:\Users\Haris\AppData\Local\Temp\VMBuilds\Main_Siemens_Automation_824MSPe\haeger_haeger_samd_haeger_mcu2\Release/core.a(PluggableUSB.cpp.o)
                0x000090c8                PluggableUSB()
 .text._ZN20USBDevice_SAMD21G18x5resetEv
                0x000090f0       0x30 C:\Users\Haris\AppData\Local\Temp\VMBuilds\Main_Siemens_Automation_824MSPe\haeger_haeger_samd_haeger_mcu2\Release/core.a(SAMD21_USBDevice.cpp.o)
                0x000090f0                USBDevice_SAMD21G18x::reset()
 .text._ZN20USBDevice_SAMD21G18x9calibrateEv
                0x00009120       0x48 C:\Users\Haris\AppData\Local\Temp\VMBuilds\Main_Siemens_Automation_824MSPe\haeger_haeger_samd_haeger_mcu2\Release/core.a(SAMD21_USBDevice.cpp.o)
                0x00009120                USBDevice_SAMD21G18x::calibrate()
 .text          0x00009168      0x370 c:/users/haris/appdata/local/arduino15/packages/arduino/tools/arm-none-eabi-gcc/4.8.3-2014q1/bin/../lib/gcc/arm-none-eabi/4.8.3/armv7e-m/fpu\libgcc.a(_arm_addsubdf3.o)
                0x00009168                __aeabi_drsub
                0x00009170                __aeabi_dsub
                0x00009170                __subdf3
                0x00009174                __aeabi_dadd
                0x00009174                __adddf3
                0x000093ec                __floatunsidf
                0x000093ec                __aeabi_ui2d
                0x0000940c                __floatsidf
                0x0000940c                __aeabi_i2d
                0x00009430                __aeabi_f2d
                0x00009430                __extendsfdf2
                0x0000946c                __floatundidf
                0x0000946c                __aeabi_ul2d
                0x0000947c                __floatdidf
                0x0000947c                __aeabi_l2d
 .text          0x000094d8      0x424 c:/users/haris/appdata/local/arduino15/packages/arduino/tools/arm-none-eabi-gcc/4.8.3-2014q1/bin/../lib/gcc/arm-none-eabi/4.8.3/armv7e-m/fpu\libgcc.a(_arm_muldivdf3.o)
                0x000094d8                __aeabi_dmul
                0x000094d8                __muldf3
                0x0000972c                __divdf3
                0x0000972c                __aeabi_ddiv
 .text          0x000098fc       0xa0 c:/users/haris/appdata/local/arduino15/packages/arduino/tools/arm-none-eabi-gcc/4.8.3-2014q1/bin/../lib/gcc/arm-none-eabi/4.8.3/armv7e-m/fpu\libgcc.a(_arm_truncdfsf2.o)
                0x000098fc                __truncdfsf2
                0x000098fc                __aeabi_d2f
 .text.__libc_init_array
                0x0000999c       0x4c c:/users/haris/appdata/local/arduino15/packages/arduino/tools/arm-none-eabi-gcc/4.8.3-2014q1/bin/../lib/gcc/arm-none-eabi/4.8.3/../../../../arm-none-eabi/lib/armv7e-m/fpu\libc_s.a(lib_a-init.o)
                0x0000999c                __libc_init_array
 .text.malloc   0x000099e8       0x10 c:/users/haris/appdata/local/arduino15/packages/arduino/tools/arm-none-eabi-gcc/4.8.3-2014q1/bin/../lib/gcc/arm-none-eabi/4.8.3/../../../../arm-none-eabi/lib/armv7e-m/fpu\libc_s.a(lib_a-malloc.o)
                0x000099e8                malloc
 .text.memcpy   0x000099f8       0x12 c:/users/haris/appdata/local/arduino15/packages/arduino/tools/arm-none-eabi-gcc/4.8.3-2014q1/bin/../lib/gcc/arm-none-eabi/4.8.3/../../../../arm-none-eabi/lib/armv7e-m/fpu\libc_s.a(lib_a-memcpy-stub.o)
                0x000099f8                memcpy
 .text.memset   0x00009a0a       0x10 c:/users/haris/appdata/local/arduino15/packages/arduino/tools/arm-none-eabi-gcc/4.8.3-2014q1/bin/../lib/gcc/arm-none-eabi/4.8.3/../../../../arm-none-eabi/lib/armv7e-m/fpu\libc_s.a(lib_a-memset.o)
                0x00009a0a                memset
 *fill*         0x00009a1a        0x2 
 .text._malloc_r
                0x00009a1c       0xa8 c:/users/haris/appdata/local/arduino15/packages/arduino/tools/arm-none-eabi-gcc/4.8.3-2014q1/bin/../lib/gcc/arm-none-eabi/4.8.3/../../../../arm-none-eabi/lib/armv7e-m/fpu\libc_s.a(lib_a-nano-mallocr.o)
                0x00009a1c                _malloc_r
 .text._sbrk_r  0x00009ac4       0x20 c:/users/haris/appdata/local/arduino15/packages/arduino/tools/arm-none-eabi-gcc/4.8.3-2014q1/bin/../lib/gcc/arm-none-eabi/4.8.3/../../../../arm-none-eabi/lib/armv7e-m/fpu\libc_s.a(lib_a-sbrkr.o)
                0x00009ac4                _sbrk_r
 .text.strlen   0x00009ae4       0x10 c:/users/haris/appdata/local/arduino15/packages/arduino/tools/arm-none-eabi-gcc/4.8.3-2014q1/bin/../lib/gcc/arm-none-eabi/4.8.3/../../../../arm-none-eabi/lib/armv7e-m/fpu\libc_s.a(lib_a-strlen.o)
                0x00009ae4                strlen
 .text._sbrk    0x00009af4       0x34 c:/users/haris/appdata/local/arduino15/packages/arduino/tools/arm-none-eabi-gcc/4.8.3-2014q1/bin/../lib/gcc/arm-none-eabi/4.8.3/../../../../arm-none-eabi/lib/armv7e-m/fpu\libnosys.a(sbrk.o)
                0x00009af4                _sbrk
 *(.init)
 .init          0x00009b28        0x4 c:/users/haris/appdata/local/arduino15/packages/arduino/tools/arm-none-eabi-gcc/4.8.3-2014q1/bin/../lib/gcc/arm-none-eabi/4.8.3/armv7e-m/fpu/crti.o
                0x00009b28                _init
 .init          0x00009b2c        0x8 c:/users/haris/appdata/local/arduino15/packages/arduino/tools/arm-none-eabi-gcc/4.8.3-2014q1/bin/../lib/gcc/arm-none-eabi/4.8.3/armv7e-m/fpu/crtn.o
 *(.fini)
 .fini          0x00009b34        0x4 c:/users/haris/appdata/local/arduino15/packages/arduino/tools/arm-none-eabi-gcc/4.8.3-2014q1/bin/../lib/gcc/arm-none-eabi/4.8.3/armv7e-m/fpu/crti.o
                0x00009b34                _fini
 .fini          0x00009b38        0x8 c:/users/haris/appdata/local/arduino15/packages/arduino/tools/arm-none-eabi-gcc/4.8.3-2014q1/bin/../lib/gcc/arm-none-eabi/4.8.3/armv7e-m/fpu/crtn.o
 *crtbegin.o(.ctors)
 *crtbegin?.o(.ctors)
 *(EXCLUDE_FILE(*crtend.o *crtend?.o) .ctors)
 *(SORT(.ctors.*))
 *(.ctors)
 *crtbegin.o(.dtors)
 *crtbegin?.o(.dtors)
 *(EXCLUDE_FILE(*crtend.o *crtend?.o) .dtors)
 *(SORT(.dtors.*))
 *(.dtors)
 *(.rodata*)
 .rodata._ZTV12ModbusSerialI7Serial_E
                0x00009b40       0x28 C:\Users\Haris\AppData\Local\Temp\VMBuilds\Main_Siemens_Automation_824MSPe\haeger_haeger_samd_haeger_mcu2\Release\Main_Siemens_Automation_824MSPe.cpp.o
                0x00009b40                vtable for ModbusSerial<Serial_>
 .rodata._ZL12fctsupported
                0x00009b68        0x8 C:\Users\Haris\AppData\Local\Temp\VMBuilds\Main_Siemens_Automation_824MSPe\haeger_haeger_samd_haeger_mcu2\Release\Main_Siemens_Automation_824MSPe.cpp.o
 .rodata._ZTV7TwoWire
                0x00009b70       0x20 C:\Users\Haris\AppData\Local\Temp\VMBuilds\Main_Siemens_Automation_824MSPe\haeger_haeger_samd_haeger_mcu2\Release\Wire\Wire.cpp.o
                0x00009b70                vtable for TwoWire
 .rodata.g_APinDescription
                0x00009b90      0x6d8 C:\Users\Haris\AppData\Local\Temp\VMBCore\visualmicro\ed00c25992609daaa7a7b547b702356d\variant\variant.cpp.o
                0x00009b90                g_APinDescription
 .rodata        0x0000a268       0x18 C:\Users\Haris\AppData\Local\Temp\VMBuilds\Main_Siemens_Automation_824MSPe\haeger_haeger_samd_haeger_mcu2\Release/core.a(wiring_analog.c.o)
 .rodata._ZTV4Uart
                0x0000a280       0x30 C:\Users\Haris\AppData\Local\Temp\VMBuilds\Main_Siemens_Automation_824MSPe\haeger_haeger_samd_haeger_mcu2\Release/core.a(Uart.cpp.o)
                0x0000a280                vtable for Uart
 .rodata._ZTV7Serial_
                0x0000a2b0       0x28 C:\Users\Haris\AppData\Local\Temp\VMBuilds\Main_Siemens_Automation_824MSPe\haeger_haeger_samd_haeger_mcu2\Release/core.a(CDC.cpp.o)
                0x0000a2b0                vtable for Serial_
 .rodata._ZTV26DoubleBufferedEPOutHandler
                0x0000a2d8       0x18 C:\Users\Haris\AppData\Local\Temp\VMBuilds\Main_Siemens_Automation_824MSPe\haeger_haeger_samd_haeger_mcu2\Release/core.a(USBCore.cpp.o)
                0x0000a2d8                vtable for DoubleBufferedEPOutHandler
 .rodata._ZL19STRING_MANUFACTURER
                0x0000a2f0        0x7 C:\Users\Haris\AppData\Local\Temp\VMBuilds\Main_Siemens_Automation_824MSPe\haeger_haeger_samd_haeger_mcu2\Release/core.a(USBCore.cpp.o)
 *fill*         0x0000a2f7        0x1 
 .rodata._ZL15STRING_LANGUAGE
                0x0000a2f8        0x4 C:\Users\Haris\AppData\Local\Temp\VMBuilds\Main_Siemens_Automation_824MSPe\haeger_haeger_samd_haeger_mcu2\Release/core.a(USBCore.cpp.o)
 .rodata._ZL21USB_DeviceDescriptorB
                0x0000a2fc       0x12 C:\Users\Haris\AppData\Local\Temp\VMBuilds\Main_Siemens_Automation_824MSPe\haeger_haeger_samd_haeger_mcu2\Release/core.a(USBCore.cpp.o)
 .rodata._ZL14STRING_PRODUCT
                0x0000a30e       0x1d C:\Users\Haris\AppData\Local\Temp\VMBuilds\Main_Siemens_Automation_824MSPe\haeger_haeger_samd_haeger_mcu2\Release/core.a(USBCore.cpp.o)
 .rodata.str1.1
                0x0000a32b        0x2 c:/users/haris/appdata/local/arduino15/packages/arduino/tools/arm-none-eabi-gcc/4.8.3-2014q1/bin/../lib/gcc/arm-none-eabi/4.8.3/../../../../arm-none-eabi/lib/armv7e-m/fpu\libc_s.a(lib_a-impure.o)
 *(.eh_frame*)
 *fill*         0x0000a32d        0x3 
 .eh_frame      0x0000a330        0x0 c:/users/haris/appdata/local/arduino15/packages/arduino/tools/arm-none-eabi-gcc/4.8.3-2014q1/bin/../lib/gcc/arm-none-eabi/4.8.3/armv7e-m/fpu/crtbegin.o
 .eh_frame      0x0000a330        0x4 c:/users/haris/appdata/local/arduino15/packages/arduino/tools/arm-none-eabi-gcc/4.8.3-2014q1/bin/../lib/gcc/arm-none-eabi/4.8.3/armv7e-m/fpu/crtend.o

.glue_7         0x0000a334        0x0
 .glue_7        0x00000000        0x0 linker stubs

.glue_7t        0x0000a334        0x0
 .glue_7t       0x00000000        0x0 linker stubs

.vfp11_veneer   0x0000a334        0x0
 .vfp11_veneer  0x00000000        0x0 linker stubs

.v4_bx          0x0000a334        0x0
 .v4_bx         0x00000000        0x0 linker stubs

.iplt           0x0000a334        0x0
 .iplt          0x00000000        0x0 c:/users/haris/appdata/local/arduino15/packages/arduino/tools/arm-none-eabi-gcc/4.8.3-2014q1/bin/../lib/gcc/arm-none-eabi/4.8.3/armv7e-m/fpu/crtbegin.o

.rel.dyn        0x0000a334        0x0
 .rel.iplt      0x00000000        0x0 c:/users/haris/appdata/local/arduino15/packages/arduino/tools/arm-none-eabi-gcc/4.8.3-2014q1/bin/../lib/gcc/arm-none-eabi/4.8.3/armv7e-m/fpu/crtbegin.o

.ARM.extab
 *(.ARM.extab* .gnu.linkonce.armextab.*)
                0x0000a334                __exidx_start = .

.ARM.exidx
 *(.ARM.exidx* .gnu.linkonce.armexidx.*)
                0x0000a334                __exidx_end = .
                0x0000a334                __etext = .

.data           0x20000000      0x180 load address 0x0000a334
                0x20000000                __data_start__ = .
 *(vtable)
 *(.data*)
 .data.WireMs   0x20000000        0x4 C:\Users\Haris\AppData\Local\Temp\VMBuilds\Main_Siemens_Automation_824MSPe\haeger_haeger_samd_haeger_mcu2\Release\Main_Siemens_Automation_824MSPe.cpp.o
                0x20000000                WireMs
 .data.CM_Delay_Time
                0x20000004        0x4 C:\Users\Haris\AppData\Local\Temp\VMBuilds\Main_Siemens_Automation_824MSPe\haeger_haeger_samd_haeger_mcu2\Release\Conductive_Mode_Function.cpp.o
                0x20000004                CM_Delay_Time
 .data.FD_Delay_Time
                0x20000008        0x4 C:\Users\Haris\AppData\Local\Temp\VMBuilds\Main_Siemens_Automation_824MSPe\haeger_haeger_samd_haeger_mcu2\Release\Fastener_Detection_Function.cpp.o
                0x20000008                FD_Delay_Time
 .data.FL_Delay_Time
                0x2000000c        0x4 C:\Users\Haris\AppData\Local\Temp\VMBuilds\Main_Siemens_Automation_824MSPe\haeger_haeger_samd_haeger_mcu2\Release\Fastener_Length_Function.cpp.o
                0x2000000c                FL_Delay_Time
 .data.TPS_Lock_Reset_Time
                0x20000010        0x4 C:\Users\Haris\AppData\Local\Temp\VMBuilds\Main_Siemens_Automation_824MSPe\haeger_haeger_samd_haeger_mcu2\Release\Hydraulic_Cylinder_Function.cpp.o
                0x20000010                TPS_Lock_Reset_Time
 .data.Modbus_Swap_Bit_Time
                0x20000014        0x4 C:\Users\Haris\AppData\Local\Temp\VMBuilds\Main_Siemens_Automation_824MSPe\haeger_haeger_samd_haeger_mcu2\Release\Modbus_Communication_Function.cpp.o
                0x20000014                Modbus_Swap_Bit_Time
 .data.INTERVAL_1
                0x20000018        0x4 C:\Users\Haris\AppData\Local\Temp\VMBuilds\Main_Siemens_Automation_824MSPe\haeger_haeger_samd_haeger_mcu2\Release\Press_Complete_Function.cpp.o
                0x20000018                INTERVAL_1
 .data.Force_Ref_Value
                0x2000001c        0x4 C:\Users\Haris\AppData\Local\Temp\VMBuilds\Main_Siemens_Automation_824MSPe\haeger_haeger_samd_haeger_mcu2\Release\Press_Complete_Function.cpp.o
                0x2000001c                Force_Ref_Value
 .data.Shuttle_Retract_Time
                0x20000020        0x4 C:\Users\Haris\AppData\Local\Temp\VMBuilds\Main_Siemens_Automation_824MSPe\haeger_haeger_samd_haeger_mcu2\Release\Shuttle_Function.cpp.o
                0x20000020                Shuttle_Retract_Time
 .data.Shuttle_Extend_Time
                0x20000024        0x4 C:\Users\Haris\AppData\Local\Temp\VMBuilds\Main_Siemens_Automation_824MSPe\haeger_haeger_samd_haeger_mcu2\Release\Shuttle_Function.cpp.o
                0x20000024                Shuttle_Extend_Time
 .data.intervalTimer1
                0x20000028        0x4 C:\Users\Haris\AppData\Local\Temp\VMBuilds\Main_Siemens_Automation_824MSPe\haeger_haeger_samd_haeger_mcu2\Release\Timer_Function.cpp.o
                0x20000028                intervalTimer1
 .data.TPS_Delay_Time
                0x2000002c        0x4 C:\Users\Haris\AppData\Local\Temp\VMBuilds\Main_Siemens_Automation_824MSPe\haeger_haeger_samd_haeger_mcu2\Release\Tooling_Protection_Sytem_Function.cpp.o
                0x2000002c                TPS_Delay_Time
 .data.g_apTCInstances
                0x20000030       0x34 C:\Users\Haris\AppData\Local\Temp\VMBCore\visualmicro\ed00c25992609daaa7a7b547b702356d\variant\variant.cpp.o
                0x20000030                g_apTCInstances
 .data._ADCResolution
                0x20000064        0x4 C:\Users\Haris\AppData\Local\Temp\VMBuilds\Main_Siemens_Automation_824MSPe\haeger_haeger_samd_haeger_mcu2\Release/core.a(wiring_analog.c.o)
 .data._writeResolution
                0x20000068        0x4 C:\Users\Haris\AppData\Local\Temp\VMBuilds\Main_Siemens_Automation_824MSPe\haeger_haeger_samd_haeger_mcu2\Release/core.a(wiring_analog.c.o)
 .data._readResolution
                0x2000006c        0x4 C:\Users\Haris\AppData\Local\Temp\VMBuilds\Main_Siemens_Automation_824MSPe\haeger_haeger_samd_haeger_mcu2\Release/core.a(wiring_analog.c.o)
 .data._ZL5ticks
                0x20000070        0x4 C:\Users\Haris\AppData\Local\Temp\VMBuilds\Main_Siemens_Automation_824MSPe\haeger_haeger_samd_haeger_mcu2\Release/core.a(Reset.cpp.o)
 .data._ZL12_usbLineInfo
                0x20000074        0x8 C:\Users\Haris\AppData\Local\Temp\VMBuilds\Main_Siemens_Automation_824MSPe\haeger_haeger_samd_haeger_mcu2\Release/core.a(CDC.cpp.o)
 .data._ZL10breakValue
                0x2000007c        0x4 C:\Users\Haris\AppData\Local\Temp\VMBuilds\Main_Siemens_Automation_824MSPe\haeger_haeger_samd_haeger_mcu2\Release/core.a(CDC.cpp.o)
 .data._ZL13_cdcInterface
                0x20000080       0x42 C:\Users\Haris\AppData\Local\Temp\VMBuilds\Main_Siemens_Automation_824MSPe\haeger_haeger_samd_haeger_mcu2\Release/core.a(CDC.cpp.o)
 *fill*         0x200000c2        0x2 
 .data._serialPeek
                0x200000c4        0x4 C:\Users\Haris\AppData\Local\Temp\VMBuilds\Main_Siemens_Automation_824MSPe\haeger_haeger_samd_haeger_mcu2\Release/core.a(CDC.cpp.o)
                0x200000c4                _serialPeek
 .data.EndPoints
                0x200000c8       0x28 C:\Users\Haris\AppData\Local\Temp\VMBuilds\Main_Siemens_Automation_824MSPe\haeger_haeger_samd_haeger_mcu2\Release/core.a(USBCore.cpp.o)
                0x200000c8                EndPoints
 .data.SystemCoreClock
                0x200000f0        0x4 C:\Users\Haris\AppData\Local\Temp\VMBuilds\Main_Siemens_Automation_824MSPe\haeger_haeger_samd_haeger_mcu2\Release/core.a(wiring.c.o)
                0x200000f0                SystemCoreClock
 .data.impure_data
                0x200000f4       0x60 c:/users/haris/appdata/local/arduino15/packages/arduino/tools/arm-none-eabi-gcc/4.8.3-2014q1/bin/../lib/gcc/arm-none-eabi/4.8.3/../../../../arm-none-eabi/lib/armv7e-m/fpu\libc_s.a(lib_a-impure.o)
 .data._impure_ptr
                0x20000154        0x4 c:/users/haris/appdata/local/arduino15/packages/arduino/tools/arm-none-eabi-gcc/4.8.3-2014q1/bin/../lib/gcc/arm-none-eabi/4.8.3/../../../../arm-none-eabi/lib/armv7e-m/fpu\libc_s.a(lib_a-impure.o)
                0x20000154                _impure_ptr
                0x20000158                . = ALIGN (0x4)
                0x20000158                PROVIDE (__preinit_array_start, .)
 *(.preinit_array)
                0x20000158                PROVIDE (__preinit_array_end, .)
                0x20000158                . = ALIGN (0x4)
                0x20000158                PROVIDE (__init_array_start, .)
 *(SORT(.init_array.*))
 *(.init_array)
 .init_array    0x20000158        0x4 c:/users/haris/appdata/local/arduino15/packages/arduino/tools/arm-none-eabi-gcc/4.8.3-2014q1/bin/../lib/gcc/arm-none-eabi/4.8.3/armv7e-m/fpu/crtbegin.o
 .init_array    0x2000015c        0x4 C:\Users\Haris\AppData\Local\Temp\VMBuilds\Main_Siemens_Automation_824MSPe\haeger_haeger_samd_haeger_mcu2\Release\Main_Siemens_Automation_824MSPe.cpp.o
 .init_array    0x20000160        0x4 C:\Users\Haris\AppData\Local\Temp\VMBuilds\Main_Siemens_Automation_824MSPe\haeger_haeger_samd_haeger_mcu2\Release\Wire\Wire.cpp.o
 .init_array    0x20000164        0x4 C:\Users\Haris\AppData\Local\Temp\VMBCore\visualmicro\ed00c25992609daaa7a7b547b702356d\variant\variant.cpp.o
 .init_array    0x20000168        0x4 C:\Users\Haris\AppData\Local\Temp\VMBuilds\Main_Siemens_Automation_824MSPe\haeger_haeger_samd_haeger_mcu2\Release/core.a(CDC.cpp.o)
 .init_array    0x2000016c        0x4 C:\Users\Haris\AppData\Local\Temp\VMBuilds\Main_Siemens_Automation_824MSPe\haeger_haeger_samd_haeger_mcu2\Release/core.a(USBCore.cpp.o)
                0x20000170                PROVIDE (__init_array_end, .)
                0x20000170                . = ALIGN (0x4)
                0x20000170                PROVIDE (__fini_array_start, .)
 *(SORT(.fini_array.*))
 *(.fini_array)
 .fini_array    0x20000170        0x4 c:/users/haris/appdata/local/arduino15/packages/arduino/tools/arm-none-eabi-gcc/4.8.3-2014q1/bin/../lib/gcc/arm-none-eabi/4.8.3/armv7e-m/fpu/crtbegin.o
                0x20000174                PROVIDE (__fini_array_end, .)
 *(.jcr*)
 .jcr           0x20000174        0x0 c:/users/haris/appdata/local/arduino15/packages/arduino/tools/arm-none-eabi-gcc/4.8.3-2014q1/bin/../lib/gcc/arm-none-eabi/4.8.3/armv7e-m/fpu/crtbegin.o
 .jcr           0x20000174        0x4 c:/users/haris/appdata/local/arduino15/packages/arduino/tools/arm-none-eabi-gcc/4.8.3-2014q1/bin/../lib/gcc/arm-none-eabi/4.8.3/armv7e-m/fpu/crtend.o
                0x20000180                . = ALIGN (0x10)
 *fill*         0x20000178        0x8 
                0x20000180                __data_end__ = .

.igot.plt       0x20000180        0x0 load address 0x0000a4b4
 .igot.plt      0x00000000        0x0 c:/users/haris/appdata/local/arduino15/packages/arduino/tools/arm-none-eabi-gcc/4.8.3-2014q1/bin/../lib/gcc/arm-none-eabi/4.8.3/armv7e-m/fpu/crtbegin.o

.bss            0x20000180      0xcf0 load address 0x0000a4b4
                0x20000180                . = ALIGN (0x4)
                0x20000180                __bss_start__ = .
 *(.bss*)
 .bss           0x20000180       0x1c c:/users/haris/appdata/local/arduino15/packages/arduino/tools/arm-none-eabi-gcc/4.8.3-2014q1/bin/../lib/gcc/arm-none-eabi/4.8.3/armv7e-m/fpu/crtbegin.o
 .bss.All_At_Position_MCU2
                0x2000019c        0x1 C:\Users\Haris\AppData\Local\Temp\VMBuilds\Main_Siemens_Automation_824MSPe\haeger_haeger_samd_haeger_mcu2\Release\Main_Siemens_Automation_824MSPe.cpp.o
                0x2000019c                All_At_Position_MCU2
 .bss.Error_Message
                0x2000019d        0x1 C:\Users\Haris\AppData\Local\Temp\VMBuilds\Main_Siemens_Automation_824MSPe\haeger_haeger_samd_haeger_mcu2\Release\Main_Siemens_Automation_824MSPe.cpp.o
                0x2000019d                Error_Message
 *fill*         0x2000019e        0x2 
 .bss.Fastener_Detection_Shuttle_Calibration_Pos_HMI
                0x200001a0        0x4 C:\Users\Haris\AppData\Local\Temp\VMBuilds\Main_Siemens_Automation_824MSPe\haeger_haeger_samd_haeger_mcu2\Release\Main_Siemens_Automation_824MSPe.cpp.o
                0x200001a0                Fastener_Detection_Shuttle_Calibration_Pos_HMI
 .bss.TOS_Position_HMI
                0x200001a4        0x4 C:\Users\Haris\AppData\Local\Temp\VMBuilds\Main_Siemens_Automation_824MSPe\haeger_haeger_samd_haeger_mcu2\Release\Main_Siemens_Automation_824MSPe.cpp.o
                0x200001a4                TOS_Position_HMI
 .bss.MAS_Vibration_Active
                0x200001a8        0x1 C:\Users\Haris\AppData\Local\Temp\VMBuilds\Main_Siemens_Automation_824MSPe\haeger_haeger_samd_haeger_mcu2\Release\Main_Siemens_Automation_824MSPe.cpp.o
                0x200001a8                MAS_Vibration_Active
 *fill*         0x200001a9        0x3 
 .bss.VAC       0x200001ac       0x38 C:\Users\Haris\AppData\Local\Temp\VMBuilds\Main_Siemens_Automation_824MSPe\haeger_haeger_samd_haeger_mcu2\Release\Main_Siemens_Automation_824MSPe.cpp.o
                0x200001ac                VAC
 .bss.MCU_Lower_Tool_Pin_Up_Output
                0x200001e4        0x1 C:\Users\Haris\AppData\Local\Temp\VMBuilds\Main_Siemens_Automation_824MSPe\haeger_haeger_samd_haeger_mcu2\Release\Main_Siemens_Automation_824MSPe.cpp.o
                0x200001e4                MCU_Lower_Tool_Pin_Up_Output
 .bss.Timer1_Q  0x200001e5        0x1 C:\Users\Haris\AppData\Local\Temp\VMBuilds\Main_Siemens_Automation_824MSPe\haeger_haeger_samd_haeger_mcu2\Release\Main_Siemens_Automation_824MSPe.cpp.o
                0x200001e5                Timer1_Q
 .bss.Non_Conductive_Stop2
                0x200001e6        0x1 C:\Users\Haris\AppData\Local\Temp\VMBuilds\Main_Siemens_Automation_824MSPe\haeger_haeger_samd_haeger_mcu2\Release\Main_Siemens_Automation_824MSPe.cpp.o
                0x200001e6                Non_Conductive_Stop2
 .bss.Vac_Without_Fastener_Down_Hold
                0x200001e7        0x1 C:\Users\Haris\AppData\Local\Temp\VMBuilds\Main_Siemens_Automation_824MSPe\haeger_haeger_samd_haeger_mcu2\Release\Main_Siemens_Automation_824MSPe.cpp.o
                0x200001e7                Vac_Without_Fastener_Down_Hold
 .bss.EMG_Error_Reset_Local
                0x200001e8        0x1 C:\Users\Haris\AppData\Local\Temp\VMBuilds\Main_Siemens_Automation_824MSPe\haeger_haeger_samd_haeger_mcu2\Release\Main_Siemens_Automation_824MSPe.cpp.o
                0x200001e8                EMG_Error_Reset_Local
 .bss.FD_Retry_Set
                0x200001e9        0x1 C:\Users\Haris\AppData\Local\Temp\VMBuilds\Main_Siemens_Automation_824MSPe\haeger_haeger_samd_haeger_mcu2\Release\Main_Siemens_Automation_824MSPe.cpp.o
                0x200001e9                FD_Retry_Set
 *fill*         0x200001ea        0x2 
 .bss.CET       0x200001ec       0x38 C:\Users\Haris\AppData\Local\Temp\VMBuilds\Main_Siemens_Automation_824MSPe\haeger_haeger_samd_haeger_mcu2\Release\Main_Siemens_Automation_824MSPe.cpp.o
                0x200001ec                CET
 .bss.Down_Solenoid_Block_MCU2
                0x20000224        0x1 C:\Users\Haris\AppData\Local\Temp\VMBuilds\Main_Siemens_Automation_824MSPe\haeger_haeger_samd_haeger_mcu2\Release\Main_Siemens_Automation_824MSPe.cpp.o
                0x20000224                Down_Solenoid_Block_MCU2
 *fill*         0x20000225        0x3 
 .bss.Write_Coil_40
                0x20000228        0x4 C:\Users\Haris\AppData\Local\Temp\VMBuilds\Main_Siemens_Automation_824MSPe\haeger_haeger_samd_haeger_mcu2\Release\Main_Siemens_Automation_824MSPe.cpp.o
                0x20000228                Write_Coil_40
 .bss.Dwell_Time_Active_MCU2
                0x2000022c        0x1 C:\Users\Haris\AppData\Local\Temp\VMBuilds\Main_Siemens_Automation_824MSPe\haeger_haeger_samd_haeger_mcu2\Release\Main_Siemens_Automation_824MSPe.cpp.o
                0x2000022c                Dwell_Time_Active_MCU2
 *fill*         0x2000022d        0x3 
 .bss.Up_Travel_HMI
                0x20000230        0x4 C:\Users\Haris\AppData\Local\Temp\VMBuilds\Main_Siemens_Automation_824MSPe\haeger_haeger_samd_haeger_mcu2\Release\Main_Siemens_Automation_824MSPe.cpp.o
                0x20000230                Up_Travel_HMI
 .bss.TPS_Calibrated_Upper_Value_HMI
                0x20000234        0x4 C:\Users\Haris\AppData\Local\Temp\VMBuilds\Main_Siemens_Automation_824MSPe\haeger_haeger_samd_haeger_mcu2\Release\Main_Siemens_Automation_824MSPe.cpp.o
                0x20000234                TPS_Calibrated_Upper_Value_HMI
 .bss.Fastener_Detection_Error
                0x20000238        0x1 C:\Users\Haris\AppData\Local\Temp\VMBuilds\Main_Siemens_Automation_824MSPe\haeger_haeger_samd_haeger_mcu2\Release\Main_Siemens_Automation_824MSPe.cpp.o
                0x20000238                Fastener_Detection_Error
 .bss.Fastener_Length_HMI
                0x20000239        0x1 C:\Users\Haris\AppData\Local\Temp\VMBuilds\Main_Siemens_Automation_824MSPe\haeger_haeger_samd_haeger_mcu2\Release\Main_Siemens_Automation_824MSPe.cpp.o
                0x20000239                Fastener_Length_HMI
 *fill*         0x2000023a        0x2 
 .bss.Write_Coil_48
                0x2000023c        0x4 C:\Users\Haris\AppData\Local\Temp\VMBuilds\Main_Siemens_Automation_824MSPe\haeger_haeger_samd_haeger_mcu2\Release\Main_Siemens_Automation_824MSPe.cpp.o
                0x2000023c                Write_Coil_48
 .bss.Write_Coil_49
                0x20000240        0x1 C:\Users\Haris\AppData\Local\Temp\VMBuilds\Main_Siemens_Automation_824MSPe\haeger_haeger_samd_haeger_mcu2\Release\Main_Siemens_Automation_824MSPe.cpp.o
                0x20000240                Write_Coil_49
 .bss.Setup_Stroke_TPS
                0x20000241        0x1 C:\Users\Haris\AppData\Local\Temp\VMBuilds\Main_Siemens_Automation_824MSPe\haeger_haeger_samd_haeger_mcu2\Release\Main_Siemens_Automation_824MSPe.cpp.o
                0x20000241                Setup_Stroke_TPS
 *fill*         0x20000242        0x2 
 .bss.MAS_Vibration_Percentage_HMI
                0x20000244        0x4 C:\Users\Haris\AppData\Local\Temp\VMBuilds\Main_Siemens_Automation_824MSPe\haeger_haeger_samd_haeger_mcu2\Release\Main_Siemens_Automation_824MSPe.cpp.o
                0x20000244                MAS_Vibration_Percentage_HMI
 .bss.MAS_Blow_Off_Active
                0x20000248        0x1 C:\Users\Haris\AppData\Local\Temp\VMBuilds\Main_Siemens_Automation_824MSPe\haeger_haeger_samd_haeger_mcu2\Release\Main_Siemens_Automation_824MSPe.cpp.o
                0x20000248                MAS_Blow_Off_Active
 .bss.EMG_Error_Reset_MCU2
                0x20000249        0x1 C:\Users\Haris\AppData\Local\Temp\VMBuilds\Main_Siemens_Automation_824MSPe\haeger_haeger_samd_haeger_mcu2\Release\Main_Siemens_Automation_824MSPe.cpp.o
                0x20000249                EMG_Error_Reset_MCU2
 .bss.Shuttle_Extend_Check_Global
                0x2000024a        0x1 C:\Users\Haris\AppData\Local\Temp\VMBuilds\Main_Siemens_Automation_824MSPe\haeger_haeger_samd_haeger_mcu2\Release\Main_Siemens_Automation_824MSPe.cpp.o
                0x2000024a                Shuttle_Extend_Check_Global
 .bss.Non_Conductive_Stop1
                0x2000024b        0x1 C:\Users\Haris\AppData\Local\Temp\VMBuilds\Main_Siemens_Automation_824MSPe\haeger_haeger_samd_haeger_mcu2\Release\Main_Siemens_Automation_824MSPe.cpp.o
                0x2000024b                Non_Conductive_Stop1
 .bss.MAS_Vibration_Time_HMI
                0x2000024c        0x4 C:\Users\Haris\AppData\Local\Temp\VMBuilds\Main_Siemens_Automation_824MSPe\haeger_haeger_samd_haeger_mcu2\Release\Main_Siemens_Automation_824MSPe.cpp.o
                0x2000024c                MAS_Vibration_Time_HMI
 .bss.Robot_Press_Signal_Active
                0x20000250        0x1 C:\Users\Haris\AppData\Local\Temp\VMBuilds\Main_Siemens_Automation_824MSPe\haeger_haeger_samd_haeger_mcu2\Release\Main_Siemens_Automation_824MSPe.cpp.o
                0x20000250                Robot_Press_Signal_Active
 .bss.Fastener_Length_Error
                0x20000251        0x1 C:\Users\Haris\AppData\Local\Temp\VMBuilds\Main_Siemens_Automation_824MSPe\haeger_haeger_samd_haeger_mcu2\Release\Main_Siemens_Automation_824MSPe.cpp.o
                0x20000251                Fastener_Length_Error
 .bss.Safety_Sensor_Error
                0x20000252        0x1 C:\Users\Haris\AppData\Local\Temp\VMBuilds\Main_Siemens_Automation_824MSPe\haeger_haeger_samd_haeger_mcu2\Release\Main_Siemens_Automation_824MSPe.cpp.o
                0x20000252                Safety_Sensor_Error
 .bss.Up_Signal_MCU2
                0x20000253        0x1 C:\Users\Haris\AppData\Local\Temp\VMBuilds\Main_Siemens_Automation_824MSPe\haeger_haeger_samd_haeger_mcu2\Release\Main_Siemens_Automation_824MSPe.cpp.o
                0x20000253                Up_Signal_MCU2
 .bss.Fastener_Detection_HMI
                0x20000254        0x1 C:\Users\Haris\AppData\Local\Temp\VMBuilds\Main_Siemens_Automation_824MSPe\haeger_haeger_samd_haeger_mcu2\Release\Main_Siemens_Automation_824MSPe.cpp.o
                0x20000254                Fastener_Detection_HMI
 .bss.Toolingcontact_Switched_State
                0x20000255        0x1 C:\Users\Haris\AppData\Local\Temp\VMBuilds\Main_Siemens_Automation_824MSPe\haeger_haeger_samd_haeger_mcu2\Release\Main_Siemens_Automation_824MSPe.cpp.o
                0x20000255                Toolingcontact_Switched_State
 *fill*         0x20000256        0x2 
 .bss.Read_Coil_34
                0x20000258        0x4 C:\Users\Haris\AppData\Local\Temp\VMBuilds\Main_Siemens_Automation_824MSPe\haeger_haeger_samd_haeger_mcu2\Release\Main_Siemens_Automation_824MSPe.cpp.o
                0x20000258                Read_Coil_34
 .bss.Vacuum_Detection_Measurement_Active
                0x2000025c        0x1 C:\Users\Haris\AppData\Local\Temp\VMBuilds\Main_Siemens_Automation_824MSPe\haeger_haeger_samd_haeger_mcu2\Release\Main_Siemens_Automation_824MSPe.cpp.o
                0x2000025c                Vacuum_Detection_Measurement_Active
 *fill*         0x2000025d        0x3 
 .bss.Read_Coil_38
                0x20000260        0x4 C:\Users\Haris\AppData\Local\Temp\VMBuilds\Main_Siemens_Automation_824MSPe\haeger_haeger_samd_haeger_mcu2\Release\Main_Siemens_Automation_824MSPe.cpp.o
                0x20000260                Read_Coil_38
 .bss.TPS_Calibrated_Lower_Value_HMI
                0x20000264        0x4 C:\Users\Haris\AppData\Local\Temp\VMBuilds\Main_Siemens_Automation_824MSPe\haeger_haeger_samd_haeger_mcu2\Release\Main_Siemens_Automation_824MSPe.cpp.o
                0x20000264                TPS_Calibrated_Lower_Value_HMI
 .bss.TPS_Error
                0x20000268        0x1 C:\Users\Haris\AppData\Local\Temp\VMBuilds\Main_Siemens_Automation_824MSPe\haeger_haeger_samd_haeger_mcu2\Release\Main_Siemens_Automation_824MSPe.cpp.o
                0x20000268                TPS_Error
 *fill*         0x20000269        0x3 
 .bss.Fastener_Detection_Shuttle_Offset_Pos_HMI
                0x2000026c        0x4 C:\Users\Haris\AppData\Local\Temp\VMBuilds\Main_Siemens_Automation_824MSPe\haeger_haeger_samd_haeger_mcu2\Release\Main_Siemens_Automation_824MSPe.cpp.o
                0x2000026c                Fastener_Detection_Shuttle_Offset_Pos_HMI
 .bss.MCU2_Version_Number
                0x20000270        0x4 C:\Users\Haris\AppData\Local\Temp\VMBuilds\Main_Siemens_Automation_824MSPe\haeger_haeger_samd_haeger_mcu2\Release\Main_Siemens_Automation_824MSPe.cpp.o
                0x20000270                MCU2_Version_Number
 .bss.MAS_Blow_Off_Time_HMI
                0x20000274        0x4 C:\Users\Haris\AppData\Local\Temp\VMBuilds\Main_Siemens_Automation_824MSPe\haeger_haeger_samd_haeger_mcu2\Release\Main_Siemens_Automation_824MSPe.cpp.o
                0x20000274                MAS_Blow_Off_Time_HMI
 .bss.Error_Number_HMI
                0x20000278        0x4 C:\Users\Haris\AppData\Local\Temp\VMBuilds\Main_Siemens_Automation_824MSPe\haeger_haeger_samd_haeger_mcu2\Release\Main_Siemens_Automation_824MSPe.cpp.o
                0x20000278                Error_Number_HMI
 .bss.EMG_System_Active_HMI
                0x2000027c        0x1 C:\Users\Haris\AppData\Local\Temp\VMBuilds\Main_Siemens_Automation_824MSPe\haeger_haeger_samd_haeger_mcu2\Release\Main_Siemens_Automation_824MSPe.cpp.o
                0x2000027c                EMG_System_Active_HMI
 *fill*         0x2000027d        0x3 
 .bss.Dwell_Time_HMI
                0x20000280        0x4 C:\Users\Haris\AppData\Local\Temp\VMBuilds\Main_Siemens_Automation_824MSPe\haeger_haeger_samd_haeger_mcu2\Release\Main_Siemens_Automation_824MSPe.cpp.o
                0x20000280                Dwell_Time_HMI
 .bss.Read_Coil_73
                0x20000284        0x4 C:\Users\Haris\AppData\Local\Temp\VMBuilds\Main_Siemens_Automation_824MSPe\haeger_haeger_samd_haeger_mcu2\Release\Main_Siemens_Automation_824MSPe.cpp.o
                0x20000284                Read_Coil_73
 .bss.Shuttle_Extend_Error
                0x20000288        0x1 C:\Users\Haris\AppData\Local\Temp\VMBuilds\Main_Siemens_Automation_824MSPe\haeger_haeger_samd_haeger_mcu2\Release\Main_Siemens_Automation_824MSPe.cpp.o
                0x20000288                Shuttle_Extend_Error
 .bss.Hyd_Cyl_Up_Release_Active
                0x20000289        0x1 C:\Users\Haris\AppData\Local\Temp\VMBuilds\Main_Siemens_Automation_824MSPe\haeger_haeger_samd_haeger_mcu2\Release\Main_Siemens_Automation_824MSPe.cpp.o
                0x20000289                Hyd_Cyl_Up_Release_Active
 .bss.Machine_Run_State
                0x2000028a        0x1 C:\Users\Haris\AppData\Local\Temp\VMBuilds\Main_Siemens_Automation_824MSPe\haeger_haeger_samd_haeger_mcu2\Release\Main_Siemens_Automation_824MSPe.cpp.o
                0x2000028a                Machine_Run_State
 *fill*         0x2000028b        0x1 
 .bss.TPS_Offset_Value_HMI
                0x2000028c        0x4 C:\Users\Haris\AppData\Local\Temp\VMBuilds\Main_Siemens_Automation_824MSPe\haeger_haeger_samd_haeger_mcu2\Release\Main_Siemens_Automation_824MSPe.cpp.o
                0x2000028c                TPS_Offset_Value_HMI
 .bss.Analog_PRESSURESWITCH
                0x20000290        0x4 C:\Users\Haris\AppData\Local\Temp\VMBuilds\Main_Siemens_Automation_824MSPe\haeger_haeger_samd_haeger_mcu2\Release\Main_Siemens_Automation_824MSPe.cpp.o
                0x20000290                Analog_PRESSURESWITCH
 .bss.Fastener_Detection_Sensitivity_HMI
                0x20000294        0x4 C:\Users\Haris\AppData\Local\Temp\VMBuilds\Main_Siemens_Automation_824MSPe\haeger_haeger_samd_haeger_mcu2\Release\Main_Siemens_Automation_824MSPe.cpp.o
                0x20000294                Fastener_Detection_Sensitivity_HMI
 .bss.Vac_With_Fastener_Down_Hold
                0x20000298        0x1 C:\Users\Haris\AppData\Local\Temp\VMBuilds\Main_Siemens_Automation_824MSPe\haeger_haeger_samd_haeger_mcu2\Release\Main_Siemens_Automation_824MSPe.cpp.o
                0x20000298                Vac_With_Fastener_Down_Hold
 .bss.All_At_Position
                0x20000299        0x1 C:\Users\Haris\AppData\Local\Temp\VMBuilds\Main_Siemens_Automation_824MSPe\haeger_haeger_samd_haeger_mcu2\Release\Main_Siemens_Automation_824MSPe.cpp.o
                0x20000299                All_At_Position
 .bss.Timer1_Start
                0x2000029a        0x1 C:\Users\Haris\AppData\Local\Temp\VMBuilds\Main_Siemens_Automation_824MSPe\haeger_haeger_samd_haeger_mcu2\Release\Main_Siemens_Automation_824MSPe.cpp.o
                0x2000029a                Timer1_Start
 .bss.Robot_Error_Reset_Input
                0x2000029b        0x1 C:\Users\Haris\AppData\Local\Temp\VMBuilds\Main_Siemens_Automation_824MSPe\haeger_haeger_samd_haeger_mcu2\Release\Main_Siemens_Automation_824MSPe.cpp.o
                0x2000029b                Robot_Error_Reset_Input
 .bss.Robot_Shuttle_Lock
                0x2000029c        0x1 C:\Users\Haris\AppData\Local\Temp\VMBuilds\Main_Siemens_Automation_824MSPe\haeger_haeger_samd_haeger_mcu2\Release\Main_Siemens_Automation_824MSPe.cpp.o
                0x2000029c                Robot_Shuttle_Lock
 .bss.Machine_State_Robot_Mode_Active
                0x2000029d        0x1 C:\Users\Haris\AppData\Local\Temp\VMBuilds\Main_Siemens_Automation_824MSPe\haeger_haeger_samd_haeger_mcu2\Release\Main_Siemens_Automation_824MSPe.cpp.o
                0x2000029d                Machine_State_Robot_Mode_Active
 .bss.EMG_System_Active_MCU2
                0x2000029e        0x1 C:\Users\Haris\AppData\Local\Temp\VMBuilds\Main_Siemens_Automation_824MSPe\haeger_haeger_samd_haeger_mcu2\Release\Main_Siemens_Automation_824MSPe.cpp.o
                0x2000029e                EMG_System_Active_MCU2
 .bss.Robot_Mode_Active_MCU2
                0x2000029f        0x1 C:\Users\Haris\AppData\Local\Temp\VMBuilds\Main_Siemens_Automation_824MSPe\haeger_haeger_samd_haeger_mcu2\Release\Main_Siemens_Automation_824MSPe.cpp.o
                0x2000029f                Robot_Mode_Active_MCU2
 .bss.Machine_Init_State
                0x200002a0        0x1 C:\Users\Haris\AppData\Local\Temp\VMBuilds\Main_Siemens_Automation_824MSPe\haeger_haeger_samd_haeger_mcu2\Release\Main_Siemens_Automation_824MSPe.cpp.o
                0x200002a0                Machine_Init_State
 *fill*         0x200002a1        0x3 
 .bss.Analog_VAC
                0x200002a4        0x4 C:\Users\Haris\AppData\Local\Temp\VMBuilds\Main_Siemens_Automation_824MSPe\haeger_haeger_samd_haeger_mcu2\Release\Main_Siemens_Automation_824MSPe.cpp.o
                0x200002a4                Analog_VAC
 .bss.WireStart
                0x200002a8        0x4 C:\Users\Haris\AppData\Local\Temp\VMBuilds\Main_Siemens_Automation_824MSPe\haeger_haeger_samd_haeger_mcu2\Release\Main_Siemens_Automation_824MSPe.cpp.o
                0x200002a8                WireStart
 .bss.TPS_Set_HMI
                0x200002ac        0x1 C:\Users\Haris\AppData\Local\Temp\VMBuilds\Main_Siemens_Automation_824MSPe\haeger_haeger_samd_haeger_mcu2\Release\Main_Siemens_Automation_824MSPe.cpp.o
                0x200002ac                TPS_Set_HMI
 .bss.Wirecase  0x200002ad        0x1 C:\Users\Haris\AppData\Local\Temp\VMBuilds\Main_Siemens_Automation_824MSPe\haeger_haeger_samd_haeger_mcu2\Release\Main_Siemens_Automation_824MSPe.cpp.o
                0x200002ad                Wirecase
 .bss.Dwell_Time_Active
                0x200002ae        0x1 C:\Users\Haris\AppData\Local\Temp\VMBuilds\Main_Siemens_Automation_824MSPe\haeger_haeger_samd_haeger_mcu2\Release\Main_Siemens_Automation_824MSPe.cpp.o
                0x200002ae                Dwell_Time_Active
 .bss.Error_Set_HMI
                0x200002af        0x1 C:\Users\Haris\AppData\Local\Temp\VMBuilds\Main_Siemens_Automation_824MSPe\haeger_haeger_samd_haeger_mcu2\Release\Main_Siemens_Automation_824MSPe.cpp.o
                0x200002af                Error_Set_HMI
 .bss.FL_Setup_Stroke_Reset
                0x200002b0        0x1 C:\Users\Haris\AppData\Local\Temp\VMBuilds\Main_Siemens_Automation_824MSPe\haeger_haeger_samd_haeger_mcu2\Release\Main_Siemens_Automation_824MSPe.cpp.o
                0x200002b0                FL_Setup_Stroke_Reset
 *fill*         0x200002b1        0x3 
 .bss.Read_Coil_40
                0x200002b4        0x4 C:\Users\Haris\AppData\Local\Temp\VMBuilds\Main_Siemens_Automation_824MSPe\haeger_haeger_samd_haeger_mcu2\Release\Main_Siemens_Automation_824MSPe.cpp.o
                0x200002b4                Read_Coil_40
 .bss.Send_to_MCU1_Standard_Machine_Control_0
                0x200002b8        0x1 C:\Users\Haris\AppData\Local\Temp\VMBuilds\Main_Siemens_Automation_824MSPe\haeger_haeger_samd_haeger_mcu2\Release\Main_Siemens_Automation_824MSPe.cpp.o
                0x200002b8                Send_to_MCU1_Standard_Machine_Control_0
 .bss.Send_to_MCU1_Standard_Machine_Control_1
                0x200002b9        0x1 C:\Users\Haris\AppData\Local\Temp\VMBuilds\Main_Siemens_Automation_824MSPe\haeger_haeger_samd_haeger_mcu2\Release\Main_Siemens_Automation_824MSPe.cpp.o
                0x200002b9                Send_to_MCU1_Standard_Machine_Control_1
 *fill*         0x200002ba        0x2 
 .bss.Tooling_Mode_HMI
                0x200002bc        0x4 C:\Users\Haris\AppData\Local\Temp\VMBuilds\Main_Siemens_Automation_824MSPe\haeger_haeger_samd_haeger_mcu2\Release\Main_Siemens_Automation_824MSPe.cpp.o
                0x200002bc                Tooling_Mode_HMI
 .bss.Read_Coil_48
                0x200002c0        0x4 C:\Users\Haris\AppData\Local\Temp\VMBuilds\Main_Siemens_Automation_824MSPe\haeger_haeger_samd_haeger_mcu2\Release\Main_Siemens_Automation_824MSPe.cpp.o
                0x200002c0                Read_Coil_48
 .bss.Read_Coil_49
                0x200002c4        0x1 C:\Users\Haris\AppData\Local\Temp\VMBuilds\Main_Siemens_Automation_824MSPe\haeger_haeger_samd_haeger_mcu2\Release\Main_Siemens_Automation_824MSPe.cpp.o
                0x200002c4                Read_Coil_49
 .bss.Setup_Stroke_MCU2
                0x200002c5        0x1 C:\Users\Haris\AppData\Local\Temp\VMBuilds\Main_Siemens_Automation_824MSPe\haeger_haeger_samd_haeger_mcu2\Release\Main_Siemens_Automation_824MSPe.cpp.o
                0x200002c5                Setup_Stroke_MCU2
 .bss.Shuttle_Extend_MCU2
                0x200002c6        0x1 C:\Users\Haris\AppData\Local\Temp\VMBuilds\Main_Siemens_Automation_824MSPe\haeger_haeger_samd_haeger_mcu2\Release\Main_Siemens_Automation_824MSPe.cpp.o
                0x200002c6                Shuttle_Extend_MCU2
 .bss.Lower_Tool_Pin_Up_Sensor
                0x200002c7        0x1 C:\Users\Haris\AppData\Local\Temp\VMBuilds\Main_Siemens_Automation_824MSPe\haeger_haeger_samd_haeger_mcu2\Release\Main_Siemens_Automation_824MSPe.cpp.o
                0x200002c7                Lower_Tool_Pin_Up_Sensor
 .bss.Lower_Tool_Pin_Down_Sensor
                0x200002c8        0x1 C:\Users\Haris\AppData\Local\Temp\VMBuilds\Main_Siemens_Automation_824MSPe\haeger_haeger_samd_haeger_mcu2\Release\Main_Siemens_Automation_824MSPe.cpp.o
                0x200002c8                Lower_Tool_Pin_Down_Sensor
 .bss.Shuttle_Retract_Error
                0x200002c9        0x1 C:\Users\Haris\AppData\Local\Temp\VMBuilds\Main_Siemens_Automation_824MSPe\haeger_haeger_samd_haeger_mcu2\Release\Main_Siemens_Automation_824MSPe.cpp.o
                0x200002c9                Shuttle_Retract_Error
 .bss.Lower_Tool_Pin_Up_Sensor_MCU2
                0x200002ca        0x1 C:\Users\Haris\AppData\Local\Temp\VMBuilds\Main_Siemens_Automation_824MSPe\haeger_haeger_samd_haeger_mcu2\Release\Main_Siemens_Automation_824MSPe.cpp.o
                0x200002ca                Lower_Tool_Pin_Up_Sensor_MCU2
 *fill*         0x200002cb        0x1 
 .bss.device    0x200002cc       0x64 C:\Users\Haris\AppData\Local\Temp\VMBuilds\Main_Siemens_Automation_824MSPe\haeger_haeger_samd_haeger_mcu2\Release\Main_Siemens_Automation_824MSPe.cpp.o
                0x200002cc                device
 .bss.Robot_Error_Reset_MCU2
                0x20000330        0x1 C:\Users\Haris\AppData\Local\Temp\VMBuilds\Main_Siemens_Automation_824MSPe\haeger_haeger_samd_haeger_mcu2\Release\Main_Siemens_Automation_824MSPe.cpp.o
                0x20000330                Robot_Error_Reset_MCU2
 *fill*         0x20000331        0x3 
 .bss.Fastener_Detection_Retry_HMI
                0x20000334        0x4 C:\Users\Haris\AppData\Local\Temp\VMBuilds\Main_Siemens_Automation_824MSPe\haeger_haeger_samd_haeger_mcu2\Release\Main_Siemens_Automation_824MSPe.cpp.o
                0x20000334                Fastener_Detection_Retry_HMI
 .bss.mySerial  0x20000338        0x8 C:\Users\Haris\AppData\Local\Temp\VMBuilds\Main_Siemens_Automation_824MSPe\haeger_haeger_samd_haeger_mcu2\Release\Main_Siemens_Automation_824MSPe.cpp.o
                0x20000338                mySerial
 .bss.Fastener_Length_Sensitifity_HMI
                0x20000340        0x4 C:\Users\Haris\AppData\Local\Temp\VMBuilds\Main_Siemens_Automation_824MSPe\haeger_haeger_samd_haeger_mcu2\Release\Main_Siemens_Automation_824MSPe.cpp.o
                0x20000340                Fastener_Length_Sensitifity_HMI
 .bss.Fastener_Detection_Zone
                0x20000344        0x4 C:\Users\Haris\AppData\Local\Temp\VMBuilds\Main_Siemens_Automation_824MSPe\haeger_haeger_samd_haeger_mcu2\Release\Main_Siemens_Automation_824MSPe.cpp.o
                0x20000344                Fastener_Detection_Zone
 .bss.Setup_Stroke_HMI
                0x20000348        0x1 C:\Users\Haris\AppData\Local\Temp\VMBuilds\Main_Siemens_Automation_824MSPe\haeger_haeger_samd_haeger_mcu2\Release\Main_Siemens_Automation_824MSPe.cpp.o
                0x20000348                Setup_Stroke_HMI
 *fill*         0x20000349        0x3 
 .bss.Fastener_Detection_Baseline_HMI
                0x2000034c        0x4 C:\Users\Haris\AppData\Local\Temp\VMBuilds\Main_Siemens_Automation_824MSPe\haeger_haeger_samd_haeger_mcu2\Release\Main_Siemens_Automation_824MSPe.cpp.o
                0x2000034c                Fastener_Detection_Baseline_HMI
 .bss.PRESSUREWITCH
                0x20000350       0x38 C:\Users\Haris\AppData\Local\Temp\VMBuilds\Main_Siemens_Automation_824MSPe\haeger_haeger_samd_haeger_mcu2\Release\Main_Siemens_Automation_824MSPe.cpp.o
                0x20000350                PRESSUREWITCH
 .bss.FLD_Measurment_Active
                0x20000388        0x1 C:\Users\Haris\AppData\Local\Temp\VMBuilds\Main_Siemens_Automation_824MSPe\haeger_haeger_samd_haeger_mcu2\Release\Main_Siemens_Automation_824MSPe.cpp.o
                0x20000388                FLD_Measurment_Active
 .bss.Hyd_Cyl_Down_Release_Active
                0x20000389        0x1 C:\Users\Haris\AppData\Local\Temp\VMBuilds\Main_Siemens_Automation_824MSPe\haeger_haeger_samd_haeger_mcu2\Release\Main_Siemens_Automation_824MSPe.cpp.o
                0x20000389                Hyd_Cyl_Down_Release_Active
 .bss.Press_Complete
                0x2000038a        0x1 C:\Users\Haris\AppData\Local\Temp\VMBuilds\Main_Siemens_Automation_824MSPe\haeger_haeger_samd_haeger_mcu2\Release\Main_Siemens_Automation_824MSPe.cpp.o
                0x2000038a                Press_Complete
 *fill*         0x2000038b        0x1 
 .bss.Vacuum_Mode_HMI
                0x2000038c        0x4 C:\Users\Haris\AppData\Local\Temp\VMBuilds\Main_Siemens_Automation_824MSPe\haeger_haeger_samd_haeger_mcu2\Release\Main_Siemens_Automation_824MSPe.cpp.o
                0x2000038c                Vacuum_Mode_HMI
 .bss.MAS_Vibrate_Mode_HMI
                0x20000390        0x1 C:\Users\Haris\AppData\Local\Temp\VMBuilds\Main_Siemens_Automation_824MSPe\haeger_haeger_samd_haeger_mcu2\Release\Main_Siemens_Automation_824MSPe.cpp.o
                0x20000390                MAS_Vibrate_Mode_HMI
 .bss.Hyd_Cyl_Dow_Release_Active_1
                0x20000391        0x1 C:\Users\Haris\AppData\Local\Temp\VMBuilds\Main_Siemens_Automation_824MSPe\haeger_haeger_samd_haeger_mcu2\Release\Main_Siemens_Automation_824MSPe.cpp.o
                0x20000391                Hyd_Cyl_Dow_Release_Active_1
 .bss.Shuttle_Retract_MCU2
                0x20000392        0x1 C:\Users\Haris\AppData\Local\Temp\VMBuilds\Main_Siemens_Automation_824MSPe\haeger_haeger_samd_haeger_mcu2\Release\Main_Siemens_Automation_824MSPe.cpp.o
                0x20000392                Shuttle_Retract_MCU2
 .bss.MCU_Lower_Tool_Pin_Down_Output
                0x20000393        0x1 C:\Users\Haris\AppData\Local\Temp\VMBuilds\Main_Siemens_Automation_824MSPe\haeger_haeger_samd_haeger_mcu2\Release\Main_Siemens_Automation_824MSPe.cpp.o
                0x20000393                MCU_Lower_Tool_Pin_Down_Output
 .bss.tempus    0x20000394        0x4 C:\Users\Haris\AppData\Local\Temp\VMBuilds\Main_Siemens_Automation_824MSPe\haeger_haeger_samd_haeger_mcu2\Release\Main_Siemens_Automation_824MSPe.cpp.o
                0x20000394                tempus
 .bss.MAS_Delay_Time_HMI
                0x20000398        0x4 C:\Users\Haris\AppData\Local\Temp\VMBuilds\Main_Siemens_Automation_824MSPe\haeger_haeger_samd_haeger_mcu2\Release\Main_Siemens_Automation_824MSPe.cpp.o
                0x20000398                MAS_Delay_Time_HMI
 .bss.Press_Complete_Active
                0x2000039c        0x1 C:\Users\Haris\AppData\Local\Temp\VMBuilds\Main_Siemens_Automation_824MSPe\haeger_haeger_samd_haeger_mcu2\Release\Main_Siemens_Automation_824MSPe.cpp.o
                0x2000039c                Press_Complete_Active
 *fill*         0x2000039d        0x3 
 .bss.TOS       0x200003a0        0x4 C:\Users\Haris\AppData\Local\Temp\VMBuilds\Main_Siemens_Automation_824MSPe\haeger_haeger_samd_haeger_mcu2\Release\Main_Siemens_Automation_824MSPe.cpp.o
                0x200003a0                TOS
 .bss.MAS_Feed_HMI
                0x200003a4        0x1 C:\Users\Haris\AppData\Local\Temp\VMBuilds\Main_Siemens_Automation_824MSPe\haeger_haeger_samd_haeger_mcu2\Release\Main_Siemens_Automation_824MSPe.cpp.o
                0x200003a4                MAS_Feed_HMI
 *fill*         0x200003a5        0x3 
 .bss.MAS_Eject_Time_HMI
                0x200003a8        0x4 C:\Users\Haris\AppData\Local\Temp\VMBuilds\Main_Siemens_Automation_824MSPe\haeger_haeger_samd_haeger_mcu2\Release\Main_Siemens_Automation_824MSPe.cpp.o
                0x200003a8                MAS_Eject_Time_HMI
 .bss.MAS_Feed_Fastener_Active
                0x200003ac        0x1 C:\Users\Haris\AppData\Local\Temp\VMBuilds\Main_Siemens_Automation_824MSPe\haeger_haeger_samd_haeger_mcu2\Release\Main_Siemens_Automation_824MSPe.cpp.o
                0x200003ac                MAS_Feed_Fastener_Active
 *fill*         0x200003ad        0x3 
 .bss.Error_Screen_Active_HMI
                0x200003b0        0x4 C:\Users\Haris\AppData\Local\Temp\VMBuilds\Main_Siemens_Automation_824MSPe\haeger_haeger_samd_haeger_mcu2\Release\Main_Siemens_Automation_824MSPe.cpp.o
                0x200003b0                Error_Screen_Active_HMI
 .bss.Analog_CET
                0x200003b4        0x4 C:\Users\Haris\AppData\Local\Temp\VMBuilds\Main_Siemens_Automation_824MSPe\haeger_haeger_samd_haeger_mcu2\Release\Main_Siemens_Automation_824MSPe.cpp.o
                0x200003b4                Analog_CET
 .bss.Fastener_Length_Calibrated_Value_HMI
                0x200003b8        0x4 C:\Users\Haris\AppData\Local\Temp\VMBuilds\Main_Siemens_Automation_824MSPe\haeger_haeger_samd_haeger_mcu2\Release\Main_Siemens_Automation_824MSPe.cpp.o
                0x200003b8                Fastener_Length_Calibrated_Value_HMI
 .bss.state     0x200003bc        0x1 C:\Users\Haris\AppData\Local\Temp\VMBuilds\Main_Siemens_Automation_824MSPe\haeger_haeger_samd_haeger_mcu2\Release\Main_Siemens_Automation_824MSPe.cpp.o
                0x200003bc                state
 *fill*         0x200003bd        0x3 
 .bss.Write_Coil_34
                0x200003c0        0x4 C:\Users\Haris\AppData\Local\Temp\VMBuilds\Main_Siemens_Automation_824MSPe\haeger_haeger_samd_haeger_mcu2\Release\Main_Siemens_Automation_824MSPe.cpp.o
                0x200003c0                Write_Coil_34
 .bss.Machine_Idle_State
                0x200003c4        0x1 C:\Users\Haris\AppData\Local\Temp\VMBuilds\Main_Siemens_Automation_824MSPe\haeger_haeger_samd_haeger_mcu2\Release\Main_Siemens_Automation_824MSPe.cpp.o
                0x200003c4                Machine_Idle_State
 *fill*         0x200003c5        0x3 
 .bss.Write_Coil_38
                0x200003c8        0x4 C:\Users\Haris\AppData\Local\Temp\VMBuilds\Main_Siemens_Automation_824MSPe\haeger_haeger_samd_haeger_mcu2\Release\Main_Siemens_Automation_824MSPe.cpp.o
                0x200003c8                Write_Coil_38
 .bss.Robot_Shuttle_Lock_MCU2
                0x200003cc        0x1 C:\Users\Haris\AppData\Local\Temp\VMBuilds\Main_Siemens_Automation_824MSPe\haeger_haeger_samd_haeger_mcu2\Release\Main_Siemens_Automation_824MSPe.cpp.o
                0x200003cc                Robot_Shuttle_Lock_MCU2
 .bss.SSSF_Safety_Sensor_Error
                0x200003cd        0x1 C:\Users\Haris\AppData\Local\Temp\VMBuilds\Main_Siemens_Automation_824MSPe\haeger_haeger_samd_haeger_mcu2\Release\Main_Siemens_Automation_824MSPe.cpp.o
                0x200003cd                SSSF_Safety_Sensor_Error
 .bss.Robot_Press_Active_MCU2
                0x200003ce        0x1 C:\Users\Haris\AppData\Local\Temp\VMBuilds\Main_Siemens_Automation_824MSPe\haeger_haeger_samd_haeger_mcu2\Release\Main_Siemens_Automation_824MSPe.cpp.o
                0x200003ce                Robot_Press_Active_MCU2
 *fill*         0x200003cf        0x1 
 .bss.Write_Coil_73
                0x200003d0        0x4 C:\Users\Haris\AppData\Local\Temp\VMBuilds\Main_Siemens_Automation_824MSPe\haeger_haeger_samd_haeger_mcu2\Release\Main_Siemens_Automation_824MSPe.cpp.o
                0x200003d0                Write_Coil_73
 .bss.Robot_Feed_Fastener_MCU2
                0x200003d4        0x1 C:\Users\Haris\AppData\Local\Temp\VMBuilds\Main_Siemens_Automation_824MSPe\haeger_haeger_samd_haeger_mcu2\Release\Main_Siemens_Automation_824MSPe.cpp.o
                0x200003d4                Robot_Feed_Fastener_MCU2
 .bss.Receive_from_MCU1_Standard_Machine_Control_0
                0x200003d5        0x1 C:\Users\Haris\AppData\Local\Temp\VMBuilds\Main_Siemens_Automation_824MSPe\haeger_haeger_samd_haeger_mcu2\Release\Main_Siemens_Automation_824MSPe.cpp.o
                0x200003d5                Receive_from_MCU1_Standard_Machine_Control_0
 .bss.Receive_from_MCU1_Standard_Machine_Control_1
                0x200003d6        0x1 C:\Users\Haris\AppData\Local\Temp\VMBuilds\Main_Siemens_Automation_824MSPe\haeger_haeger_samd_haeger_mcu2\Release\Main_Siemens_Automation_824MSPe.cpp.o
                0x200003d6                Receive_from_MCU1_Standard_Machine_Control_1
 .bss.ConductiveM_HMI
                0x200003d7        0x1 C:\Users\Haris\AppData\Local\Temp\VMBuilds\Main_Siemens_Automation_824MSPe\haeger_haeger_samd_haeger_mcu2\Release\Main_Siemens_Automation_824MSPe.cpp.o
                0x200003d7                ConductiveM_HMI
 .bss.Lower_Tool_Pin_Down_Sensor_MCU2
                0x200003d8        0x1 C:\Users\Haris\AppData\Local\Temp\VMBuilds\Main_Siemens_Automation_824MSPe\haeger_haeger_samd_haeger_mcu2\Release\Main_Siemens_Automation_824MSPe.cpp.o
                0x200003d8                Lower_Tool_Pin_Down_Sensor_MCU2
 .bss.Up_Travel_Cylinder_Stop
                0x200003d9        0x1 C:\Users\Haris\AppData\Local\Temp\VMBuilds\Main_Siemens_Automation_824MSPe\haeger_haeger_samd_haeger_mcu2\Release\Main_Siemens_Automation_824MSPe.cpp.o
                0x200003d9                Up_Travel_Cylinder_Stop
 .bss.au16data  0x200003da       0xf6 C:\Users\Haris\AppData\Local\Temp\VMBuilds\Main_Siemens_Automation_824MSPe\haeger_haeger_samd_haeger_mcu2\Release\Main_Siemens_Automation_824MSPe.cpp.o
                0x200003da                au16data
 .bss.Safety_Sensor_Switched_State
                0x200004d0        0x1 C:\Users\Haris\AppData\Local\Temp\VMBuilds\Main_Siemens_Automation_824MSPe\haeger_haeger_samd_haeger_mcu2\Release\Main_Siemens_Automation_824MSPe.cpp.o
                0x200004d0                Safety_Sensor_Switched_State
 .bss.Run_Setup_Mode_HMI
                0x200004d1        0x1 C:\Users\Haris\AppData\Local\Temp\VMBuilds\Main_Siemens_Automation_824MSPe\haeger_haeger_samd_haeger_mcu2\Release\Main_Siemens_Automation_824MSPe.cpp.o
                0x200004d1                Run_Setup_Mode_HMI
 .bss.Shuttle_Extend_Check
                0x200004d2        0x1 C:\Users\Haris\AppData\Local\Temp\VMBuilds\Main_Siemens_Automation_824MSPe\haeger_haeger_samd_haeger_mcu2\Release\All_At_Position_Function.cpp.o
                0x200004d2                Shuttle_Extend_Check
 .bss.Fastener_Detection_Error_Lock1
                0x200004d3        0x1 C:\Users\Haris\AppData\Local\Temp\VMBuilds\Main_Siemens_Automation_824MSPe\haeger_haeger_samd_haeger_mcu2\Release\All_At_Position_Function.cpp.o
                0x200004d3                Fastener_Detection_Error_Lock1
 .bss.Fastener_Detection_Error_Lock2
                0x200004d4        0x1 C:\Users\Haris\AppData\Local\Temp\VMBuilds\Main_Siemens_Automation_824MSPe\haeger_haeger_samd_haeger_mcu2\Release\All_At_Position_Function.cpp.o
                0x200004d4                Fastener_Detection_Error_Lock2
 .bss.Deactivate_All_At_Position
                0x200004d5        0x1 C:\Users\Haris\AppData\Local\Temp\VMBuilds\Main_Siemens_Automation_824MSPe\haeger_haeger_samd_haeger_mcu2\Release\All_At_Position_Function.cpp.o
                0x200004d5                Deactivate_All_At_Position
 *fill*         0x200004d6        0x2 
 .bss.CetValue_All_At_Position_Function
                0x200004d8        0x4 C:\Users\Haris\AppData\Local\Temp\VMBuilds\Main_Siemens_Automation_824MSPe\haeger_haeger_samd_haeger_mcu2\Release\All_At_Position_Function.cpp.o
                0x200004d8                CetValue_All_At_Position_Function
 .bss.INTERVAL_12
                0x200004dc        0x4 C:\Users\Haris\AppData\Local\Temp\VMBuilds\Main_Siemens_Automation_824MSPe\haeger_haeger_samd_haeger_mcu2\Release\Conductive_Mode_Function.cpp.o
                0x200004dc                INTERVAL_12
 .bss.CM_Delay  0x200004e0        0x1 C:\Users\Haris\AppData\Local\Temp\VMBuilds\Main_Siemens_Automation_824MSPe\haeger_haeger_samd_haeger_mcu2\Release\Conductive_Mode_Function.cpp.o
                0x200004e0                CM_Delay
 *fill*         0x200004e1        0x3 
 .bss.CetValue_CM_Function
                0x200004e4        0x4 C:\Users\Haris\AppData\Local\Temp\VMBuilds\Main_Siemens_Automation_824MSPe\haeger_haeger_samd_haeger_mcu2\Release\Conductive_Mode_Function.cpp.o
                0x200004e4                CetValue_CM_Function
 .bss.Timer_12  0x200004e8        0x4 C:\Users\Haris\AppData\Local\Temp\VMBuilds\Main_Siemens_Automation_824MSPe\haeger_haeger_samd_haeger_mcu2\Release\Conductive_Mode_Function.cpp.o
                0x200004e8                Timer_12
 .bss.TimedOut_12
                0x200004ec        0x1 C:\Users\Haris\AppData\Local\Temp\VMBuilds\Main_Siemens_Automation_824MSPe\haeger_haeger_samd_haeger_mcu2\Release\Conductive_Mode_Function.cpp.o
                0x200004ec                TimedOut_12
 *fill*         0x200004ed        0x3 
 .bss.INTERVAL_7
                0x200004f0        0x4 C:\Users\Haris\AppData\Local\Temp\VMBuilds\Main_Siemens_Automation_824MSPe\haeger_haeger_samd_haeger_mcu2\Release\Dwell_Time_Function.cpp.o
                0x200004f0                INTERVAL_7
 .bss.Timer_7   0x200004f4        0x4 C:\Users\Haris\AppData\Local\Temp\VMBuilds\Main_Siemens_Automation_824MSPe\haeger_haeger_samd_haeger_mcu2\Release\Dwell_Time_Function.cpp.o
                0x200004f4                Timer_7
 .bss.TimedOut_7
                0x200004f8        0x1 C:\Users\Haris\AppData\Local\Temp\VMBuilds\Main_Siemens_Automation_824MSPe\haeger_haeger_samd_haeger_mcu2\Release\Dwell_Time_Function.cpp.o
                0x200004f8                TimedOut_7
 .bss.FD_Delay  0x200004f9        0x1 C:\Users\Haris\AppData\Local\Temp\VMBuilds\Main_Siemens_Automation_824MSPe\haeger_haeger_samd_haeger_mcu2\Release\Fastener_Detection_Function.cpp.o
                0x200004f9                FD_Delay
 *fill*         0x200004fa        0x2 
 .bss.VacValue_Fastener_Detection_Function
                0x200004fc        0x4 C:\Users\Haris\AppData\Local\Temp\VMBuilds\Main_Siemens_Automation_824MSPe\haeger_haeger_samd_haeger_mcu2\Release\Fastener_Detection_Function.cpp.o
                0x200004fc                VacValue_Fastener_Detection_Function
 .bss.FDCount   0x20000500        0x4 C:\Users\Haris\AppData\Local\Temp\VMBuilds\Main_Siemens_Automation_824MSPe\haeger_haeger_samd_haeger_mcu2\Release\Fastener_Detection_Function.cpp.o
                0x20000500                FDCount
 .bss.INTERVAL_10
                0x20000504        0x4 C:\Users\Haris\AppData\Local\Temp\VMBuilds\Main_Siemens_Automation_824MSPe\haeger_haeger_samd_haeger_mcu2\Release\Fastener_Detection_Function.cpp.o
                0x20000504                INTERVAL_10
 .bss.CetValue_Fastener_Detection_Function
                0x20000508        0x4 C:\Users\Haris\AppData\Local\Temp\VMBuilds\Main_Siemens_Automation_824MSPe\haeger_haeger_samd_haeger_mcu2\Release\Fastener_Detection_Function.cpp.o
                0x20000508                CetValue_Fastener_Detection_Function
 .bss.Timer_10  0x2000050c        0x4 C:\Users\Haris\AppData\Local\Temp\VMBuilds\Main_Siemens_Automation_824MSPe\haeger_haeger_samd_haeger_mcu2\Release\Fastener_Detection_Function.cpp.o
                0x2000050c                Timer_10
 .bss.TimedOut_10
                0x20000510        0x1 C:\Users\Haris\AppData\Local\Temp\VMBuilds\Main_Siemens_Automation_824MSPe\haeger_haeger_samd_haeger_mcu2\Release\Fastener_Detection_Function.cpp.o
                0x20000510                TimedOut_10
 .bss.FDCount_Disable
                0x20000511        0x1 C:\Users\Haris\AppData\Local\Temp\VMBuilds\Main_Siemens_Automation_824MSPe\haeger_haeger_samd_haeger_mcu2\Release\Fastener_Detection_Function.cpp.o
                0x20000511                FDCount_Disable
 *fill*         0x20000512        0x2 
 .bss.CetValue_Fastener_Length_Function
                0x20000514        0x4 C:\Users\Haris\AppData\Local\Temp\VMBuilds\Main_Siemens_Automation_824MSPe\haeger_haeger_samd_haeger_mcu2\Release\Fastener_Length_Function.cpp.o
                0x20000514                CetValue_Fastener_Length_Function
 .bss.INTERVAL_11
                0x20000518        0x4 C:\Users\Haris\AppData\Local\Temp\VMBuilds\Main_Siemens_Automation_824MSPe\haeger_haeger_samd_haeger_mcu2\Release\Fastener_Length_Function.cpp.o
                0x20000518                INTERVAL_11
 .bss.FL_Delay  0x2000051c        0x1 C:\Users\Haris\AppData\Local\Temp\VMBuilds\Main_Siemens_Automation_824MSPe\haeger_haeger_samd_haeger_mcu2\Release\Fastener_Length_Function.cpp.o
                0x2000051c                FL_Delay
 *fill*         0x2000051d        0x3 
 .bss.Timer_11  0x20000520        0x4 C:\Users\Haris\AppData\Local\Temp\VMBuilds\Main_Siemens_Automation_824MSPe\haeger_haeger_samd_haeger_mcu2\Release\Fastener_Length_Function.cpp.o
                0x20000520                Timer_11
 .bss.TimedOut_11
                0x20000524        0x1 C:\Users\Haris\AppData\Local\Temp\VMBuilds\Main_Siemens_Automation_824MSPe\haeger_haeger_samd_haeger_mcu2\Release\Fastener_Length_Function.cpp.o
                0x20000524                TimedOut_11
 *fill*         0x20000525        0x3 
 .bss.INTERVAL_3
                0x20000528        0x4 C:\Users\Haris\AppData\Local\Temp\VMBuilds\Main_Siemens_Automation_824MSPe\haeger_haeger_samd_haeger_mcu2\Release\Feed_Fastener_Function.cpp.o
                0x20000528                INTERVAL_3
 .bss.Timer_3   0x2000052c        0x4 C:\Users\Haris\AppData\Local\Temp\VMBuilds\Main_Siemens_Automation_824MSPe\haeger_haeger_samd_haeger_mcu2\Release\Feed_Fastener_Function.cpp.o
                0x2000052c                Timer_3
 .bss.TimedOut_3
                0x20000530        0x1 C:\Users\Haris\AppData\Local\Temp\VMBuilds\Main_Siemens_Automation_824MSPe\haeger_haeger_samd_haeger_mcu2\Release\Feed_Fastener_Function.cpp.o
                0x20000530                TimedOut_3
 .bss.Local_Up_Active
                0x20000531        0x1 C:\Users\Haris\AppData\Local\Temp\VMBuilds\Main_Siemens_Automation_824MSPe\haeger_haeger_samd_haeger_mcu2\Release\Footpedal_Function.cpp.o
                0x20000531                Local_Up_Active
 .bss.Down_Pedal_Release
                0x20000532        0x1 C:\Users\Haris\AppData\Local\Temp\VMBuilds\Main_Siemens_Automation_824MSPe\haeger_haeger_samd_haeger_mcu2\Release\Footpedal_Function.cpp.o
                0x20000532                Down_Pedal_Release
 .bss.TimedOut_9
                0x20000533        0x1 C:\Users\Haris\AppData\Local\Temp\VMBuilds\Main_Siemens_Automation_824MSPe\haeger_haeger_samd_haeger_mcu2\Release\Hydraulic_Cylinder_Function.cpp.o
                0x20000533                TimedOut_9
 .bss.INTERVAL_9
                0x20000534        0x4 C:\Users\Haris\AppData\Local\Temp\VMBuilds\Main_Siemens_Automation_824MSPe\haeger_haeger_samd_haeger_mcu2\Release\Hydraulic_Cylinder_Function.cpp.o
                0x20000534                INTERVAL_9
 .bss.Shuttle_Selection_Up_Travel
                0x20000538        0x1 C:\Users\Haris\AppData\Local\Temp\VMBuilds\Main_Siemens_Automation_824MSPe\haeger_haeger_samd_haeger_mcu2\Release\Hydraulic_Cylinder_Function.cpp.o
                0x20000538                Shuttle_Selection_Up_Travel
 .bss.TPS_Lock_Reset
                0x20000539        0x1 C:\Users\Haris\AppData\Local\Temp\VMBuilds\Main_Siemens_Automation_824MSPe\haeger_haeger_samd_haeger_mcu2\Release\Hydraulic_Cylinder_Function.cpp.o
                0x20000539                TPS_Lock_Reset
 .bss.TPS_Cylinder_Lock
                0x2000053a        0x1 C:\Users\Haris\AppData\Local\Temp\VMBuilds\Main_Siemens_Automation_824MSPe\haeger_haeger_samd_haeger_mcu2\Release\Hydraulic_Cylinder_Function.cpp.o
                0x2000053a                TPS_Cylinder_Lock
 *fill*         0x2000053b        0x1 
 .bss.Timer_9   0x2000053c        0x4 C:\Users\Haris\AppData\Local\Temp\VMBuilds\Main_Siemens_Automation_824MSPe\haeger_haeger_samd_haeger_mcu2\Release\Hydraulic_Cylinder_Function.cpp.o
                0x2000053c                Timer_9
 .bss.Tool_Mode_Lock
                0x20000540        0x1 C:\Users\Haris\AppData\Local\Temp\VMBuilds\Main_Siemens_Automation_824MSPe\haeger_haeger_samd_haeger_mcu2\Release\Hydraulic_Cylinder_Function.cpp.o
                0x20000540                Tool_Mode_Lock
 *fill*         0x20000541        0x3 
 .bss.CetValue_Hydraulic_Cylinder_Function
                0x20000544        0x4 C:\Users\Haris\AppData\Local\Temp\VMBuilds\Main_Siemens_Automation_824MSPe\haeger_haeger_samd_haeger_mcu2\Release\Hydraulic_Cylinder_Function.cpp.o
                0x20000544                CetValue_Hydraulic_Cylinder_Function
 .bss.MCU1_Start_Bit
                0x20000548        0x1 C:\Users\Haris\AppData\Local\Temp\VMBuilds\Main_Siemens_Automation_824MSPe\haeger_haeger_samd_haeger_mcu2\Release\Initialization_Function.cpp.o
                0x20000548                MCU1_Start_Bit
 *fill*         0x20000549        0x3 
 .bss.INTERVAL_4
                0x2000054c        0x4 C:\Users\Haris\AppData\Local\Temp\VMBuilds\Main_Siemens_Automation_824MSPe\haeger_haeger_samd_haeger_mcu2\Release\MAS_Blow_Off_Function.cpp.o
                0x2000054c                INTERVAL_4
 .bss.Timer_4   0x20000550        0x4 C:\Users\Haris\AppData\Local\Temp\VMBuilds\Main_Siemens_Automation_824MSPe\haeger_haeger_samd_haeger_mcu2\Release\MAS_Blow_Off_Function.cpp.o
                0x20000550                Timer_4
 .bss.TimedOut_4
                0x20000554        0x1 C:\Users\Haris\AppData\Local\Temp\VMBuilds\Main_Siemens_Automation_824MSPe\haeger_haeger_samd_haeger_mcu2\Release\MAS_Blow_Off_Function.cpp.o
                0x20000554                TimedOut_4
 *fill*         0x20000555        0x3 
 .bss.MAS1_Amplifier_Value
                0x20000558        0x4 C:\Users\Haris\AppData\Local\Temp\VMBuilds\Main_Siemens_Automation_824MSPe\haeger_haeger_samd_haeger_mcu2\Release\MAS_Function.cpp.o
                0x20000558                MAS1_Amplifier_Value
 .bss.Timer_2   0x2000055c        0x4 C:\Users\Haris\AppData\Local\Temp\VMBuilds\Main_Siemens_Automation_824MSPe\haeger_haeger_samd_haeger_mcu2\Release\MAS_Function.cpp.o
                0x2000055c                Timer_2
 .bss.TimedOut_2
                0x20000560        0x1 C:\Users\Haris\AppData\Local\Temp\VMBuilds\Main_Siemens_Automation_824MSPe\haeger_haeger_samd_haeger_mcu2\Release\MAS_Function.cpp.o
                0x20000560                TimedOut_2
 *fill*         0x20000561        0x3 
 .bss.INTERVAL_2
                0x20000564        0x4 C:\Users\Haris\AppData\Local\Temp\VMBuilds\Main_Siemens_Automation_824MSPe\haeger_haeger_samd_haeger_mcu2\Release\MAS_Function.cpp.o
                0x20000564                INTERVAL_2
 .bss.INTERVAL_8
                0x20000568        0x4 C:\Users\Haris\AppData\Local\Temp\VMBuilds\Main_Siemens_Automation_824MSPe\haeger_haeger_samd_haeger_mcu2\Release\Modbus_Communication_Function.cpp.o
                0x20000568                INTERVAL_8
 .bss.Timer_8   0x2000056c        0x4 C:\Users\Haris\AppData\Local\Temp\VMBuilds\Main_Siemens_Automation_824MSPe\haeger_haeger_samd_haeger_mcu2\Release\Modbus_Communication_Function.cpp.o
                0x2000056c                Timer_8
 .bss.Swap_Bit  0x20000570        0x1 C:\Users\Haris\AppData\Local\Temp\VMBuilds\Main_Siemens_Automation_824MSPe\haeger_haeger_samd_haeger_mcu2\Release\Modbus_Communication_Function.cpp.o
                0x20000570                Swap_Bit
 .bss.TimedOut_8
                0x20000571        0x1 C:\Users\Haris\AppData\Local\Temp\VMBuilds\Main_Siemens_Automation_824MSPe\haeger_haeger_samd_haeger_mcu2\Release\Modbus_Communication_Function.cpp.o
                0x20000571                TimedOut_8
 .bss.Ref_Press_Reached
                0x20000572        0x1 C:\Users\Haris\AppData\Local\Temp\VMBuilds\Main_Siemens_Automation_824MSPe\haeger_haeger_samd_haeger_mcu2\Release\Press_Complete_Function.cpp.o
                0x20000572                Ref_Press_Reached
 *fill*         0x20000573        0x1 
 .bss.Timer_1   0x20000574        0x4 C:\Users\Haris\AppData\Local\Temp\VMBuilds\Main_Siemens_Automation_824MSPe\haeger_haeger_samd_haeger_mcu2\Release\Press_Complete_Function.cpp.o
                0x20000574                Timer_1
 .bss.Pressure_Switch_AI
                0x20000578        0x4 C:\Users\Haris\AppData\Local\Temp\VMBuilds\Main_Siemens_Automation_824MSPe\haeger_haeger_samd_haeger_mcu2\Release\Press_Complete_Function.cpp.o
                0x20000578                Pressure_Switch_AI
 .bss.TimedOut_1
                0x2000057c        0x1 C:\Users\Haris\AppData\Local\Temp\VMBuilds\Main_Siemens_Automation_824MSPe\haeger_haeger_samd_haeger_mcu2\Release\Press_Complete_Function.cpp.o
                0x2000057c                TimedOut_1
 *fill*         0x2000057d        0x3 
 .bss.CetValue_Safety_Sensor_State_Function
                0x20000580        0x4 C:\Users\Haris\AppData\Local\Temp\VMBuilds\Main_Siemens_Automation_824MSPe\haeger_haeger_samd_haeger_mcu2\Release\Safety_Sensor_State_Function.cpp.o
                0x20000580                CetValue_Safety_Sensor_State_Function
 .bss.Startup_SS_Check
                0x20000584        0x1 C:\Users\Haris\AppData\Local\Temp\VMBuilds\Main_Siemens_Automation_824MSPe\haeger_haeger_samd_haeger_mcu2\Release\Safety_Sensor_State_Function.cpp.o
                0x20000584                Startup_SS_Check
 *fill*         0x20000585        0x3 
 .bss.Init_FLD_Values
                0x20000588        0x4 C:\Users\Haris\AppData\Local\Temp\VMBuilds\Main_Siemens_Automation_824MSPe\haeger_haeger_samd_haeger_mcu2\Release\Setup_Stroke_Fastener_Length_Function.cpp.o
                0x20000588                Init_FLD_Values
 .bss.Stop_Read_FLD_Value
                0x2000058c        0x1 C:\Users\Haris\AppData\Local\Temp\VMBuilds\Main_Siemens_Automation_824MSPe\haeger_haeger_samd_haeger_mcu2\Release\Setup_Stroke_Fastener_Length_Function.cpp.o
                0x2000058c                Stop_Read_FLD_Value
 .bss.Stop_Read_TPS_U_Value
                0x2000058d        0x1 C:\Users\Haris\AppData\Local\Temp\VMBuilds\Main_Siemens_Automation_824MSPe\haeger_haeger_samd_haeger_mcu2\Release\Setup_Stroke_TPS_Function.cpp.o
                0x2000058d                Stop_Read_TPS_U_Value
 .bss.Init_TPS_Values
                0x2000058e        0x1 C:\Users\Haris\AppData\Local\Temp\VMBuilds\Main_Siemens_Automation_824MSPe\haeger_haeger_samd_haeger_mcu2\Release\Setup_Stroke_TPS_Function.cpp.o
                0x2000058e                Init_TPS_Values
 *fill*         0x2000058f        0x1 
 .bss.VacCountWithFast
                0x20000590        0x4 C:\Users\Haris\AppData\Local\Temp\VMBuilds\Main_Siemens_Automation_824MSPe\haeger_haeger_samd_haeger_mcu2\Release\Setup_Stroke_Vacuum_Detection_Function.cpp.o
                0x20000590                VacCountWithFast
 .bss.VacResultWithoutFast
                0x20000594        0x4 C:\Users\Haris\AppData\Local\Temp\VMBuilds\Main_Siemens_Automation_824MSPe\haeger_haeger_samd_haeger_mcu2\Release\Setup_Stroke_Vacuum_Detection_Function.cpp.o
                0x20000594                VacResultWithoutFast
 .bss.Vacuum_Without_Fastener
                0x20000598        0x4 C:\Users\Haris\AppData\Local\Temp\VMBuilds\Main_Siemens_Automation_824MSPe\haeger_haeger_samd_haeger_mcu2\Release\Setup_Stroke_Vacuum_Detection_Function.cpp.o
                0x20000598                Vacuum_Without_Fastener
 .bss.Vacuum_With_Fastener
                0x2000059c        0x4 C:\Users\Haris\AppData\Local\Temp\VMBuilds\Main_Siemens_Automation_824MSPe\haeger_haeger_samd_haeger_mcu2\Release\Setup_Stroke_Vacuum_Detection_Function.cpp.o
                0x2000059c                Vacuum_With_Fastener
 .bss.VacResultWithFast
                0x200005a0        0x4 C:\Users\Haris\AppData\Local\Temp\VMBuilds\Main_Siemens_Automation_824MSPe\haeger_haeger_samd_haeger_mcu2\Release\Setup_Stroke_Vacuum_Detection_Function.cpp.o
                0x200005a0                VacResultWithFast
 .bss.VacValue_Setup_Stroke_Function
                0x200005a4        0x4 C:\Users\Haris\AppData\Local\Temp\VMBuilds\Main_Siemens_Automation_824MSPe\haeger_haeger_samd_haeger_mcu2\Release\Setup_Stroke_Vacuum_Detection_Function.cpp.o
                0x200005a4                VacValue_Setup_Stroke_Function
 .bss.Vacuum_Measurment_Done
                0x200005a8        0x1 C:\Users\Haris\AppData\Local\Temp\VMBuilds\Main_Siemens_Automation_824MSPe\haeger_haeger_samd_haeger_mcu2\Release\Setup_Stroke_Vacuum_Detection_Function.cpp.o
                0x200005a8                Vacuum_Measurment_Done
 *fill*         0x200005a9        0x3 
 .bss.CetValue_Setup_Stroke_Function
                0x200005ac        0x4 C:\Users\Haris\AppData\Local\Temp\VMBuilds\Main_Siemens_Automation_824MSPe\haeger_haeger_samd_haeger_mcu2\Release\Setup_Stroke_Vacuum_Detection_Function.cpp.o
                0x200005ac                CetValue_Setup_Stroke_Function
 .bss.Vacuum_Without_Fastener_Set
                0x200005b0        0x1 C:\Users\Haris\AppData\Local\Temp\VMBuilds\Main_Siemens_Automation_824MSPe\haeger_haeger_samd_haeger_mcu2\Release\Setup_Stroke_Vacuum_Detection_Function.cpp.o
                0x200005b0                Vacuum_Without_Fastener_Set
 *fill*         0x200005b1        0x3 
 .bss.VacCountWithoutFast
                0x200005b4        0x4 C:\Users\Haris\AppData\Local\Temp\VMBuilds\Main_Siemens_Automation_824MSPe\haeger_haeger_samd_haeger_mcu2\Release\Setup_Stroke_Vacuum_Detection_Function.cpp.o
                0x200005b4                VacCountWithoutFast
 .bss.Vacuum_With_Fastener_Set
                0x200005b8        0x1 C:\Users\Haris\AppData\Local\Temp\VMBuilds\Main_Siemens_Automation_824MSPe\haeger_haeger_samd_haeger_mcu2\Release\Setup_Stroke_Vacuum_Detection_Function.cpp.o
                0x200005b8                Vacuum_With_Fastener_Set
 *fill*         0x200005b9        0x3 
 .bss.INTERVAL_5
                0x200005bc        0x4 C:\Users\Haris\AppData\Local\Temp\VMBuilds\Main_Siemens_Automation_824MSPe\haeger_haeger_samd_haeger_mcu2\Release\Shuttle_Function.cpp.o
                0x200005bc                INTERVAL_5
 .bss.INTERVAL_6
                0x200005c0        0x4 C:\Users\Haris\AppData\Local\Temp\VMBuilds\Main_Siemens_Automation_824MSPe\haeger_haeger_samd_haeger_mcu2\Release\Shuttle_Function.cpp.o
                0x200005c0                INTERVAL_6
 .bss.CetValue_Shuttle_Function
                0x200005c4        0x4 C:\Users\Haris\AppData\Local\Temp\VMBuilds\Main_Siemens_Automation_824MSPe\haeger_haeger_samd_haeger_mcu2\Release\Shuttle_Function.cpp.o
                0x200005c4                CetValue_Shuttle_Function
 .bss.Read_Shuttle_Coil_Active
                0x200005c8        0x1 C:\Users\Haris\AppData\Local\Temp\VMBuilds\Main_Siemens_Automation_824MSPe\haeger_haeger_samd_haeger_mcu2\Release\Shuttle_Function.cpp.o
                0x200005c8                Read_Shuttle_Coil_Active
 *fill*         0x200005c9        0x3 
 .bss.Timer_5   0x200005cc        0x4 C:\Users\Haris\AppData\Local\Temp\VMBuilds\Main_Siemens_Automation_824MSPe\haeger_haeger_samd_haeger_mcu2\Release\Shuttle_Function.cpp.o
                0x200005cc                Timer_5
 .bss.Timer_6   0x200005d0        0x4 C:\Users\Haris\AppData\Local\Temp\VMBuilds\Main_Siemens_Automation_824MSPe\haeger_haeger_samd_haeger_mcu2\Release\Shuttle_Function.cpp.o
                0x200005d0                Timer_6
 .bss.Up_Movement_Detection
                0x200005d4        0x1 C:\Users\Haris\AppData\Local\Temp\VMBuilds\Main_Siemens_Automation_824MSPe\haeger_haeger_samd_haeger_mcu2\Release\Shuttle_Function.cpp.o
                0x200005d4                Up_Movement_Detection
 .bss.TimedOut_5
                0x200005d5        0x1 C:\Users\Haris\AppData\Local\Temp\VMBuilds\Main_Siemens_Automation_824MSPe\haeger_haeger_samd_haeger_mcu2\Release\Shuttle_Function.cpp.o
                0x200005d5                TimedOut_5
 .bss.TimedOut_6
                0x200005d6        0x1 C:\Users\Haris\AppData\Local\Temp\VMBuilds\Main_Siemens_Automation_824MSPe\haeger_haeger_samd_haeger_mcu2\Release\Shuttle_Function.cpp.o
                0x200005d6                TimedOut_6
 *fill*         0x200005d7        0x1 
 .bss.Shuttle_Retraction_Zone
                0x200005d8        0x4 C:\Users\Haris\AppData\Local\Temp\VMBuilds\Main_Siemens_Automation_824MSPe\haeger_haeger_samd_haeger_mcu2\Release\Shuttle_Function.cpp.o
                0x200005d8                Shuttle_Retraction_Zone
 .bss.Timer1state
                0x200005dc        0x1 C:\Users\Haris\AppData\Local\Temp\VMBuilds\Main_Siemens_Automation_824MSPe\haeger_haeger_samd_haeger_mcu2\Release\Timer_Function.cpp.o
                0x200005dc                Timer1state
 .bss.Timer1_Set
                0x200005dd        0x1 C:\Users\Haris\AppData\Local\Temp\VMBuilds\Main_Siemens_Automation_824MSPe\haeger_haeger_samd_haeger_mcu2\Release\Timer_Function.cpp.o
                0x200005dd                Timer1_Set
 *fill*         0x200005de        0x2 
 .bss.previousMillisTimer1
                0x200005e0        0x4 C:\Users\Haris\AppData\Local\Temp\VMBuilds\Main_Siemens_Automation_824MSPe\haeger_haeger_samd_haeger_mcu2\Release\Timer_Function.cpp.o
                0x200005e0                previousMillisTimer1
 .bss.INTERVAL_13
                0x200005e4        0x4 C:\Users\Haris\AppData\Local\Temp\VMBuilds\Main_Siemens_Automation_824MSPe\haeger_haeger_samd_haeger_mcu2\Release\Tooling_Protection_Sytem_Function.cpp.o
                0x200005e4                INTERVAL_13
 .bss.Timer_13  0x200005e8        0x4 C:\Users\Haris\AppData\Local\Temp\VMBuilds\Main_Siemens_Automation_824MSPe\haeger_haeger_samd_haeger_mcu2\Release\Tooling_Protection_Sytem_Function.cpp.o
                0x200005e8                Timer_13
 .bss.CetValue_TPS_Function
                0x200005ec        0x4 C:\Users\Haris\AppData\Local\Temp\VMBuilds\Main_Siemens_Automation_824MSPe\haeger_haeger_samd_haeger_mcu2\Release\Tooling_Protection_Sytem_Function.cpp.o
                0x200005ec                CetValue_TPS_Function
 .bss.TimedOut_13
                0x200005f0        0x1 C:\Users\Haris\AppData\Local\Temp\VMBuilds\Main_Siemens_Automation_824MSPe\haeger_haeger_samd_haeger_mcu2\Release\Tooling_Protection_Sytem_Function.cpp.o
                0x200005f0                TimedOut_13
 .bss.TPS_Delay
                0x200005f1        0x1 C:\Users\Haris\AppData\Local\Temp\VMBuilds\Main_Siemens_Automation_824MSPe\haeger_haeger_samd_haeger_mcu2\Release\Tooling_Protection_Sytem_Function.cpp.o
                0x200005f1                TPS_Delay
 *fill*         0x200005f2        0x2 
 .bss.Up_Travel_Local
                0x200005f4        0x4 C:\Users\Haris\AppData\Local\Temp\VMBuilds\Main_Siemens_Automation_824MSPe\haeger_haeger_samd_haeger_mcu2\Release\Up_Travel_Function.cpp.o
                0x200005f4                Up_Travel_Local
 .bss.CetValue_Up_Travel_Function
                0x200005f8        0x4 C:\Users\Haris\AppData\Local\Temp\VMBuilds\Main_Siemens_Automation_824MSPe\haeger_haeger_samd_haeger_mcu2\Release\Up_Travel_Function.cpp.o
                0x200005f8                CetValue_Up_Travel_Function
 .bss.Press_Complete_Position_Local
                0x200005fc        0x4 C:\Users\Haris\AppData\Local\Temp\VMBuilds\Main_Siemens_Automation_824MSPe\haeger_haeger_samd_haeger_mcu2\Release\Up_Travel_Function.cpp.o
                0x200005fc                Press_Complete_Position_Local
 .bss.Vacuum_Active
                0x20000600        0x1 C:\Users\Haris\AppData\Local\Temp\VMBuilds\Main_Siemens_Automation_824MSPe\haeger_haeger_samd_haeger_mcu2\Release\Vacuum_Generator_Function.cpp.o
                0x20000600                Vacuum_Active
 *fill*         0x20000601        0x3 
 .bss.CetValue_Vacuum_Generator_Function
                0x20000604        0x4 C:\Users\Haris\AppData\Local\Temp\VMBuilds\Main_Siemens_Automation_824MSPe\haeger_haeger_samd_haeger_mcu2\Release\Vacuum_Generator_Function.cpp.o
                0x20000604                CetValue_Vacuum_Generator_Function
 .bss.Wire      0x20000608      0x17c C:\Users\Haris\AppData\Local\Temp\VMBuilds\Main_Siemens_Automation_824MSPe\haeger_haeger_samd_haeger_mcu2\Release\Wire\Wire.cpp.o
                0x20000608                Wire
 .bss.Serial1   0x20000784       0xc4 C:\Users\Haris\AppData\Local\Temp\VMBCore\visualmicro\ed00c25992609daaa7a7b547b702356d\variant\variant.cpp.o
                0x20000784                Serial1
 .bss.sercom3   0x20000848        0x4 C:\Users\Haris\AppData\Local\Temp\VMBCore\visualmicro\ed00c25992609daaa7a7b547b702356d\variant\variant.cpp.o
                0x20000848                sercom3
 .bss.sercom0   0x2000084c        0x4 C:\Users\Haris\AppData\Local\Temp\VMBCore\visualmicro\ed00c25992609daaa7a7b547b702356d\variant\variant.cpp.o
                0x2000084c                sercom0
 .bss.sercom1   0x20000850        0x4 C:\Users\Haris\AppData\Local\Temp\VMBCore\visualmicro\ed00c25992609daaa7a7b547b702356d\variant\variant.cpp.o
                0x20000850                sercom1
 .bss.sercom2   0x20000854        0x4 C:\Users\Haris\AppData\Local\Temp\VMBCore\visualmicro\ed00c25992609daaa7a7b547b702356d\variant\variant.cpp.o
                0x20000854                sercom2
 .bss.sercom4   0x20000858        0x4 C:\Users\Haris\AppData\Local\Temp\VMBCore\visualmicro\ed00c25992609daaa7a7b547b702356d\variant\variant.cpp.o
                0x20000858                sercom4
 .bss.sercom5   0x2000085c        0x4 C:\Users\Haris\AppData\Local\Temp\VMBCore\visualmicro\ed00c25992609daaa7a7b547b702356d\variant\variant.cpp.o
                0x2000085c                sercom5
 .bss.usb_isr   0x20000860        0x4 C:\Users\Haris\AppData\Local\Temp\VMBuilds\Main_Siemens_Automation_824MSPe\haeger_haeger_samd_haeger_mcu2\Release/core.a(cortex_handlers.c.o)
 .bss._ulTickCount
                0x20000864        0x4 C:\Users\Haris\AppData\Local\Temp\VMBuilds\Main_Siemens_Automation_824MSPe\haeger_haeger_samd_haeger_mcu2\Release/core.a(delay.c.o)
 .bss.tcEnabled.19842
                0x20000868        0xd C:\Users\Haris\AppData\Local\Temp\VMBuilds\Main_Siemens_Automation_824MSPe\haeger_haeger_samd_haeger_mcu2\Release/core.a(wiring_analog.c.o)
 .bss.dacEnabled
                0x20000875        0x2 C:\Users\Haris\AppData\Local\Temp\VMBuilds\Main_Siemens_Automation_824MSPe\haeger_haeger_samd_haeger_mcu2\Release/core.a(wiring_analog.c.o)
 *fill*         0x20000877        0x1 
 .bss.Serial    0x20000878       0x1c C:\Users\Haris\AppData\Local\Temp\VMBuilds\Main_Siemens_Automation_824MSPe\haeger_haeger_samd_haeger_mcu2\Release/core.a(CDC.cpp.o)
                0x20000878                Serial
 .bss._ZL14isEndpointHalt
                0x20000894        0x1 C:\Users\Haris\AppData\Local\Temp\VMBuilds\Main_Siemens_Automation_824MSPe\haeger_haeger_samd_haeger_mcu2\Release/core.a(USBCore.cpp.o)
 .bss._pack_buffer
                0x20000895      0x100 C:\Users\Haris\AppData\Local\Temp\VMBuilds\Main_Siemens_Automation_824MSPe\haeger_haeger_samd_haeger_mcu2\Release/core.a(USBCore.cpp.o)
                0x20000895                _pack_buffer
 *fill*         0x20000995        0x1 
 .bss._pack_size
                0x20000996        0x2 C:\Users\Haris\AppData\Local\Temp\VMBuilds\Main_Siemens_Automation_824MSPe\haeger_haeger_samd_haeger_mcu2\Release/core.a(USBCore.cpp.o)
                0x20000996                _pack_size
 .bss._ZL20LastTransmitTimedOut
                0x20000998        0x7 C:\Users\Haris\AppData\Local\Temp\VMBuilds\Main_Siemens_Automation_824MSPe\haeger_haeger_samd_haeger_mcu2\Release/core.a(USBCore.cpp.o)
 *fill*         0x2000099f        0x1 
 .bss._ZL22udd_ep_in_cache_buffer
                0x200009a0      0x1c0 C:\Users\Haris\AppData\Local\Temp\VMBuilds\Main_Siemens_Automation_824MSPe\haeger_haeger_samd_haeger_mcu2\Release/core.a(USBCore.cpp.o)
 .bss._ZL10txLEDPulse
                0x20000b60        0x1 C:\Users\Haris\AppData\Local\Temp\VMBuilds\Main_Siemens_Automation_824MSPe\haeger_haeger_samd_haeger_mcu2\Release/core.a(USBCore.cpp.o)
 *fill*         0x20000b61        0x3 
 .bss._ZL23udd_ep_out_cache_buffer
                0x20000b64      0x1c0 C:\Users\Haris\AppData\Local\Temp\VMBuilds\Main_Siemens_Automation_824MSPe\haeger_haeger_samd_haeger_mcu2\Release/core.a(USBCore.cpp.o)
 .bss._ZL10epHandlers
                0x20000d24       0x1c C:\Users\Haris\AppData\Local\Temp\VMBuilds\Main_Siemens_Automation_824MSPe\haeger_haeger_samd_haeger_mcu2\Release/core.a(USBCore.cpp.o)
 .bss._pack_message
                0x20000d40        0x1 C:\Users\Haris\AppData\Local\Temp\VMBuilds\Main_Siemens_Automation_824MSPe\haeger_haeger_samd_haeger_mcu2\Release/core.a(USBCore.cpp.o)
                0x20000d40                _pack_message
 .bss._ZL21isRemoteWakeUpEnabled
                0x20000d41        0x1 C:\Users\Haris\AppData\Local\Temp\VMBuilds\Main_Siemens_Automation_824MSPe\haeger_haeger_samd_haeger_mcu2\Release/core.a(USBCore.cpp.o)
 .bss._dry_run  0x20000d42        0x1 C:\Users\Haris\AppData\Local\Temp\VMBuilds\Main_Siemens_Automation_824MSPe\haeger_haeger_samd_haeger_mcu2\Release/core.a(USBCore.cpp.o)
                0x20000d42                _dry_run
 .bss.USBDevice
                0x20000d43        0x1 C:\Users\Haris\AppData\Local\Temp\VMBuilds\Main_Siemens_Automation_824MSPe\haeger_haeger_samd_haeger_mcu2\Release/core.a(USBCore.cpp.o)
                0x20000d43                USBDevice
 .bss._usbSetInterface
                0x20000d44        0x4 C:\Users\Haris\AppData\Local\Temp\VMBuilds\Main_Siemens_Automation_824MSPe\haeger_haeger_samd_haeger_mcu2\Release/core.a(USBCore.cpp.o)
                0x20000d44                _usbSetInterface
 .bss._ZL10rxLEDPulse
                0x20000d48        0x1 C:\Users\Haris\AppData\Local\Temp\VMBuilds\Main_Siemens_Automation_824MSPe\haeger_haeger_samd_haeger_mcu2\Release/core.a(USBCore.cpp.o)
 *fill*         0x20000d49        0x3 
 .bss.usbd      0x20000d4c      0x104 C:\Users\Haris\AppData\Local\Temp\VMBuilds\Main_Siemens_Automation_824MSPe\haeger_haeger_samd_haeger_mcu2\Release/core.a(USBCore.cpp.o)
                0x20000d4c                usbd
 .bss._usbConfiguration
                0x20000e50        0x4 C:\Users\Haris\AppData\Local\Temp\VMBuilds\Main_Siemens_Automation_824MSPe\haeger_haeger_samd_haeger_mcu2\Release/core.a(USBCore.cpp.o)
                0x20000e50                _usbConfiguration
 .bss._ZZ12PluggableUSBvE3obj
                0x20000e54        0x8 C:\Users\Haris\AppData\Local\Temp\VMBuilds\Main_Siemens_Automation_824MSPe\haeger_haeger_samd_haeger_mcu2\Release/core.a(PluggableUSB.cpp.o)
 .bss._ZGVZ12PluggableUSBvE3obj
                0x20000e5c        0x4 C:\Users\Haris\AppData\Local\Temp\VMBuilds\Main_Siemens_Automation_824MSPe\haeger_haeger_samd_haeger_mcu2\Release/core.a(PluggableUSB.cpp.o)
 .bss.__malloc_sbrk_start
                0x20000e60        0x4 c:/users/haris/appdata/local/arduino15/packages/arduino/tools/arm-none-eabi-gcc/4.8.3-2014q1/bin/../lib/gcc/arm-none-eabi/4.8.3/../../../../arm-none-eabi/lib/armv7e-m/fpu\libc_s.a(lib_a-nano-mallocr.o)
                0x20000e60                __malloc_sbrk_start
 .bss.__malloc_free_list
                0x20000e64        0x4 c:/users/haris/appdata/local/arduino15/packages/arduino/tools/arm-none-eabi-gcc/4.8.3-2014q1/bin/../lib/gcc/arm-none-eabi/4.8.3/../../../../arm-none-eabi/lib/armv7e-m/fpu\libc_s.a(lib_a-nano-mallocr.o)
                0x20000e64                __malloc_free_list
 .bss.heap_end.4243
                0x20000e68        0x4 c:/users/haris/appdata/local/arduino15/packages/arduino/tools/arm-none-eabi-gcc/4.8.3-2014q1/bin/../lib/gcc/arm-none-eabi/4.8.3/../../../../arm-none-eabi/lib/armv7e-m/fpu\libnosys.a(sbrk.o)
 *(COMMON)
 COMMON         0x20000e6c        0x4 c:/users/haris/appdata/local/arduino15/packages/arduino/tools/arm-none-eabi-gcc/4.8.3-2014q1/bin/../lib/gcc/arm-none-eabi/4.8.3/../../../../arm-none-eabi/lib/armv7e-m/fpu\libc_s.a(lib_a-reent.o)
                0x20000e6c                errno
                0x20000e70                . = ALIGN (0x4)
                0x20000e70                __bss_end__ = .

.heap           0x20000e70        0x0
                0x20000e70                __end__ = .
                0x20000e70                PROVIDE (end, .)
 *(.heap*)
                0x20000e70                __HeapLimit = .

.stack_dummy    0x20000e70        0x0
 *(.stack*)
                0x20030000                __StackTop = (ORIGIN (RAM) + 0x30000)
                0x20030000                __StackLimit = (__StackTop - SIZEOF (.stack_dummy))
                0x20030000                PROVIDE (__stack, __StackTop)
                0x2002ffff                __ram_end__ = ((ORIGIN (RAM) + 0x30000) - 0x1)
                0x00000001                ASSERT ((__StackLimit >= __HeapLimit), region RAM overflowed with stack)
OUTPUT(C:\Users\Haris\AppData\Local\Temp\VMBuilds\Main_Siemens_Automation_824MSPe\haeger_haeger_samd_haeger_mcu2\Release/Main_Siemens_Automation_824MSPe.ino.elf elf32-littlearm)

.ARM.attributes
                0x00000000       0x30
 .ARM.attributes
                0x00000000       0x22 c:/users/haris/appdata/local/arduino15/packages/arduino/tools/arm-none-eabi-gcc/4.8.3-2014q1/bin/../lib/gcc/arm-none-eabi/4.8.3/armv7e-m/fpu/crti.o
 .ARM.attributes
                0x00000022       0x34 c:/users/haris/appdata/local/arduino15/packages/arduino/tools/arm-none-eabi-gcc/4.8.3-2014q1/bin/../lib/gcc/arm-none-eabi/4.8.3/armv7e-m/fpu/crtbegin.o
 .ARM.attributes
                0x00000056       0x39 C:\Users\Haris\AppData\Local\Temp\VMBuilds\Main_Siemens_Automation_824MSPe\haeger_haeger_samd_haeger_mcu2\Release\Main_Siemens_Automation_824MSPe.cpp.o
 .ARM.attributes
                0x0000008f       0x39 C:\Users\Haris\AppData\Local\Temp\VMBuilds\Main_Siemens_Automation_824MSPe\haeger_haeger_samd_haeger_mcu2\Release\Alarm_Function.cpp.o
 .ARM.attributes
                0x000000c8       0x39 C:\Users\Haris\AppData\Local\Temp\VMBuilds\Main_Siemens_Automation_824MSPe\haeger_haeger_samd_haeger_mcu2\Release\All_At_Position_Function.cpp.o
 .ARM.attributes
                0x00000101       0x39 C:\Users\Haris\AppData\Local\Temp\VMBuilds\Main_Siemens_Automation_824MSPe\haeger_haeger_samd_haeger_mcu2\Release\Conductive_Mode_Function.cpp.o
 .ARM.attributes
                0x0000013a       0x39 C:\Users\Haris\AppData\Local\Temp\VMBuilds\Main_Siemens_Automation_824MSPe\haeger_haeger_samd_haeger_mcu2\Release\Dwell_Time_Function.cpp.o
 .ARM.attributes
                0x00000173       0x39 C:\Users\Haris\AppData\Local\Temp\VMBuilds\Main_Siemens_Automation_824MSPe\haeger_haeger_samd_haeger_mcu2\Release\Fastener_Detection_Function.cpp.o
 .ARM.attributes
                0x000001ac       0x39 C:\Users\Haris\AppData\Local\Temp\VMBuilds\Main_Siemens_Automation_824MSPe\haeger_haeger_samd_haeger_mcu2\Release\Fastener_Length_Function.cpp.o
 .ARM.attributes
                0x000001e5       0x39 C:\Users\Haris\AppData\Local\Temp\VMBuilds\Main_Siemens_Automation_824MSPe\haeger_haeger_samd_haeger_mcu2\Release\Feed_Fastener_Function.cpp.o
 .ARM.attributes
                0x0000021e       0x39 C:\Users\Haris\AppData\Local\Temp\VMBuilds\Main_Siemens_Automation_824MSPe\haeger_haeger_samd_haeger_mcu2\Release\Footpedal_Function.cpp.o
 .ARM.attributes
                0x00000257       0x39 C:\Users\Haris\AppData\Local\Temp\VMBuilds\Main_Siemens_Automation_824MSPe\haeger_haeger_samd_haeger_mcu2\Release\Hydraulic_Cylinder_Function.cpp.o
 .ARM.attributes
                0x00000290       0x39 C:\Users\Haris\AppData\Local\Temp\VMBuilds\Main_Siemens_Automation_824MSPe\haeger_haeger_samd_haeger_mcu2\Release\Initialization_Function.cpp.o
 .ARM.attributes
                0x000002c9       0x39 C:\Users\Haris\AppData\Local\Temp\VMBuilds\Main_Siemens_Automation_824MSPe\haeger_haeger_samd_haeger_mcu2\Release\Machine_State_Function.cpp.o
 .ARM.attributes
                0x00000302       0x39 C:\Users\Haris\AppData\Local\Temp\VMBuilds\Main_Siemens_Automation_824MSPe\haeger_haeger_samd_haeger_mcu2\Release\MAS_Blow_Off_Function.cpp.o
 .ARM.attributes
                0x0000033b       0x39 C:\Users\Haris\AppData\Local\Temp\VMBuilds\Main_Siemens_Automation_824MSPe\haeger_haeger_samd_haeger_mcu2\Release\MAS_Function.cpp.o
 .ARM.attributes
                0x00000374       0x39 C:\Users\Haris\AppData\Local\Temp\VMBuilds\Main_Siemens_Automation_824MSPe\haeger_haeger_samd_haeger_mcu2\Release\MCU_Version_Function.cpp.o
 .ARM.attributes
                0x000003ad       0x39 C:\Users\Haris\AppData\Local\Temp\VMBuilds\Main_Siemens_Automation_824MSPe\haeger_haeger_samd_haeger_mcu2\Release\Modbus_Communication_Function.cpp.o
 .ARM.attributes
                0x000003e6       0x39 C:\Users\Haris\AppData\Local\Temp\VMBuilds\Main_Siemens_Automation_824MSPe\haeger_haeger_samd_haeger_mcu2\Release\Non_Conductive_Mode_Function.cpp.o
 .ARM.attributes
                0x0000041f       0x39 C:\Users\Haris\AppData\Local\Temp\VMBuilds\Main_Siemens_Automation_824MSPe\haeger_haeger_samd_haeger_mcu2\Release\Press_Complete_Function.cpp.o
 .ARM.attributes
                0x00000458       0x39 C:\Users\Haris\AppData\Local\Temp\VMBuilds\Main_Siemens_Automation_824MSPe\haeger_haeger_samd_haeger_mcu2\Release\Robot_Communication_Function.cpp.o
 .ARM.attributes
                0x00000491       0x39 C:\Users\Haris\AppData\Local\Temp\VMBuilds\Main_Siemens_Automation_824MSPe\haeger_haeger_samd_haeger_mcu2\Release\Safety_Block_Function.cpp.o
 .ARM.attributes
                0x000004ca       0x39 C:\Users\Haris\AppData\Local\Temp\VMBuilds\Main_Siemens_Automation_824MSPe\haeger_haeger_samd_haeger_mcu2\Release\Safety_Sensor_State_Function.cpp.o
 .ARM.attributes
                0x00000503       0x39 C:\Users\Haris\AppData\Local\Temp\VMBuilds\Main_Siemens_Automation_824MSPe\haeger_haeger_samd_haeger_mcu2\Release\Setup_Stroke_Fastener_Length_Function.cpp.o
 .ARM.attributes
                0x0000053c       0x39 C:\Users\Haris\AppData\Local\Temp\VMBuilds\Main_Siemens_Automation_824MSPe\haeger_haeger_samd_haeger_mcu2\Release\Setup_Stroke_TPS_Function.cpp.o
 .ARM.attributes
                0x00000575       0x39 C:\Users\Haris\AppData\Local\Temp\VMBuilds\Main_Siemens_Automation_824MSPe\haeger_haeger_samd_haeger_mcu2\Release\Setup_Stroke_Vacuum_Detection_Function.cpp.o
 .ARM.attributes
                0x000005ae       0x39 C:\Users\Haris\AppData\Local\Temp\VMBuilds\Main_Siemens_Automation_824MSPe\haeger_haeger_samd_haeger_mcu2\Release\Shuttle_Function.cpp.o
 .ARM.attributes
                0x000005e7       0x39 C:\Users\Haris\AppData\Local\Temp\VMBuilds\Main_Siemens_Automation_824MSPe\haeger_haeger_samd_haeger_mcu2\Release\Timer_Function.cpp.o
 .ARM.attributes
                0x00000620       0x39 C:\Users\Haris\AppData\Local\Temp\VMBuilds\Main_Siemens_Automation_824MSPe\haeger_haeger_samd_haeger_mcu2\Release\Tooling_Protection_Sytem_Function.cpp.o
 .ARM.attributes
                0x00000659       0x39 C:\Users\Haris\AppData\Local\Temp\VMBuilds\Main_Siemens_Automation_824MSPe\haeger_haeger_samd_haeger_mcu2\Release\Toolingcontact_Function.cpp.o
 .ARM.attributes
                0x00000692       0x39 C:\Users\Haris\AppData\Local\Temp\VMBuilds\Main_Siemens_Automation_824MSPe\haeger_haeger_samd_haeger_mcu2\Release\Top_Of Stroke_Function.cpp.o
 .ARM.attributes
                0x000006cb       0x39 C:\Users\Haris\AppData\Local\Temp\VMBuilds\Main_Siemens_Automation_824MSPe\haeger_haeger_samd_haeger_mcu2\Release\Up_Travel_Function.cpp.o
 .ARM.attributes
                0x00000704       0x39 C:\Users\Haris\AppData\Local\Temp\VMBuilds\Main_Siemens_Automation_824MSPe\haeger_haeger_samd_haeger_mcu2\Release\Vacuum_Generator_Function.cpp.o
 .ARM.attributes
                0x0000073d       0x39 C:\Users\Haris\AppData\Local\Temp\VMBuilds\Main_Siemens_Automation_824MSPe\haeger_haeger_samd_haeger_mcu2\Release\ResponsiveAnalogRead\ResponsiveAnalogRead.cpp.o
 .ARM.attributes
                0x00000776       0x39 C:\Users\Haris\AppData\Local\Temp\VMBuilds\Main_Siemens_Automation_824MSPe\haeger_haeger_samd_haeger_mcu2\Release\Wire\Wire.cpp.o
 .ARM.attributes
                0x000007af       0x39 C:\Users\Haris\AppData\Local\Temp\VMBCore\visualmicro\ed00c25992609daaa7a7b547b702356d\variant\variant.cpp.o
 .ARM.attributes
                0x000007e8       0x39 C:\Users\Haris\AppData\Local\Temp\VMBuilds\Main_Siemens_Automation_824MSPe\haeger_haeger_samd_haeger_mcu2\Release/core.a(cortex_handlers.c.o)
 .ARM.attributes
                0x00000821       0x39 C:\Users\Haris\AppData\Local\Temp\VMBuilds\Main_Siemens_Automation_824MSPe\haeger_haeger_samd_haeger_mcu2\Release/core.a(delay.c.o)
 .ARM.attributes
                0x0000085a       0x39 C:\Users\Haris\AppData\Local\Temp\VMBuilds\Main_Siemens_Automation_824MSPe\haeger_haeger_samd_haeger_mcu2\Release/core.a(hooks.c.o)
 .ARM.attributes
                0x00000893       0x39 C:\Users\Haris\AppData\Local\Temp\VMBuilds\Main_Siemens_Automation_824MSPe\haeger_haeger_samd_haeger_mcu2\Release/core.a(startup.c.o)
 .ARM.attributes
                0x000008cc       0x39 C:\Users\Haris\AppData\Local\Temp\VMBuilds\Main_Siemens_Automation_824MSPe\haeger_haeger_samd_haeger_mcu2\Release/core.a(wiring_analog.c.o)
 .ARM.attributes
                0x00000905       0x39 C:\Users\Haris\AppData\Local\Temp\VMBuilds\Main_Siemens_Automation_824MSPe\haeger_haeger_samd_haeger_mcu2\Release/core.a(wiring_digital.c.o)
 .ARM.attributes
                0x0000093e       0x39 C:\Users\Haris\AppData\Local\Temp\VMBuilds\Main_Siemens_Automation_824MSPe\haeger_haeger_samd_haeger_mcu2\Release/core.a(wiring_private.c.o)
 .ARM.attributes
                0x00000977       0x39 C:\Users\Haris\AppData\Local\Temp\VMBuilds\Main_Siemens_Automation_824MSPe\haeger_haeger_samd_haeger_mcu2\Release/core.a(main.cpp.o)
 .ARM.attributes
                0x000009b0       0x39 C:\Users\Haris\AppData\Local\Temp\VMBuilds\Main_Siemens_Automation_824MSPe\haeger_haeger_samd_haeger_mcu2\Release/core.a(Print.cpp.o)
 .ARM.attributes
                0x000009e9       0x39 C:\Users\Haris\AppData\Local\Temp\VMBuilds\Main_Siemens_Automation_824MSPe\haeger_haeger_samd_haeger_mcu2\Release/core.a(Reset.cpp.o)
 .ARM.attributes
                0x00000a22       0x39 C:\Users\Haris\AppData\Local\Temp\VMBuilds\Main_Siemens_Automation_824MSPe\haeger_haeger_samd_haeger_mcu2\Release/core.a(RingBuffer.cpp.o)
 .ARM.attributes
                0x00000a5b       0x39 C:\Users\Haris\AppData\Local\Temp\VMBuilds\Main_Siemens_Automation_824MSPe\haeger_haeger_samd_haeger_mcu2\Release/core.a(SERCOM.cpp.o)
 .ARM.attributes
                0x00000a94       0x39 C:\Users\Haris\AppData\Local\Temp\VMBuilds\Main_Siemens_Automation_824MSPe\haeger_haeger_samd_haeger_mcu2\Release/core.a(Uart.cpp.o)
 .ARM.attributes
                0x00000acd       0x39 C:\Users\Haris\AppData\Local\Temp\VMBuilds\Main_Siemens_Automation_824MSPe\haeger_haeger_samd_haeger_mcu2\Release/core.a(WMath.cpp.o)
 .ARM.attributes
                0x00000b06       0x39 C:\Users\Haris\AppData\Local\Temp\VMBuilds\Main_Siemens_Automation_824MSPe\haeger_haeger_samd_haeger_mcu2\Release/core.a(CDC.cpp.o)
 .ARM.attributes
                0x00000b3f       0x39 C:\Users\Haris\AppData\Local\Temp\VMBuilds\Main_Siemens_Automation_824MSPe\haeger_haeger_samd_haeger_mcu2\Release/core.a(USBCore.cpp.o)
 .ARM.attributes
                0x00000b78       0x39 C:\Users\Haris\AppData\Local\Temp\VMBuilds\Main_Siemens_Automation_824MSPe\haeger_haeger_samd_haeger_mcu2\Release/core.a(wiring.c.o)
 .ARM.attributes
                0x00000bb1       0x39 C:\Users\Haris\AppData\Local\Temp\VMBuilds\Main_Siemens_Automation_824MSPe\haeger_haeger_samd_haeger_mcu2\Release/core.a(new.cpp.o)
 .ARM.attributes
                0x00000bea       0x39 C:\Users\Haris\AppData\Local\Temp\VMBuilds\Main_Siemens_Automation_824MSPe\haeger_haeger_samd_haeger_mcu2\Release/core.a(PluggableUSB.cpp.o)
 .ARM.attributes
                0x00000c23       0x39 C:\Users\Haris\AppData\Local\Temp\VMBuilds\Main_Siemens_Automation_824MSPe\haeger_haeger_samd_haeger_mcu2\Release/core.a(SAMD21_USBDevice.cpp.o)
 .ARM.attributes
                0x00000c5c       0x22 c:/users/haris/appdata/local/arduino15/packages/arduino/tools/arm-none-eabi-gcc/4.8.3-2014q1/bin/../lib/gcc/arm-none-eabi/4.8.3/armv7e-m/fpu\libgcc.a(_arm_addsubdf3.o)
 .ARM.attributes
                0x00000c7e       0x22 c:/users/haris/appdata/local/arduino15/packages/arduino/tools/arm-none-eabi-gcc/4.8.3-2014q1/bin/../lib/gcc/arm-none-eabi/4.8.3/armv7e-m/fpu\libgcc.a(_arm_muldivdf3.o)
 .ARM.attributes
                0x00000ca0       0x22 c:/users/haris/appdata/local/arduino15/packages/arduino/tools/arm-none-eabi-gcc/4.8.3-2014q1/bin/../lib/gcc/arm-none-eabi/4.8.3/armv7e-m/fpu\libgcc.a(_arm_truncdfsf2.o)
 .ARM.attributes
                0x00000cc2       0x34 c:/users/haris/appdata/local/arduino15/packages/arduino/tools/arm-none-eabi-gcc/4.8.3-2014q1/bin/../lib/gcc/arm-none-eabi/4.8.3/../../../../arm-none-eabi/lib/armv7e-m/fpu\libc_s.a(lib_a-impure.o)
 .ARM.attributes
                0x00000cf6       0x34 c:/users/haris/appdata/local/arduino15/packages/arduino/tools/arm-none-eabi-gcc/4.8.3-2014q1/bin/../lib/gcc/arm-none-eabi/4.8.3/../../../../arm-none-eabi/lib/armv7e-m/fpu\libc_s.a(lib_a-init.o)
 .ARM.attributes
                0x00000d2a       0x34 c:/users/haris/appdata/local/arduino15/packages/arduino/tools/arm-none-eabi-gcc/4.8.3-2014q1/bin/../lib/gcc/arm-none-eabi/4.8.3/../../../../arm-none-eabi/lib/armv7e-m/fpu\libc_s.a(lib_a-malloc.o)
 .ARM.attributes
                0x00000d5e       0x34 c:/users/haris/appdata/local/arduino15/packages/arduino/tools/arm-none-eabi-gcc/4.8.3-2014q1/bin/../lib/gcc/arm-none-eabi/4.8.3/../../../../arm-none-eabi/lib/armv7e-m/fpu\libc_s.a(lib_a-memcpy-stub.o)
 .ARM.attributes
